:020000040800F2
:10000000380B0020D5000008FD660008A52C00086C
:1000100000000000000000000000000000000000E0
:10002000000000000000000000000000CF68000891
:10003000000000000000000055670008416900084A
:10004000E7000008E7000008E7000008E7000008F4
:10005000E70000089B120008E7000008A51200084E
:10006000E7000008E7000008E7000008E7000008D4
:10007000E7000008E700000800000000E7000008B3
:1000800000000000E7000008000000000000000081
:10009000E700000800000000E7000008E700000893
:1000A000E7000008E7000008E7000008E700000894
:1000B000E7000008E7000008E7000008E700000884
:1000C0000348854600F046FB00480047F1760008EB
:1000D000380B00200448804704480047FEE7FEE74D
:1000E000FEE7FEE7FEE7FEE7B9690008C100000889
:1000F00030B50B46014600202022012409E00D46C0
:10010000D5409D4205D31D469540491B2546954047
:1001100040191546521E002DF1DC30BD70B500248B
:100120002546002801DA01244042002901DA012590
:100130004942FFF7DDFFAC4200D04042002C00D026
:10014000494270BD10B503461C460C43A40703D0BA
:1001500009E010C9121F10C3042AFAD203E00C7878
:100160001C70491C5B1C521EF9D210BDD2B201E0BA
:100170000270401C491EFBD270470022F6E710B502
:1001800013460A4604461946FFF7F0FF204610BD05
:10019000421C0178401C0029FBD1801A704703469D
:1001A00003220870000A491C521EFAD518467047EF
:1001B000F8B502464A40D40F42004B0052085B0893
:1001C0009A4202D20246084611464A0023D0C30D85
:1001D0004A00DDB2120EAD1A202D35DA4902012691
:1001E000490AF6058A19002C00D0524220214F1BE3
:1001F0001146B9402A411018C20D9A4221D0002C54
:1002000017D0012D08DCDA05801AD20F8019D20729
:10021000DBB200F007FAF8BDDA05801A01234000CE
:100220001B06C01880185A428018CA0F1043490094
:1002300007E04908C2071143DA05801A801940080F
:10024000801800F0E7F9F8BD61000122511A001B87
:10025000F7E70122D2075140AAE70122D207504016
:10026000A6E7024670B54A40D30FDB0740002DD009
:100270004A002AD0010E140E000212020919400A87
:10028000520A8418E50104465443000A120A2E0457
:100290005043A4194219200CC543AA18120C012579
:1002A000AD03521C521912047F39240400D0521C91
:1002B000104301D44000491EC2B20C06C0092018E8
:1002C000401C4008802A02D003E0002070BD400896
:1002D0004000002900DA0020184370BD70B50246C6
:1002E0004A40D50F40004A00ED0740085208002858
:1002F00014D0002A12D0C40DD30D41020120C00534
:100300005202490A520AE41A091812187D3491421D
:1003100001D3641C00E04900002C01DA002070BD0C
:100320000023914201D3891A034340084900002861
:10033000F7D100290AD0914202D10121C90705E075
:10034000914201D2012101E00121C943E005C01819
:10035000401900F05FF970BDF0B5074608465840F7
:1003600087B0C00F049048000E4659004008490865
:10037000BC1A884105D2384631461E4617460B4600
:1003800002465800400810434CD0300D0390400501
:100390005900400D490D0590401A0290402872DA2C
:1003A00018030121000B09050843019004980092ED
:1003B000002805D001995242002088410092019006
:1003C000029840210A1A0199009800F0EFF80546BA
:1003D0000C466B4607CB00F00AF9C0197141039A2D
:1003E0000E0D0023D71756401A467A40164344D0C4
:1003F000049A002A2DD0029A012A039A15DC1205CC
:10040000C01A914101263605001C7141D20F059E8C
:10041000D2070093019202962A46234600F048F93B
:1004200007B0F0BD38463146FAE71605224A0F46B6
:10043000B218C01AB74101210905001C4F4100182C
:100440007F41114618187941E20F10436D1964413C
:1004500013E0E2076D0815436408C2071443039ACA
:1004600001261205C01A91413605001C7141CE07C4
:10047000400830434908C01851412A46234600F03D
:100480000AF9CDE7FFE7049801224000C117121ACC
:1004900000238B4104983146C417381AA141EEE776
:1004A00030B40124E407634030BC55E730B4012484
:1004B000E407614030BC4FE70000E0FFC217C10F06
:1004C000504010B54018CA079623002100F0AAF842
:1004D00010BD10B500229623114600F0A3F810BD00
:1004E000C20F410040020123400ADB05D207090E7A
:1004F000C0187F2901DA00207047962903DC962373
:10050000591AC84001E096398840002AF4D0404288
:100510007047410040020122400AD205090E8018AE
:100520007F2901DA00207047962903DC9622511AB0
:10053000C8407047963988407047000070B5CD0FAD
:100540004A0009030123090B1B0519430B4BED0757
:100550000024520D9A4201DA002070BD074B34335B
:100560009A4203DC9A1A00F031F802E0044951186B
:1005700088402C43F1D0404270BD0000FF030000D2
:10058000CDFBFFFFC20FD207400040080BD0C10DCA
:100590000723DB01C91840020905400A1143C208BC
:1005A00040071143704700200146704710B5202ACC
:1005B00004DB0146203A9140002010BD91402023E9
:1005C0009C1A0346E3401943904010BD10B5202A01
:1005D00004DB0846203AD040002110BD0B46D34032
:1005E000D0402024A21A91400843194610BD10B5EE
:1005F000202A06DBCB170846203A1041C1170B43CF
:1006000006E00B461341D0402024A21A9140084333
:10061000194610BD002904DA401C490001D14008E8
:100620004000704770B40024050C05D1102400046C
:1006300002D1002921D01124050E01D10002083475
:10064000050F01D10001241D850F01D18000A41CDC
:10065000002801DB4000641C002908D020252E1B47
:100660000D46F540A14000D0012129430843010671
:100670001B1B000ADB1D02D5002070BC7047DB0588
:10068000181880180029F8DA401C4900F5D170BC10
:1006900040084000704710B5002B08DA0024401CC9
:1006A000614192185B411A4301D14008400010BDDE
:1006B000F0B51FB482B005460C0003D0084606F022
:1006C00011FA02E006F00EFA2030024600902146B0
:1006D0002846FFF76BFF049B059A04460F46184314
:1006E0001143084314D0184610431BD000984021F2
:1006F0000A1A18460599FFF769FF05460E46009A43
:1007000005990498FFF752FF084305D0012004E043
:100710002046394607B0F0BD0020C11705430E43FF
:100720002C43374300990E986305401A7905E40A73
:1007300000220C43FD0A0A3002D500200146E9E7F9
:100740000105101969410C9C0D9D00196941FFF7C5
:10075000A2FFDFE7064C0125064E05E0E36807CC63
:100760002B430C3C98471034B442F7D3FFF7ACFC52
:10077000C4780008E478000870B58C180578401C2F
:100780006B075B0F01D10378401C2A1106D1027858
:10079000401C03E006780E70401C491C5B1EF9D11A
:1007A0002B0705D40023521E0DD40B70491CFAE709
:1007B0000378401CCB1A921C03E01D780D70491C75
:1007C0005B1C521EF9D5A142D8D3002070BD000099
:1007D0000EB5027869460A71018806230A12694635
:1007E0004A7102798A7181880A126946CA71027A4D
:1007F0000A72008900220012487201A80090044881
:100800000189C08806F0DAFC002800D047200EBD20
:100810000C000020F0B58BB01B2168460176C52185
:100820004176D5218176A526C67602250577002456
:100830004477B42181779A21C177E12108A801701A
:10084000112141703A218170CF27C7708021017139
:100850006E214171362181710121C1711E480A4604
:100860000090072306A9022006F02AFC002830D1B8
:100870001B2168460176C5214176D5218176C67651
:1008800005774477B42181779A21C177E12108A8BF
:100890000170112141703A218170C770802101716E
:1008A0006E214171362181710321C1710A481021E5
:1008B000801C0422009502920391059004940194F7
:1008C0000838062306AA0221C08806F033FB002858
:1008D00000D047200BB0F0BD12000020F0B591B061
:1008E0001B2508A80571C5244471D5218171A52156
:1008F000C1710221017200214172B42181729A26D4
:10090000C672E1270773112141733A218173CF2108
:10091000C173802101746E214174362181740421D8
:10092000C174604800900A23012209A9022006F040
:10093000C7FB00287ED108A80571C5214171D521CA
:100940008171A521C1710221017200244472B42178
:1009500081729A21C172E1210173112141733A21FF
:100960008173CF21C173802101746E2141743621BE
:1009700081740521C1744B481021801C0590022010
:100980000391042704946E4691C6034601464548E8
:1009900009AA0A38408906F0CDFA00287ED10E2136
:1009A00008A80175611E41753F496846C18608A8BF
:1009B00004764476210A81763C4968468187102175
:1009C00010A8069108900121059407940DAA07200C
:1009D00001AB049115C3334E00900A3E0A460FAB9B
:1009E000B189708906F0FEFA002857D108A8057170
:1009F000C5214171D5218171A521C17102210172E9
:100A00004472B42282729A22C272E12202731122CB
:100A100042733A228273CF22C273802202746E2202
:100A20004274362282740725C57432460E32102075
:100A3000049400E032E005920091022302970194B1
:100A4000039009AA1946708906F074FA002825D186
:100A50000E2108A80175611E41752721090268460B
:100A6000C18608A804764476210A81760F49684633
:100A7000818710A810210890069101200594079401
:100A80000DA90195009503940291049002460FABC5
:100A9000F189708906F0A6FA002800D0472011B02D
:100AA000F0BD0000160000202F27000004290000E0
:100AB000F0B58BB01B2568460576C5264676D52150
:100AC0008176A521C1760221017700244477B421E3
:100AD00081779A21C177E12108A801701121417025
:100AE0003A278770CF21C170802101716E21417139
:100AF000362181710B21C1711F480090072301220B
:100B000006A9022006F0DCFA002831D168460576F5
:100B10004676D5218176A521C176022101774477D9
:100B2000B42181779A21C177E12108A801701121B0
:100B300041708770CF21C170802101716E21417198
:100B4000362181710C21C1710B4A0121921C1020A8
:100B500003AB029107C30E200090074801941038A0
:100B6000042306AA0221008A06F0E4F9002800D036
:100B700047200BB0F0BD00001C00002010B5094B51
:100B80005C8A641CA04208D1012906D110789870B3
:100B9000002803D0002000F031F910BD002000F043
:100BA0001DF910BD0C00002010B50D480B49016067
:100BB000FF210531416000218160C1600161012296
:100BC000416152020162826141620722C2620822CF
:100BD000C261816201F048F910BD0000003001409F
:100BE0002803002010B500280AD0C268002907D0C9
:100BF0009269002A04D09047012800D0002010BD3F
:100C0000012010BD10B50C4600212160002806D03F
:100C10000128204607D000F0E1F9012807D120463D
:100C200000F0A0F901E000F0D9F9012800D000207F
:100C300010BD002805D0002903D0C078087000201E
:100C400070470120704710B5002808D0C168896836
:100C5000002904D08847012800D0002010BD0120C1
:100C600010BD000070B5174C0646E078012820D072
:100C700005F02EFE01281CD0BC202070BE20607024
:100C80000025A570E5702571012060710E4823468E
:100C90000E49083323C30E4A011F0A6022C0346084
:100CA000E16820460968002904D08847012807D058
:100CB000002070BD1421FFF760FA0120356070BD7F
:100CC0003068F7E7B0060020740000208C00002098
:100CD000F400002070B5184C0646E078012821D0B9
:100CE00005F0F6FD01281DD0BC202070BE206070EC
:100CF0000025A570E570257101206071204623460E
:100D000050300E49083323C30E490D4A0A6022C0F1
:100D10003460E16820460968002904D0884701282A
:100D200007D0002070BD1421FFF727FA012035609D
:100D300070BD3068F7E70000C4060020C000002046
:100D4000F40000207C00002010B500280AD0C26802
:100D5000002907D09269002A04D09047012800D0CA
:100D6000002010BD012010BD10B5002208460A6009
:100D7000FFF778FF012800D0002010BD002805D023
:100D8000002903D0C0780870002070470120704708
:100D9000F0B50F4987B0CB6A01221343CB62C96A11
:100DA0000C4D114044000091295B019100210391F9
:100DB0000321094F049102928600B85901A900F05D
:100DC000B5FA295BB859002200F071FB07B0F0BDFD
:100DD00000100240527800083000002010B5054A8B
:100DE0004100515A044A80001058002200F05FFB75
:100DF00010BD0000527800083000002010B5054AF0
:100E00004100515A044A80001058012200F04FFB63
:100E100010BD0000527800083000002070B51D4C55
:100E20000546E07F01282CD005F052FD012828D08E
:100E3000B1202077B82060770320A07700262046D5
:100E4000E677203006700121417001462831403894
:100E50004164114981641149C1641248104901601B
:100E600021463031CE618861084614382860C16857
:100E70000968002906D08847012809D002F050FBF4
:100E8000002070BD1421FFF778F901202E6070BD9D
:100E90002868F7E7E4060020AC020020E00200200A
:100EA0001C03002088000020F8B507461420294CB8
:100EB00078430019C0780E46012842D005F008FD9D
:100EC00001283ED020460121BD225030224B002572
:100ED000012F03D0022F14D030682AE02275BA22E5
:100EE0006275A175E575257661761A491C3458310D
:100EF0002AC41B49194A0A60C5608160154814302C
:100F000016E0144F303420373A72B8227A72022237
:100F1000BA72FD723D737973394640312AC40F4A63
:100F20000F49121D091D0A604561016138460830EC
:100F30003060C1680968002904D08847012807D0BB
:100F40000020F8BD1421FFF718F901203560F8BD25
:100F50003068F7E7C4060020F80000202C010020CC
:100F60008000002070B5194C0646E078012823D097
:100F700005F0AEFC01281FD068202070D6206070DC
:100F80000025A570E570257101206071204623467B
:100F900028300F49083323C30F490E4A4A6022C044
:100FA0003460E16820460968002906D08847012896
:100FB00009D003F0F2F9002070BD1421FFF7DDF82D
:100FC0000120356070BD3068F7E70000780600202A
:100FD00034010020840100206800002070B51A4C04
:100FE0000546E07D012825D005F072FC012821D0BE
:100FF00069202075D42060750120A0750026E67553
:101000002676607620463030E06110482062104835
:101010006062204628300F49C6608160143828601D
:10102000C1680968002906D08847012809D004F062
:1010300049FC002070BD1421FFF79FF801202E60AD
:1010400070BD2868F7E70000780600205C020020E9
:101050008C0100206400002010B500280AD0C2686E
:10106000002907D09269002A04D09047012800D0B7
:10107000002010BD012010BD10B50C4600212160DC
:1010800000281AD0012813D002281AD0032820469D
:101090001AD0FFF7C3FE01281AD121460220FFF71C
:1010A00003FF012814D12046FFF714FE01280FD1B9
:1010B00021460120FFF7F8FE08E02046FFF70AFE70
:1010C00004E021460220F5E7FFF7A8FE012800D042
:1010D000002010BD002805D0002903D0C07808707A
:1010E000002070470120704710B5002808D0C16863
:1010F0008968002904D08847012800D0002010BD4D
:10110000012010BD10B505200121000700F0CAF92B
:10111000012800D0002010BD70B5FF240525013442
:101120002D0700222146284600F0C1F9052000F0D5
:10113000E1F801222146284600F0B9F9052000F027
:10114000D9F870BDF7B588B0FF216846017320A0BB
:1011500003C8059016460025069105202A4602215F
:10116000000700F0A4F90F27052301AA05A900979D
:10117000089800F04DFF68460079022818D16846AB
:10118000017AC0790C02044312D0B4420ED934461D
:101190000CE0012304AA03A90097089800F038FF87
:1011A0006846017C099841556D1CEDB2A542F0D30B
:1011B000052001220221000700F079F900200090AB
:1011C00000BF401C00900228FADB28460BB0F0BD9F
:1011D0000B00000000000000FFB524A1C5B003C94A
:1011E0004E9E0491039023A103C901901F46002441
:1011F0000291052000F010FB0520002202210007CB
:1012000000F055F90F25052301AA03A9009545987B
:1012100000F0FEFE6846007902280CD0641E05200E
:1012200001220221000700F042F9052000F0FEFA39
:10123000204649B0F0BD68464079B919884212D3BA
:10124000002F06D000953B4605AA4699459800F028
:10125000DFFE002EE3D0334605AA00954799459856
:1012600000F0D6FEDBE70124E443D8E70A000000E3
:1012700000000000AA000000000000000149012059
:10128000486170470004014010B500F017F910BD27
:1012900010B5052000F0C0FA10BD10B5012000F017
:1012A00039F810BD10B50120400300F033F80249B1
:1012B0000120087010BD00000000002010B50520BE
:1012C00000F0B4FA10BD00000448012242618180A0
:1012D0000520401E0028FCDC704700000C000020A8
:1012E00003480021416101220270417070470000F3
:1012F0000C00002031B500F0E1F8044600F0DEF803
:101300000099001B8842F9D338BD10B501F050F8A0
:1013100010BD000010B504494A69024202D048617C
:10132000FFF7F3FF10BD000000040140F8B50023F3
:101330000124A2E027469F403A4070D04D68022D1C
:1013400001D0122D14D1DD08AD002D1800952D6AA5
:101350005E07AC46F50E0F26AE46AE406546B54379
:10136000AC460E697546AE4065462E43009D2E6222
:101370004D68012D05D0022D03D0112D01D0122D65
:1013800016D185680326AC465D00AE46AE40654684
:10139000B543AC46CE687546AE4065462E43866082
:1013A00046680D79BE43ED06ED0F9D40354345601F
:1013B00006685F000325BD40AE46AE430D79B446D6
:1013C000AE07B60FBE4065462E430660C66875463A
:1013D000AE438D68BD403543C5604D68ED004BD5CB
:1013E000294D6E6B26436E639E08284DB600751915
:1013F000AC46AD689E07360F0F27B740BD430527A3
:101400003F07B84201D1002715E0214FB84201D172
:10141000012710E01F4FB84202D102270BE02BE05A
:101420001D4FB84201D1032705E01C4FB84201D13E
:10143000052700E00627B7402F436546AF60184DEB
:101440002E684F689643FF0300D516432E606E68E2
:101450004F689643BF0300D516436E60AE684F6871
:101460009643FF0200D51643AE60EE684F68964380
:10147000BF0200D51643EE605B1C0A681546DD40CE
:1014800000D057E7F8BD0000001002400000014006
:101490000004005000080050000C0050001C0050D8
:1014A000000401400069084000D001207047002A74
:1014B00001D0816170478162704700000148006877
:1014C000704700004800002070B5040012D00221CF
:1014D00020462030054641752068016849084900CA
:1014E0000160204600F06CF90021A163697529753F
:1014F000084670BD012070BD2030407D704700005F
:1015000070B5040006D025462035687D00260028E9
:1015100002D005E0012070BD2E75204600F051F983
:1015200002206875206801684908490001600F21A0
:101530006068090688432168086120688268012183
:10154000C9038A438260A068002807D0E268012AA4
:1015500001D021218902084321688860E0680228BF
:1015600002D1216880024860206841680C4A11431A
:101570004160616920690843A16909020843216843
:10158000C860216AE0690843216808602068026831
:1015900001210A430260A6636975002070BD000046
:1015A00000800002FFB5064681B005462036707DFA
:1015B0000B9C01287CD10A98002869D0002C67D0A8
:1015C00028688069C043000472D5307D01286FD03F
:1015D00001203075622070750020A8630C9800907F
:1015E0002846029901F022FC002808D0A86B0428A4
:1015F00002D00020307542E00020307548E009201C
:101600008002FF2C09D9012300901B06FF222846E7
:10161000029901F06FFCFF2708E001230090E2B27D
:101620005B062846029901F065FC2746002204214A
:1016300028460C9B01F070FC002820D12868406AE5
:101640000A99641E08700A98A4B2401C0A907F1E72
:101650000BD0002CEAD11921284601F095FC002876
:1016600018D0A86B042813D009E0002CF3D0002276
:10167000802128460C9B01F04FFC002802D003205B
:1016800005B0F0BDFF2C01D90020BCE70020C4E765
:101690000120F5E729682020C86128684168054ACB
:1016A000114041600120707500203075E8E7FFE7C8
:1016B0000220E5E700E800FEFFB5064681B00546DA
:1016C0002036707D0B9C012875D10A98002870D0B7
:1016D000002C6ED028688069C04300046BD5307D33
:1016E000012868D001203075522070750020A86351
:1016F0000C9800902846029901F0CAFB002855D0AA
:10170000A86B042802D0002030754CE00020307512
:101710004FE00020012300901B06FF22284602997B
:1017200001F0E8FBFF2709E0002001230090E2B26E
:101730005B062846029901F0DDFB274628460C99F6
:1017400001F04AFC002803D0A86B042831D02AE01D
:101750000A982968007888620A98641E401CA4B21E
:101760000A907F1E15D0002CE8D11921284601F0DF
:101770000BFC0028E8D129682020C861286841684E
:101780000E4A11404160012070750020307505B08F
:10179000F0BD002CE9D00022802128460C9B01F0EE
:1017A000BBFB002802D00320F1E704E0FF2CBBD9EB
:1017B000AFE70120EBE70220E9E7000000E800FEC8
:1017C0007047704702480168491C0160704700007B
:1017D0004800002010B506480168022291430160CC
:1017E000032000F007F800F016F8002010BD0000FC
:1017F0000020024010B5044600F0CCF87D21C9005D
:10180000FEF776FC00F060FD00222146501E00F03D
:1018100017F8002010BD7047C106C90E012088408E
:10182000014908607047000080E100E0C106C90E70
:1018300001208840014908607047000000E100E095
:1018400010B504F05DFF10BDF8B505464E480E46D4
:101850000068C007C00FB0420AD24B48016849086F
:101860004900314301600068C007C00FB0426FD12A
:101870002878464C800705D5E068F0218843A968A0
:101880000843E0602878C00752D06868022817D063
:10189000002818D02168032818D04907002957DAF2
:1018A000E168890889000143E160FFF707FE696884
:1018B0000746022912D003291CD0002926D032E085
:1018C00021688903EAE721688905E7E78901E5E7F7
:1018D000FFF7F4FDC11B2E48814222D8E0680007C3
:1018E000800F0228F4D123E0FFF7E8FDC11B284850
:1018F000814216D8E0680007800F0328F4D117E072
:10190000FFF7DCFDC11B224881420AD8E0680007CE
:10191000800FF5D10CE0FFF7D1FDC11B1C488142BF
:1019200001D90320F8BDE0680007800F0128F2D13B
:1019300015480168C907C90FB1420BD301684908AE
:101940004900314301600068C007C00FB04201D0B8
:101950000120F8BD2878400706D5E0680721090274
:101960008843E9680843E0602878000707D5E06805
:101970000721C90288432969C9000843E0600320A0
:10198000FFF738FF0020F8BD0020024000100240A1
:101990008813000010B500F011F80549C968054A20
:1019A0000906090F515CC8400349086010BD0000DA
:1019B000001002406F7800084400002010B51A4A59
:1019C0005068D3680004410F0C200340174805D02D
:1019D000042B06D0082B0BD00C2B0BD0491C8840B5
:1019E00010BD1068C00601D5114810BD114810BDCA
:1019F000114810BDD068D1688002104B000F185CF0
:101A00000902D368890F01242404491C234204D10C
:101A10001268D20603D5064A02E0074A00E0054AEA
:101A20005043FEF765FB10BD00100240008000002F
:101A300000093D000024F40000127A0066780008D6
:101A4000FEB504460078FA4DC0074DD0E86800079F
:101A5000800F022807D0E8680007800F032809D10B
:101A6000E868C00306D5286880033DD56068002873
:101A700075D039E0012062680004824203D12968F0
:101A80000143296014E0052301211B0489049A42C3
:101A90002A6805D182432A602A680A432A60EEE751
:101AA00082432A602A68024000922868884328609E
:101AB000606800280CD0FFF701FD064604E0FFF740
:101AC000FDFC801B64287DD828688003F7D50BE0D7
:101AD000FFF7F4FC064604E0FFF7F0FC801B6428E7
:101AE000F1D828688003F7D42078800740D5E868CB
:101AF0001F270007800F3F02012807D0E868000772
:101B0000800F032809D1E868C00306D4286840077D
:101B100017D5E068012822D113E0E16809200029E7
:101B200016D02A6882430A432A60FFF7C7FC06469C
:101B300004E0FFF7C3FC801B0228C4D828684007D4
:101B4000F7D568682169B8430902084368600FE067
:101B5000296881432960FFF7B1FC064605E096E05D
:101B6000FFF7ACFC801B0228ADD828684007F7D4EB
:101B70002078B04FC0064BD5E8680007800F09D029
:101B8000E0690028286835D038432860FFF796FCC4
:101B900006461DE02868800502D5E069002876D059
:101BA0006868072149038843616A08436860686878
:101BB000218C0002000A0906084368600320FFF731
:101BC00019FE25E0D9E0FFF779FC801B022887D8B1
:101BD00028688005F7D56868072149038843616A4A
:101BE000084368606868218C0002000A09060843FF
:101BF00068600DE0B8432860FFF760FC064604E02B
:101C0000FFF75CFC801B022897D828688005F7D472
:101C10002078894E000724D560690028306910D0EB
:101C2000012108433061FFF749FC009005E0FFF710
:101C300045FC0099401A022896D830698007F6D5ED
:101C40000FE0400840003061FFF738FC009005E0ED
:101C5000FFF734FC0099401A022885D830698007C4
:101C6000F6D42078800633D5A069744A002819D0AC
:101C7000A96801200143A960696B01436963106A87
:101C80006F4908431062FFF719FC009006E0E9E095
:101C9000FFF714FC0099401A02286ED8A868800744
:101CA000F6D515E0A86840084000A860106A6449AD
:101CB000C94308401062FFF701FC009005E0FFF700
:101CC000FDFB0099401A022857D8A8688007F6D46F
:101CD000207840076FD5002002900190A86BC000CB
:101CE00006D4A86B012109070843A86301200290CC
:101CF00054480068C00513D4524801683943016054
:101D000001200190FFF7DAFB009005E0FFF7D6FB1A
:101D10000099401A642830D84A480068C005F5D5B3
:101D2000A068B84202D1306938430CE00121890231
:101D3000002803D00522120290420CD03069B8432B
:101D40003061306988433061A068002816D0FFF701
:101D5000B5FB00900DE03069B8433061306908434D
:101D60003061E0E7FFF7AAFB0099411A364881424B
:101D700071D830698005F5D50EE06CE0FFF79EFB69
:101D8000009006E0FFF79AFB0099411A2E48814225
:101D900061D830698005F5D40198002803D029481E
:101DA0000168B94301600298002804D0A96B0120A2
:101DB00000078143A963A06A002851D0E968090798
:101DC000890F03294ED0012636060228286805D03F
:101DD000B0432860FFF772FB04463EE0B043286042
:101DE000FFF76CFB074604E0FFF768FBC01B022807
:101DF00031D828688001F7D4616B206BEA6808430A
:101E0000E16AFD231B049A4311430843E8602868F4
:101E100030432860FFF752FB044604E0FFF74EFB17
:101E2000001B022817D828688001F7D518E00000A9
:101E3000001002400001000040100240000001407C
:101E4000012000000070004088130000FFF736FBFF
:101E5000001B022801D90320FEBD28688001F5D4AB
:101E60000020FEBD0120FEBD70B5040006D0254651
:101E70004035687C0026002802D005E0012070BDB6
:101E80002E74204600F032F8022068742068016841
:101E9000402291430160A168606822690843E168BB
:101EA00011430843616901220843A16952021140AC
:101EB0000843E1690843216A0843A16A084321688D
:101EC0000860A0690421000C0840616A0843216889
:101ED00048602168E06A08612068C1699200914306
:101EE000C161666501206874002070BDF0B50068AE
:101EF000434987B088427DD14248C16A01242143C9
:101F0000C162C16A21400591C16A02263143C162A2
:101F1000C16A31400591C16A2143C162C16A214051
:101F20000591C16A2143C162C16A21400591C16A1C
:101F30002143C162C16A21400591C16A2143C16246
:101F4000C16A21400591416B821411434163871599
:101F50000025052001940395694600070097049524
:101F60000294FFF7E3F90520002239460007FFF746
:101F70009EFA08200327009001966946039702966F
:101F800004952148FFF7D2F94020009005200295E2
:101F900069460397019604950007FFF7C7F980206B
:101FA0000090052002956946039701960495000765
:101FB000FFF7BCF9052001946946000703970096D6
:101FC00004950294FFF7B2F90520012202210007CF
:101FD000FFF76DFA0D4801A90094A1C105206946DB
:101FE00000070495FFF7A2F9002203210520FFF75F
:101FF00027FC00E002E00520FFF718FC07B0F0BD69
:102000000030014000100240000400500000111098
:10201000F8B5044600276846078026464036707C9F
:10202000012802D0707C22287ED100290CD0002A01
:102030000AD0002B08D0307C012875D001203074E4
:10204000707C012802D003E00120F8BD32207074BA
:102050006765A263A387E3872163A386E386A764FA
:10206000E7640125A06A6D03A84207D120680168D2
:10207000A943016020680168294301602068016864
:10208000490603D401684022114301600122FF2068
:10209000E168D20205309142616866D1002904D01E
:1020A00081420CD1E08E012809D1206B2168008883
:1020B000C860206B801C2063E08E401EE086E08EAE
:1020C000002811D1A06AA84246D1206801680122E7
:1020D0001203114301603FE02068C068A16B0880D3
:1020E000A06B801CA063B0E0002202212046069B6A
:1020F00004F094FB00287DD1206B21680088C86023
:10210000206B801C2063E08E401E0004000CE086E3
:1021100008D1A06AA84205D12068016801221203F3
:1021200011430160002200E0CCE001212046069B23
:1021300004F074FB00287FD12068C068A16B088080
:10214000A06B801CA063E08F401EE087E08E00281B
:10215000CAD1606800287BD1002201212046069B5D
:1021600004F05CFB002867D1B6E7002904D0814267
:102170000BD1E08E012808D1206B411C216321681E
:102180000078C860E08E401EE086E08E002815D101
:10219000A06AA84205D120680168012212031143F8
:1021A0000160002201212046069B04F037FB002835
:1021B00042D12068C068A16B087046E0002202216D
:1021C0002046069B04F02AFB002835D1206B411CD9
:1021D000216301782068C160E08E401E0004000C7D
:1021E000E0860AD1A06AA84207D1206801680122CE
:1021F000120300E020E0114301600022012120468B
:10220000069B04F00BFB002816D12068C168A06B68
:10221000421CA2630170E08F401EE087E08E002820
:10222000CCD16068002813D1002201212046069BF2
:1022300004F0F4FA002802D00320F8BD08E020687A
:10224000C168A06B421CA2630170E08F401EE08752
:10225000A06AA8420FD1002201212046069B04F06B
:10226000DDFA002802D0606D02210EE02068C0680F
:10227000694608800888012280212046069B04F0D8
:10228000CDFA002804D0606D202108436065D3E7B3
:1022900001207074A06AA84211D120688168C943E6
:1022A000C9060CD4616D0222114361650168A9431E
:1022B000016020680168294301603774C4E63774FF
:1022C0000020BAE70220B8E7094910B5401E88424D
:1022D00001D9012010BD074C60610321081F04F0E3
:1022E0000FFA0020A06107202061002010BD00002F
:1022F000FFFFFF0000E000E010B5421C007804285A
:1023000016D11078052814D03E2815D0FF280FD1FB
:10231000D0789178000208431649921C401817D0D3
:10232000132805D1507911790002084304F014FAFA
:1023300010BDFEF7D5FF10BD9178901C0129FAD190
:10234000C278837811021943801DFEF7BDFF10BDCE
:1023500009489179007813790128507905D0000255
:102360001843D21DFEF70AFC10BD000218430932C3
:10237000F8E70000FFF3FFFF0800002070B50A48EF
:1023800005F060F90848083005F05CF9074D0024B5
:102390008C2060434119044805F063F9641CE4B2E1
:1023A000052CF5D370BD00005000002080030020F4
:1023B00008B50020009025E0164805F05EF90028D9
:1023C00002D0FEF75BFF08BD6946124805F061F9CF
:1023D0000099802210480831FEF7B4FE0106090E6C
:1023E00006D000988822115400F044F8002804D048
:1023F0000848009905F029F904E0064800990830DA
:1024000005F02FF9FEF73AFFFEF77CFE0028D3D146
:1024100008BD0000500000202803002008B500205F
:102420000090FEF735FF10E069460D4805F031F9E0
:10243000FEF744FF00980830FFF75EFFFEF728FF25
:1024400007480099083805F00CF9054805F015F91A
:102450000028E9D0FFF7ACFFFEF730FF08BD000011
:102460005800002010B5024805F007F910BD000023
:10247000580000200146027A0831042A01D00120C8
:1024800070478030007A8978C01E814201D00220D6
:1024900070470020704738B504466B460122202162
:1024A00000F025FA00280CD16A46117880200143FB
:1024B00011706B4601222021204600F09BFB002872
:1024C00000D0012038BD38B50446002069460870A8
:1024D000204600F047F9012805D0694620780978A0
:1024E000884201D0012038BD002038BD38B50446EF
:1024F0006B460122202100F0FAF900280DD1684630
:1025000000786B464106490E684601700122202181
:10251000204600F06FFB002800D0012038BD38B500
:1025200014460D466B460122272100F0E0F90028F1
:1025300001D0012038BD684600788007C00F2870A0
:1025400068460078C007C00F2070002038BD10B565
:102550000B4601220F2100F0CAF9002800D001200B
:1025600010BD0000F3B583B007466B460222302150
:1025700000F0BDF9002824D1684600786B46450874
:10258000684640780222400802903621384600F022
:10259000AEF9002815D168460024045F6B4602227C
:1025A0003A21384600F0A3F900280AD168460026EF
:1025B000865F6B4602222821384600F098F90028F1
:1025C00002D0012005B0F0BD68460027C75F28464D
:1025D000FDF774FF0190301BFDF770FF064602986F
:1025E000401BFDF76BFF0546381BFDF767FF2946CB
:1025F000FDF737FE3146FDF771FE0199FDF7D8FD75
:102600000A49FDF72EFE0A49884202DD7D20C000FE
:1026100008E0FF21C905C84201D3002002E0FDF710
:1026200078FF80B2049908800020CBE700002041A9
:1026300000007A4438B50C46694600F01FF80128BE
:102640000CD06846007800280BD0012807D002285B
:102650000AD003280AD006482060012038BD7F2018
:10266000C0052060002038BD0248FAE70248F8E7BC
:10267000000080BF0000E0400000484138B50C4633
:102680006B460122202100F032F9002801D0012000
:1026900038BD694608788007800F087020700020D8
:1026A00038BD0000F3B585B007466B4602223221E3
:1026B00000F01DF900282BD101AB0122352138464D
:1026C00000F015F9002823D16A461179127888079D
:1026D000800D10430C2211406A4652788901114343
:1026E000C510C81003906B4604223C21384600F008
:1026F000FEF800280CD1684600240226045F865F9D
:102700006B4602222A21384600F0F1F8002802D058
:10271000012007B0F0BD68460027C75F2846FDF7D7
:10272000CDFE0290301BFDF7C9FE06460398401B04
:10273000FDF7C4FE0546381BFDF7C0FE2946FDF730
:1027400090FD3146FDF7CAFD0299FDF731FD0449C0
:10275000FDF787FDFDF7C4FE069908800020D8E745
:102760000000204110B5FFF7F2FE012800D0002044
:1027700010BD10B5FFF7A7FE10BD10B50446806868
:10278000006800684078002804D1204600F056F820
:10279000012805D0A1680020096809680870E07068
:1027A00010BD1CB50C4601AA6946FFF7B8FE01280A
:1027B00006D068460078002803D0012801D0012007
:1027C0001CBD207000201CBD38B50D460024694694
:1027D0000C80FFF7C7FE012808D068460088FDF787
:1027E00078FE0349FDF77AFD2860204638BD0000D9
:1027F0000000204110B5FFF71DFF10BD10B5FFF719
:10280000B1FF10BD10B504468068006800684078CC
:10281000002804D1204600F051F8012806D0A16814
:102820000120096809680870E070002010BD10B52B
:1028300000F06BF8012800D0002010BD10B5044650
:102840000079002810D0A06800680068C0780028CF
:1028500004D1204600F062F8012805D0A1680020CC
:10286000096809688870207110BD10B504460079A8
:10287000012806D0A06800680068C078002802D04F
:1028800006E0002010BD204600F04FF80128F9D0E6
:10289000A16801200968096888702071F1E710B506
:1028A00000F090F810BD10B500F0A0F810BD10B504
:1028B00000F0AEF9012800D0002010BD10B504468C
:1028C000FFF701FE012811D02046FFF70FFE012877
:1028D0000CD00121204600F02FF8012806D000215D
:1028E000204600F06FF8012800D0002010BD10B580
:1028F0001C46012A01D9802319431346224603F0BE
:10290000EFFF002800D0012010BD10B513460122B2
:10291000FFF7EDFF012800D0002010BD10B5FFF734
:10292000E5FD012800D0002010BD10B5FFF7B3FD74
:10293000012800D0002010BD38B50C4605460129FD
:1029400005D0002C03D00E490EA000F06BF96B46A9
:1029500001222021FFF7CBFF00280FD1694609781B
:10296000FB200140A0000843694608706B46012225
:102970002021284600F03EF9002800D0012038BD73
:10298000630200002E2E5C2E2E5C2E2E5C2E2E5C02
:102990002E2E5C2E2E5C447269766572735C4253F7
:1029A000505C436F6D706F6E656E74735C687473AA
:1029B0003232315C4854533232315F447269766549
:1029C000722E630010B50B0004F0A3F80504060690
:1029D00006060D00012100E0032100F01DF801288A
:1029E00000D0002010BD012010BD00007F2210B5D6
:1029F000D205914201DC012105E0064A914201DC49
:102A0000022100E0032100F007F8012800D0002097
:102A100010BD00000000E04038B50C00054609D0AC
:102A2000012C07D0022C05D0032C03D00D490EA099
:102A300000F0F8F86B4601222021FFF758FF00282C
:102A40000DD1694608786B468008800020430870E5
:102A500001222021284600F0CDF8002800D00120D6
:102A600038BD0000BA0200002E2E5C2E2E5C2E2EE9
:102A70005C2E2E5C2E2E5C2E2E5C44726976657266
:102A8000735C4253505C436F6D706F6E656E747310
:102A90005C6874733232315C4854533232315F4473
:102AA00072697665722E630010B5FFF70CFD10BDDC
:102AB00010B504468068006800680078002804D1DA
:102AC000204600F057F8012805D0A16800200968C9
:102AD00009684870E07010BD1CB50C466A4601A933
:102AE000FFF71DFD012806D068460078002803D0B6
:102AF000012801D001201CBD207000201CBD10B594
:102B0000FFF798FD10BD000038B50D46002469465A
:102B10000C80FFF7C7FD012808D06946085FFDF764
:102B2000CDFC0349FDF7DAFB2860204638BD0000E4
:102B30000000204110B5FFF715FE10BD10B504468A
:102B40008068006800680078002804D12046FFF7FC
:102B5000B5FE012806D0A1680120096809684870FF
:102B6000E070002010BD10B5FFF7CFFE012800D0A7
:102B7000002010BD10B504460079002810D0A068D0
:102B8000006800688078002804D12046FFF7C6FE60
:102B9000012805D0A168002009680968C870207163
:102BA00010BD10B504460079012806D0A068006861
:102BB00000688078002802D006E0002010BD204682
:102BC000FFF7B3FE0128F9D0A16801200968096860
:102BD000C8702071F1E710B5FFF7F4FE10BD10B515
:102BE000FFF704FF10BD10B500F012F8012800D067
:102BF000002010BD10B51C46012A01D980231943BD
:102C00001346224603F084FE002800D0012010BDA8
:102C100007B502AB0122FFF7EDFF012800D000202D
:102C20000EBD00000A46014601A003F04BFFFEE77F
:102C300057726F6E6720706172616D657465727333
:102C40002076616C75653A2066696C652025732075
:102C50006F6E206C696E652025640D0A000000000F
:102C6000FEB507460D480E461C4615460A2100686B
:102C7000FDF73EFA014601A803F010FFE4B2EBB203
:102C80003246394606480094FEF7A6FA002804D0DA
:102C900001A803F0F5FE0028F1D0FEBD4C78000835
:102CA00028030020FEE7000001B582B002A80090D2
:102CB00005480223C1890022408904F07FFA0028D8
:102CC00000D047200EBD00000C00002010B50348C6
:102CD000FEF7FAFB00F004F810BD00003C060020EF
:102CE00010B50E48FEF708FC00280DD10B480C4922
:102CF0004160332181600121C1600A49016000F017
:102D000013F80648FEF7FCFB0448FEF7F5FB012824
:102D100001D0012010BD002010BD00003C060020A5
:102D20002E11B1000054004010B5164C86B0E16A77
:102D300002200143E162E16A039001400591032111
:102D400009020020009102901221042001910490B8
:102D500069460D48FEF7EAFAA16B012040050143E0
:102D6000A163A16A0143A162A16A8143A162002219
:102D700011461720FEF764FD1720FEF757FD06B039
:102D800010BD00000010024000040050F8B50E46CF
:102D90000446FEF793FB009020688169C943C90689
:102DA00040D425462035697D122905D0697D5229F8
:102DB00002D0697D622907D14168890104D4416844
:102DC0000122920311434160012720688069C043BA
:102DD00080060FD5701CF8D0002E06D0FEF76EFBD3
:102DE00001460098081AB042EFD96F750020287587
:102DF0000320F8BD21681020C86121682020C86127
:102E000020688169C943C90700D0C761206841684B
:102E1000054A114041600420A0636F7500202875A9
:102E20000120F8BD0020F8BD00E800FEF8B504461A
:102E30000120164640031D46DAB20090069F00238B
:102E4000204600F057F83946204600F0C5F8002823
:102E500003D0A06B042819D016E02846F5B201284B
:102E600008D02168300A88623946204600F0B4F85C
:102E70000028EED1206885623B4600224021204692
:102E800000F04AF8002800D00320F8BD0120F8BD6A
:102E9000F8B504460120164640031D46DAB2C302C7
:102EA0000090069F204600F025F83946204600F0A5
:102EB00093F8002803D0A06B042819D016E0284608
:102EC000F5B2012808D02168300A886239462046C8
:102ED00000F082F80028EED1206885623B4600228F
:102EE0008021204600F018F8002800D00320F8BD0B
:102EF0000120F8BD70B50568049C68688905890DD6
:102F00001204044E114319433040214301436960C8
:102F100070BD0000009800FCF8B51C4615460F4631
:102F20000646FEF7CBFA29463546203500900029A3
:102F30000BD021E0601C08D0002C17D0FEF7BEFAA1
:102F400001460098081AA04210D8306881693846B6
:102F50008843C003EED115E0601C0DD0002C05D0D5
:102F6000FEF7ACFA0099401AA04205D90120687515
:102F7000002028750320F8BD3068816938468843F1
:102F8000C003E9D00020F8BD70B50D460446FEF739
:102F900095FA064619E029462046FFF7F7FE002875
:102FA00001D0012070BD002D04D0FEF787FA801BF0
:102FB000A8420AD9A06B20210843A0630120203435
:102FC000607500202075032070BD20688069C043B3
:102FD0008006E0D4002070BD70B50D460446FEF7B3
:102FE0006DFA06461BE029462046FFF7CFFE002873
:102FF00001D0012070BD681C11D0002D04D0FEF757
:103000005DFA801BA8420AD9A06B20210843A06367
:1030100001202034607500202075032070BD2068D9
:103020008069C0438007DED4002070BD38B50446F7
:10303000002069460870204600F016FA012805D0E5
:10304000694620780978884201D0012038BD0020E7
:1030500038BD70B51446054600F080F9012806D049
:103060002146284600F0D4F9012800D0002070BD88
:103070001CB50C46694600F0F9F8012803D06846F3
:103080004078207000201CBD1CB50C46694600F03D
:10309000EDF8012803D068460079207000201CBD9F
:1030A0001CB50C46694600F0E1F8012803D06846DB
:1030B0008078207000201CBD38B50C46694600F0B1
:1030C000C2F8012803D0684600782070002038BD7F
:1030D0001CB50C46694600F0C9F8012803D06846C3
:1030E0000078207000201CBD1CB50C46694600F01D
:1030F000BDF8012803D06846C078207000201CBDB0
:1031000010B500F0D6F8012800D0002010BD10B591
:10311000002905D0012907D0022909D0012010BDBE
:10312000002100F05BFA06E0002100F072FA02E0F4
:10313000002100F089FA0128F1D0002010BD10B55F
:10314000002905D0012907D0022909D0012010BD8E
:10315000012100F043FA06E0012100F05AFA02E0F2
:10316000012100F071FA0128F1D0002010BD10B546
:1031700060290DD006DC00290AD0202908D040297A
:1031800004D105E0802903D0E02901D0012010BD41
:1031900000F075FA0128FAD0002010BD10B500F03B
:1031A000A3FA012800D0002010BD10B5002903D0DB
:1031B000012901D0012010BD00F0B0FA0128FAD099
:1031C000002010BD10B5002903D0012901D0012035
:1031D00010BD00F06EFA0128FAD0002010BD10B525
:1031E000002903D0012901D0012010BD00F096FA7A
:1031F0000128FAD0002010BD38B50C466B460122DC
:10320000272100F06BF9002801D0012038BD684665
:103210000078C107C90F617002210840207068461C
:1032200000788106C90FC006A170C00FE0700020B1
:1032300038BD10B50B4601220F2100F04FF90028D0
:1032400000D0012010BD38B50C466B460122142178
:1032500000F044F9002801D0012038BD6946087803
:103260004009400108702070002038BD38B50C4678
:103270006B460122262100F031F9002801D00120FF
:1032800038BD684600780022C10921714106C90F86
:10329000E1708006800E01212070002803D062704A
:1032A000202804D000E06170A270002038BDA17019
:1032B000FBE710B50C460B460122142100F00EF975
:1032C000002801D0012010BD2078C006C00E20705B
:1032D000002010BD38B50C46694600F02DF80128D5
:1032E00012D068460078302816D006DC00280ED0B0
:1032F00010280AD0202804D10CE040280ED05028F5
:103300000ED008482060012038BD7F20C005206015
:10331000002038BD0448FAE70448F8E70448F6E717
:103320000448F4E7000080BF000020410000C841CD
:10333000000048420000964238B50C466B46012218
:10334000102100F0CBF8002801D0012038BD6846DC
:103350000078702108402070002038BD38B50C4638
:1033600000210091694600F00DF8012807D000986F
:10337000FDF7A4F80249FCF7B1FF2060002038BD3A
:103380000000C84238B50C46694600F00EF8002827
:1033900001D0012038BD009864214843C117090DB0
:1033A000081800132060002038BD38B50D460024F1
:1033B0006B460322282100F091F8002801D001205B
:1033C00038BD002069460A5CC3009A40401C144383
:1033D000C0B20328F7D3200202D5FF200006044321
:1033E00000202C6038BD38B50C466B4602222B21DC
:1033F00000F074F8002801D0012038BD68464078FC
:1034000001026846007808182080002038BD0000BE
:1034100038B50C4600216A461180694600F010F864
:10342000012809D069460020085EFDF747F80349E6
:10343000FCF754FF2060002038BD00000000204150
:1034400038B50C466946FFF7CEFF002801D00120B1
:1034500038BD69460020085E0A2148436421FCF714
:103460005DFE2080002038BD10B5FFF7E2FE012888
:1034700000D0002010BD000070B50C460546FFF7D7
:10348000D5FD012826D0144860600121284600F0AF
:1034900039FA01281ED00021284600F018FA012828
:1034A00018D00021284600F054F9012812D000213C
:1034B000284600F069F901280CD00221284600F0C6
:1034C00070F8012806D00021284600F04FF80128A6
:1034D00000D0002070BD00000000C841FFB581B0E1
:1034E0001E4615460F4600240CE03819C1B23219A9
:1034F0000123019803F0F4F9002802D0012005B05F
:10350000F0BD641CAC42F0DB0020F8E710B51346B8
:103510000122FFF7E3FF012800D0002010BD0000CA
:1035200000B5104887B0C16A01221143C162C06A68
:10353000694610400590102000900B480190022031
:1035400003900020029005200007FDF7EFFE002207
:1035500011460720FEF774F90720FEF767F90020EF
:1035600007B000BD001002400000111038B50C4635
:1035700005466B4601221121FFF7B0FF00280ED14E
:1035800069460A78EF2002402001104308706B461C
:1035900001221121284600F066FA002800D00120FF
:1035A00038BD38B50C4605466B4601221021FFF7A1
:1035B00095FF002801D0012038BD68460178FD2024
:1035C00001402143684601706B46012210212846C4
:1035D00000F049FA0028EFD0002038BD38B50C467D
:1035E00005466B4601221221FFF778FF00280ED115
:1035F00069460A78EF2002402001104308706B46AC
:1036000001221221284600F02EFA002800D00120C5
:1036100038BD38B50C4605466B4601221221FFF72E
:103620005DFF00280ED169460A78DF200240600164
:10363000104308706B4601221221284600F013FA4D
:10364000002800D0012038BD38B50C4605466B4631
:1036500001221221FFF742FF00280ED169460A78A5
:10366000F7200240E000104308706B46012212214F
:10367000284600F0F8F9002800D0012038BD38B500
:103680000C4605466B4601221421FFF727FF002850
:103690000DD1694608786B46C006C00E20430870FD
:1036A00001221421284600F0DEF9002800D0012074
:1036B00038BD38B50C4605466B4601221121FFF78F
:1036C0000DFF00280ED169460A78BF200240A001F4
:1036D000104308706B4601221121284600F0C3F9FF
:1036E000002800D0012038BD38B50C4605466B4691
:1036F00001221421FFF7F2FE00280DD16946087857
:103700006B464009400120430870012214212846DD
:1037100000F0A9F9002800D0012038BD38B50C46CA
:1037200005466B4601221121FFF7D8FE00280ED175
:1037300069460A78DF2002406001104308706B463A
:1037400001221121284600F08EF9002800D0012026
:1037500038BD38B50C4605466B4601221021FFF7EF
:10376000BDFE00280ED169460A78F7200240E0002D
:10377000104308706B4601221021284600F073F9AF
:10378000002800D0012038BD38B50C4605466B46F0
:1037900001221021FFF7A2FE00280ED16846017811
:1037A000FB2001402143684601706B460122102135
:1037B000284600F058F9002800D0012038BD00004C
:1037C0007F20C005814209DD0648814206DD0648AA
:1037D000814203DD0548814200DD0548506000203C
:1037E00070470000000020410000C841000048422E
:1037F0000000964270B505467F20C0051446814200
:1038000001DC10210FE00E48814201DC20210AE09A
:103810000C48814201DC302105E00B48814201DC8B
:10382000402100E05021284600F051F8012806D040
:10383000211D2846FFF74EFD012800D0002070BD55
:10384000000020410000C8410000484200B50B00C4
:1038500003F05FF90504070B0D0F11007F20C00571
:1038600000E006485060002000BD0548FAE7054822
:10387000F8E70548F6E7012000BD00000000204100
:103880000000C841000048420000964270B514464E
:1038900005460B0003F03DF9050406080A0C190063
:1038A000102106E0202104E0302102E0402100E068
:1038B000502100F00CF8012806D0211D2846FFF702
:1038C00009FD012800D0002070BD012070BD38B571
:1038D0000C4605466B4601221021FFF7FFFD00282C
:1038E0000ED1684601788F2001402143684601705F
:1038F0006B4601221021284600F0B5F8002800D0C0
:10390000012038BD38B50C4605466B4601221A2108
:10391000FFF7E4FD00280DD1694608786B464008A2
:1039200040002043087001221A21284600F09BF82D
:10393000002800D0012038BD10B5FFF777FB10BD7F
:1039400070B505468068006804682078002804D1B6
:10395000284600F038F8012802D000206070E87096
:1039600070BD38B50C466946FFF746FC012803D008
:10397000684600782070002038BD10B5FFF7AAFC1B
:1039800010BD10B5FFF744FD10BD10B5FFF76CFD7D
:1039900010BD70B50546806800680468207800286E
:1039A00005D121462846FFF767FD012803D00120F5
:1039B0006070E870002070BD10B5FFF7A7FD01280A
:1039C00000D0002010BD70B504468068006805680E
:1039D000207900280BD0A878002805D100212046A6
:1039E000FFF775FF012802D00020E870207170BD3C
:1039F00070B505468068006804682879012809D0F8
:103A0000224628466168FFF7F5FE012803D0012011
:103A1000E0702871002070BD10B5826803791268CB
:103A2000012B126805D0FFF711FF012800D00020FC
:103A300010BDFFF72BFFF8E710B582680379126815
:103A4000012B126805D0FFF7BBFE012800D0002033
:103A500010BDFFF7CFFEF8E710B500F01CF8012805
:103A600000D0002010BDFFB581B01E4615460F46A0
:103A700000240CE03819C1B232190123019802F078
:103A800047FF002802D0012005B0F0BD641CAC4205
:103A9000F0DB0020F8E707B502AB0122FFF7E3FFF8
:103AA000012800D000200EBD10B5012100F0E4F97E
:103AB000002800D0012010BD38B50446002069461A
:103AC0000870204600F0A0F8012805D0694620784B
:103AD0000978884201D0012038BD002038BD10B5DA
:103AE000002100F0C9F9002800D0012010BD38B530
:103AF0000C466B460122272100F0B9F8002801D0BE
:103B0000012038BD68460078C007C00F20706846A5
:103B100000788107C90F6170C106C90F8006A170C6
:103B2000C00FE070002038BD10B50B4601220F21F8
:103B300000F09DF8002800D0012010BD38B50C46DB
:103B4000694600F027F8012810D068460078202840
:103B500012D004DC00280CD0102804D107E0302853
:103B60000CD040280CD007482060012038BD7F20B1
:103B7000C0052060002038BD0348FAE70348F8E795
:103B80000348F6E7000080BF0000E0400000484125
:103B90000000C84138B50C466B460122202100F0D8
:103BA00066F8002801D0012038BD684600787021F1
:103BB00008402070002038BD38B50C466B46022204
:103BC0002B2100F054F8002801D0012038BD6846B0
:103BD000407801026846007808182080002038BD2F
:103BE00038B50C466946FFF7E7FF002801D00120F1
:103BF00038BD6A4600203021105EFCF78FFAFF3096
:103C0000AA302080002038BD10B5FFF78DFF0128B5
:103C100000D0002010BD10B50446FFF74DFF01286D
:103C200024D02046FFF75BFF01281FD0002120464B
:103C300000F0C4F8012819D00121204600F096F8C0
:103C4000012813D00421204600F06AF801280DD085
:103C50000121204600F036F9012807D00422012175
:103C6000204600F029F8012800D0002010BD10B532
:103C70001C46012A01D9802319431346224602F02B
:103C80002FFE002800D0012010BD10B513460122E0
:103C9000FFF7EDFF012800D0002010BD10B5FFF7A1
:103CA0001EFF012800D0002010BD10B5FFF7FCFE5C
:103CB000012800D0002010BDF8B514000D460646BE
:103CC00007D0042C05D0082C03D00C2C01D0A52142
:103CD00008E0002D09D0012D07D0022D05D0032DBD
:103CE00003D0A6210D4800F0C7F96B460122102130
:103CF000FFF7BDFF00280FD1684600786B46010929
:103D000009012943214368460170012210213046F0
:103D100000F09AF9002800D00120F8BD8078000852
:103D200038B50C00054606D0042C04D0FF217731AD
:103D30000D4800F0A1F96B4601222021FFF797FF03
:103D400000280ED168460178FB20014021436846D7
:103D500001706B4601222021284600F075F90028E9
:103D600000D0012038BD00008078000838B50C462E
:103D70000546012906D0002C04D0FF21A1310E48B0
:103D800000F07AF96B4601222021FFF770FF00282E
:103D90000FD169460978F7200140E00008436946E1
:103DA00008706B4601222021284600F04DF90028BA
:103DB00000D0012038BD00008078000810B50B004D
:103DC00002F0A7FE0504060808080F00102102E013
:103DD000302100E0402100F023F8012800D000202D
:103DE00010BD012010BD00007F2210B5D205914208
:103DF00001DC10210AE0084A914201DC202105E0A3
:103E0000064A914201DC302100E0402100F008F830
:103E1000012800D0002010BD0000E0400000484113
:103E200038B50C0005460CD0102C0AD0202C08D038
:103E3000302C06D0402C04D0FF2131310D4800F049
:103E40001BF96B4601222021FFF711FF00280ED13C
:103E5000684601788F2001402143684601706B4617
:103E600001222021284600F0EFF8002800D0012090
:103E700038BD00008078000838B50C00054606D033
:103E8000012C04D0FF215C310D4800F0F5F86B46A1
:103E900001222021FFF7EBFE00280FD169460878A8
:103EA0006B464106490EE00108436946087001224D
:103EB0002021284600F0C8F8002800D0012038BD95
:103EC0008078000838B50C00054606D0012C04D0D7
:103ED000FF21E3310C4800F0CFF86B46012220218E
:103EE000FFF7C5FE00280DD1694608786B464008EB
:103EF00040002043087001222021284600F0A4F849
:103F0000002800D0012038BD8078000810B5FFF7E8
:103F1000D3FD10BD10B504468068006800680078C5
:103F2000002804D1204600F04FF8012805D0A168F0
:103F30000020096809684870E07010BD38B50C466B
:103F40006946FFF7D4FD012803D068460078207049
:103F5000002038BD10B5FFF7F1FD10BD38B50D4696
:103F6000002469460C80FFF73BFE012808D0694613
:103F7000085FFCF7A3FA0349FCF7B0F92860204674
:103F800038BD00000000204110B5FFF73DFE10BD18
:103F900010B504468068006800680078002804D1E5
:103FA0002046FFF738FE012806D0A16801200968E5
:103FB00009684870E070002010BD10B5FFF765FE7D
:103FC000012800D0002010BD10B50446007900285B
:103FD00010D0A068006800688078002804D12046CE
:103FE000FFF75CFE012805D0A16800200968096878
:103FF000C870207110BD10B504460079012806D0A4
:10400000A068006800688078002802D006E00020E0
:1040100010BD2046FFF749FE0128F9D0A168012014
:1040200009680968C8702071F1E710B5FFF7C6FE8E
:1040300010BD10B5FFF7D8FE10BD10B500F012F896
:10404000012800D0002010BD10B51C46012A01D95E
:10405000802319431346224602F05AFC002800D060
:10406000012010BD07B502AB0122FFF7EDFF0128CB
:1040700000D000200EBD00000A46014601A002F05B
:1040800021FDFEE757726F6E6720706172616D658A
:104090007465727320746D703A2066696C652025B2
:1040A00073206F6E206C696E652025640D0A000018
:1040B000F3B50227002481B026460025029801238B
:1040C000021920462830C1B2019800F072F8002889
:1040D0000AD0641C6D1CEDB2E4B2BD42EED3761C76
:1040E000F6B2032EE9D30120FEBD10B50C460A46F8
:1040F00001231F2100F05DF8002804D0207808215A
:1041000008402070012010BD10B50C460A4601235E
:104110001F2100F04EF8002804D02078102108401C
:104120002070012010BD10B50C460A4601231F2146
:1041300000F03FF8002804D02078202108402070AB
:10414000012010BD10B50C460A460123202100F0C5
:1041500030F8002804D02078400940012070012068
:1041600010BD10B50C460A460123272100F021F8A6
:10417000002804D02078C007C00F2070012010BD97
:1041800010B50C460A460123202100F012F8002841
:1041900004D02078182108402070012010BD10B5EF
:1041A0000A4601230F2100F004F8002800D0012066
:1041B00010BD10B502F094FB002801D0002010BD06
:1041C000012010BD38B50C46054601236A461F2163
:1041D000FFF7EFFF00280FD068460178F720014075
:1041E00021436846017001236A461F21284600F0DA
:1041F000A5F8002800D0012038BD38B50C4605468A
:1042000001236A461F21FFF7D4FF00280FD068461C
:104210000178EF20014021436846017001236A467E
:104220001F21284600F08AF8002800D0012038BD60
:1042300038B50C46054601236A461F21FFF7B9FF32
:1042400000280FD068460178DF20014021436846EE
:10425000017001236A461F21284600F06FF80028EC
:1042600000D0012038BD38B50C46054601236A460A
:104270002021FFF79EFF00280ED069460878012311
:10428000C006C00E204308706A462021284600F070
:1042900055F8002800D0012038BD38B50C46054639
:1042A00001236A462021FFF784FF00280FD06846CB
:1042B0000178E720014021436846017001236A46E6
:1042C0002021284600F03AF8002800D0012038BD0F
:1042D00038B50C46054601236A462221FFF769FFDF
:1042E00000280FD068460178FB2001402143684632
:1042F000017001236A462221284600F01FF8002899
:1043000000D0012038BD38B50C46054601236A4669
:104310002221FFF74EFF00280FD068460178BF200A
:10432000014021436846017001236A462221284644
:1043300000F004F8002800D0012038BD10B502F0CC
:10434000E7FA002801D0002010BD012010BD38B5CB
:104350000446002069460870204600F00BF801284A
:1043600005D0694620780978884201D0012038BDFF
:10437000002038BD10B5FFF712FF002801D0002043
:1043800010BD012010BD10B50123FFF712FF00285A
:1043900001D0002010BD012010BD0020704707B5DE
:1043A000012302AAFFF7CAFF002801D000200EBD9A
:1043B00001200EBD10B5FFF7CAFF10BD70B5044651
:1043C000806805682046FFF7C2FF012807D0204615
:1043D00000F085F9012802D000202860E07070BD4F
:1043E0003EB5054600200C46009001A9284600F085
:1043F0003EF8012828D06946284600F005F9012832
:1044000022D069460420085EFCF758F80099FBF7B3
:1044100028FFFCF765F8206069460620085EFCF777
:104420004DF800990D46FBF71CFFFCF759F860604A
:1044300069460820085EFCF741F82946FBF711FFA2
:10444000FCF74EF8A06000203EBD1CB50C46694646
:1044500000F00DF8012809D06846008820806846E1
:104460004088608068468088A08000201CBD1CB504
:104470000C460021009101916946FFF719FE0028C2
:1044800016D06846407801026846007808182080F7
:104490006846C078010268468078081860806846DF
:1044A00040790102684600790818A08000201CBDF0
:1044B00001201CBD3EB50C4605466946FFF715FEBA
:1044C00000281FD001A92846FFF71EFE002819D09A
:1044D00002A92846FFF727FE002813D06846007877
:1044E000082811D0002020706846007910280DD0CF
:1044F000002060706846007A202809D00020A07053
:1045000000203EBD01203EBD0120ECE70120F0E788
:104510000120F4E738B50C466946FFF722FE002873
:1045200005D068460078002803D0012801D001207A
:1045300038BD2070002038BD38B50C466946FFF7FD
:104540001FFE00280BD068460078002809D00828F4
:1045500012D0102808D018280BD00948206001205C
:1045600038BD0120800701E08120C00520600020C7
:1045700038BD41200006F9E78320C005F6E70000BA
:10458000000080BF38B50C468168096849680A7820
:10459000012A0AD06946FFF7D5FD002807D06846F2
:1045A0000078C106C90E04D01CE048680DE0012067
:1045B00038BD4011030002F0ACFA0705070B0D0FE0
:1045C00011131500002000E008482060002038BDCD
:1045D0000748FAE70748F8E70748F6E70748F4E727
:1045E0000748F2E707482060E1E7000000002041AB
:1045F000000048420000EE4200006E430000EE431F
:1046000000006E44000080BF38B50C466946FFF7D5
:10461000B7FD00280BD068460078002809D008288C
:104620000FD0102807D0182809D007482060012093
:1046300038BD064800E006482060002038BD054827
:10464000FAE70548F8E70000000080BF23DB793D6A
:1046500023DBF93D23DB793E5A643B3F10B5FFF77E
:1046600089FE10BD38B5044618A0006800902046A9
:10467000FFF76DFE012826D004212046FFF728FE13
:10468000002821D00421204600F01CF901281AD06E
:1046900040212046FFF737FE002815D00021204694
:1046A000FFF7E1FD00280FD00021204600F067F859
:1046B000012808D06946204600F039F8012802D0C8
:1046C0000120E070002038BD012038BD010101004B
:1046D00010B5FFF758FE012800D0002010BD10B51E
:1046E000044680680168207900280CD02046FFF736
:1046F00049FF012807D000212046FFF7B4FD00281C
:1047000002D00020207110BD012010BD10B504465C
:10471000806821790068012907D00168204600F0EF
:10472000A3F8012802D001202071002010BD70B52F
:10473000054608780C46012819D000212846FFF7C5
:1047400041FD002819D06078012812D000212846A8
:10475000FFF753FD002810D0A07801280BD00021CE
:104760002846FFF765FD002807D0002070BD08210E
:10477000E4E71021EBE72021F2E7012070BD10B53E
:10478000002907D0022902D0042909D101E0102113
:1047900000E01821FFF781FD002801D0002010BDA6
:1047A000012010BD012210B59207914201DC0021C9
:1047B0000CE08122D205914201DC102106E0412269
:1047C0001206914201DC182100E00821FFF765FD87
:1047D000002801D0002010BD012010BD10B50279C5
:1047E000012A05D000F06EF8012800D0002010BD8D
:1047F0000B0002F08EF90504040606080D002021C6
:1048000002E0402100E06021FFF72DFD0028EDD1FE
:10481000012010BD10B50279012A14D08068026809
:104820000B4881420CDD0B48814209DD0A48814278
:1048300006DD0A48814203DD0948814200DD09485E
:104840001060002010BD00F00FF80128F9D110BD54
:1048500000002041000048420000EE4200006E438C
:104860000000EE4300006E44114A10B5914201DC95
:10487000202114E00F4A914201DC40210FE00E4A52
:10488000914201DC60210AE00C4A914201DC802166
:1048900005E00B4A914201DCA02100E0C021FFF7B6
:1048A000E2FC002801D0002010BD012010BD000056
:1048B00000002041000048420000EE4200006E432C
:1048C0000000EE4310B58068094A0068094C0B00EF
:1048D00002F01FF90504040606080C00026003E05C
:1048E000046001E004490160002010BD012010BDFA
:1048F00000002041000048420000EE4210B5FFF7E2
:104900004EFD012800D0002010BDF3B50227002481
:1049100081B026460025029801230219204628303E
:10492000C1B2019800F0D2F900280AD0641C6D1CB5
:10493000EDB2E4B2BD42EED3761CF6B2032EE9D35B
:104940000120FEBDF3B50227002481B026460025D4
:1049500002980123021920463E30C1B2019800F0AE
:10496000B5F900280AD0641C6D1CEDB2E4B2BD425A
:10497000EED3761C3606360EE9D00120FEBDF3B527
:104980000227002481B0264600250298012302193F
:1049900020464B30C1B2019800F098F900280AD0A7
:1049A000641C6D1CEDB2E4B2BD42EED3761C36063B
:1049B000360EE9D00120FEBD10B50C460A46012393
:1049C0001D2100F083F9002804D020784021084000
:1049D0002070012010BD10B50C460A4601231C2191
:1049E00000F074F9002804D02078102108402070CD
:1049F000012010BD10B50C460A4601231D2100F010
:104A000065F9002804D02078022108402070012098
:104A100010BD10B50C460A4601231D2100F056F9C1
:104A2000002804D02078C007C00F2070012010BDDE
:104A300010B50C460A4601231D2100F047F9002855
:104A400004D02078082108402070012010BD10B546
:104A50000C460A4601231D2100F038F9002804D035
:104A60002078042108402070012010BD10B50C46AC
:104A70000A4601231D2100F029F9002804D02078DE
:104A8000202108402070012010BD10B50C460A46B8
:104A900001231D2100F01AF9002804D020781021EC
:104AA00008402070012010BD10B50C460A460123B5
:104AB0001B2100F00BF9002804D0207820210840A9
:104AC0002070012010BD10B50C460A4601233B2181
:104AD00000F0FCF8002804D0207810210840207055
:104AE000012010BD10B50C460A4601233B2100F001
:104AF000EDF8002804D02078202108402070012003
:104B000010BD7CB50C460546012301AA3A2100F0F0
:104B1000DDF800280FD001236A463B21284600F02B
:104B2000D5F8002807D06946087809790007000DF4
:104B30000843208001207CBD7CB50C46054601233E
:104B400001AA3C2100F0C2F800280FD001236A46D8
:104B50003D21284600F0BAF8002807D069460878B9
:104B600009798007800D0843208001207CBD10B5A5
:104B70000C460A460123102100F0A8F8002804D0B2
:104B800020780C2108402070012010BD10B50C4683
:104B90000A460123102100F099F8002804D020785B
:104BA000000900012070012010BD10B50C460A4616
:104BB00001233B2100F08AF8002804D0207840210E
:104BC00008402070012010BD10B50C460A46012394
:104BD000532100F07BF8002804D0207810210840F1
:104BE0002070012010BD10B50C460A4601231C217F
:104BF00000F06CF8002804D02078202108402070B4
:104C0000012010BD10B50C460A460123532100F0C7
:104C10005DF8002804D02078202108402070012071
:104C200010BD10B50A4601230F2100F04FF80028EF
:104C300000D0012010BD10B50C460A4601231B21EF
:104C400000F044F8002804D02078082108402070A3
:104C5000012010BD10B50C460A460123182100F0B2
:104C600035F8002804D02078082108402070012061
:104C700010BD10B50C460A4601231E2100F026F88F
:104C8000002804D02078C007C00F2070012010BD7C
:104C900010B50C460A460123182100F017F8002829
:104CA00004D02078102108402070012010BD10B5DC
:104CB0000C460A460123182100F008F8002804D009
:104CC0002078202108402070012010BD10B501F08F
:104CD00007FE002801D0002010BD012010BD38B50E
:104CE0000C46054601236A465E21FFF7EFFF0028C8
:104CF0000FD068460178FB200140214368460170CF
:104D000001236A465E21284600F0B0FC002800D04E
:104D1000012038BD38B50C46054601236A461221EC
:104D2000FFF7D4FF00280FD068460178BF2001406C
:104D300021436846017001236A461221284600F08B
:104D400095FC002800D0012038BD38B50C4605463A
:104D500001236A460821FFF7B9FF00280ED06946F3
:104D600008780123C008C000204308706A46082163
:104D7000284600F07BFC002800D0012038BD38B563
:104D800005460807000E0409240101236A465A213A
:104D90002846FFF79BFF00280FD0684600780123C4
:104DA0000107090F2143684601706A465A212846C7
:104DB00000F05CFC002800D0012038BD38B50C465E
:104DC000012305466A461946FFF780FF00280ED0EA
:104DD0006946087801234006400E204308706A4661
:104DE0001946284600F042FC002800D0012038BDBA
:104DF00038B50C46054601236A465E21FFF766FF7B
:104E000000280FD068460178EF2001402143684612
:104E1000017001236A465E21284600F027FC002825
:104E200000D0012038BDF8B50546C8068906CC0F6C
:104E3000010ECE08F60001236A465D212846FFF7E1
:104E400045FF002827D06946087801234007400F16
:104E5000304308706A465D21284600F007FC0028B0
:104E600019D0E001C409E40101236A465C21284607
:104E7000FFF72CFF00280ED0694608780123400672
:104E8000400E204308706A465C21284600F0EEFB85
:104E9000002800D00120F8BD38B50C460546012396
:104EA0006A465D21FFF712FF00280ED06946087898
:104EB0000123C008C000204308706A465D212846CF
:104EC00000F0D4FB002800D0012038BD38B50C46D6
:104ED000054601236A460A21FFF7F8FE00280ED096
:104EE000694608780123C008C000204308706A465C
:104EF0000A21284600F0BAFB002800D0012038BD66
:104F0000F8B5CCB20D0A064601236A460621FFF722
:104F1000DDFE002822D069460C7001236A46062176
:104F2000304600F0A3FB002818D02C07240F0123E3
:104F30006A4607213046FFF7C9FE00280ED06946B1
:104F40000878012300090001204308706A46072100
:104F5000304600F08BFB002800D00120F8BD38B5AA
:104F60000C46054601236A460D21FFF7AFFE0028D7
:104F70000FD068460178DF20014021436846017068
:104F800001236A460D21284600F070FB002800D05E
:104F9000012038BD38B50C46054601236A4610216C
:104FA000FFF794FE00280FD068460178F3200140F7
:104FB00021436846017001236A461021284600F00B
:104FC00055FB002800D0012038BD38B50C460546F9
:104FD00001236A461921FFF779FE00280FD06846A1
:104FE0000178FB20014021436846017001236A4695
:104FF0001921284600F03AFB002800D0012038BDD6
:1050000038B50C46054601236A461221FFF75EFEBD
:1050100000280FD068460178FB20014021436846F4
:10502000017001236A461221284600F01FFB002868
:1050300000D0012038BD38B50C46054601236A462C
:105040005821FFF743FE00280ED069460878012357
:1050500040084000204308706A465821284600F066
:1050600005FB002800D0012038BD38B50C460546A8
:1050700001236A460A21FFF729FE00280FD068465F
:1050800001788720014021436846017001236A4668
:105090000A21284600F0EAFA002800D0012038BD95
:1050A00038B50C46054601236A461021FFF70EFE6F
:1050B00000280ED06946087801230007000F20431E
:1050C00008706A461021284600F0D0FA002800D067
:1050D000012038BD38B50C46054601236A465821E3
:1050E000FFF7F4FD00280FD068460178BF2001408B
:1050F00021436846017001236A465821284600F082
:10510000B5FA002800D0012038BD38B50C46054658
:1051100001236A460D21FFF7D9FD00280ED069460C
:10512000087801234006400E204308706A460D218E
:10513000284600F09BFA002800D0012038BD38B581
:105140000C46054601236A461921FFF7BFFD0028DA
:105150000FD068460178FD20014021436846017068
:1051600001236A461921284600F080FA002800D061
:10517000012038BD38B50C4605468021FFF71EFEDC
:1051800001236A460F212846FFF7A0FD69460878EB
:1051900001234109E0064901C00E08436946087031
:1051A0006A460F21284600F061FA00212846FFF7E1
:1051B00005FE012038BD38B505468806040E0C20D2
:1051C000044001236A465A212846FFF77FFD002844
:1051D0000FD068460178F3200140214368460170F2
:1051E00001236A465A21284600F040FA002800D0E0
:1051F000012038BD38B58C070546A40F01236A4647
:105200005A21FFF763FD00280FD06846007801237C
:10521000810889002143684601706A465A21284660
:1052200000F024FA002800D0012038BD38B50C4623
:10523000054601236A465B21FFF748FD00280ED092
:105240006946087801234006400E204308706A46EC
:105250005B21284600F00AFA002800D0012038BD62
:1052600038B50C46054601236A465921FFF72EFD45
:1052700000280FD0684601789F20014021436846EE
:10528000017001236A465921284600F0EFF90028F1
:1052900000D0012038BD38B50C070546240F012386
:1052A0006A465C21FFF712FD00280FD0684600789F
:1052B0000123010909012143684601706A465C2106
:1052C000284600F0D3F9002800D0012038BD38B5B9
:1052D0000C46054601236A461321FFF7F7FC002818
:1052E0000ED069460878012340084000204308702A
:1052F0006A461321284600F0B9F9002800D00120A1
:1053000038BD38B50C46054601236A461421FFF71F
:10531000DDFC00280ED06946087801238008800053
:10532000204308706A461421284600F09FF900289F
:1053300000D0012038BD38B50C46054601236A4629
:105340005E21FFF7C3FC00280FD068460178BF201C
:10535000014021436846017001236A465E212846C8
:1053600000F084F9002800D0012038BD38B5CC0603
:105370000546E40E01236A465921FFF7A7FC0028E1
:105380000FD068460078012341094901214368464E
:1053900001706A465921284600F068F9002800D0BB
:1053A000012038BD38B50C46054601236A46582110
:1053B000FFF78CFC00280FD068460178F7200140E9
:1053C00021436846017001236A465821284600F0AF
:1053D0004DF9002800D0012038BD38B50C460546EF
:1053E00001236A465821FFF771FC00280FD0684658
:1053F0000178FB20014021436846017001236A4681
:105400005821284600F032F9002800D0012038BD8C
:1054100038B50C46054601236A465821FFF756FC6D
:1054200000280FD068460178FD20014021436846DE
:10543000017001236A465821284600F017F9002818
:1054400000D0012038BD38B50C46054601236A4618
:105450005821FFF73BFC00280FD068460178DF2079
:10546000014021436846017001236A4658212846BD
:1054700000F0FCF8002800D0012038BD38B50C46FB
:10548000054601236A465C21FFF720FC00280FD067
:1054900068460178EF2001402143684601700123EE
:1054A0006A465C21284600F0E1F8002800D001207F
:1054B00038BD38B50C46054601236A465E21FFF724
:1054C00005FC00280FD068460178F72001402143F1
:1054D0006846017001236A465E21284600F0C6F83E
:1054E000002800D0012038BD38B50C460546012300
:1054F0006A465E21FFF7EAFB00280FD06846017874
:10550000FD20014021436846017001236A465E2167
:10551000284600F0ABF8002800D0012038BD38B58F
:1055200005464807040E6020044001236A465C21BA
:105530002846FFF7CBFB00280FD0684601789F2054
:10554000014021436846017001236A465C212846D8
:1055500000F08CF8002800D0012038BD38B58C064A
:105560000546A40E01236A465B21FFF7AFFB002826
:105570000FD06846007801238109890121436846DC
:1055800001706A465B21284600F070F8002800D0C0
:10559000012038BD38B50C46054601236A465E2118
:1055A000FFF794FB00280FD068460178DF20014008
:1055B00021436846017001236A465E21284600F0B7
:1055C00055F8002800D0012038BD38B50C460546F6
:1055D00001236A461821FFF779FB00280FD068469F
:1055E0000178F720014021436846017001236A4693
:1055F0001821284600F03AF8002800D0012038BDD4
:1056000038B50C46054601236A461821FFF75EFBB4
:1056100000280FD068460178EF20014021436846FA
:10562000017001236A461821284600F01FF800285F
:1056300000D0012038BD38B50C46054601236A4626
:105640001821FFF743FB00280FD068460178DF20C0
:10565000014021436846017001236A46182128460B
:1056600000F004F8002800D0012038BD10B501F08A
:105670004FF9002801D0002010BD012010BD38B521
:105680000446002069460870204600F007F901280A
:1056900005D0694620780978884201D0012038BDBC
:1056A000002038BD10B5FFF74DF9002801D00020CB
:1056B00010BD012010BD38B50C466946FFF703FA4E
:1056C000002805D068460078002804D0102801D0B2
:1056D000012038BD01202070002038BD38B50C46AF
:1056E0006946FFF7FFF9002805D0684600780028D2
:1056F00004D0202801D0012038BD012020700020D6
:1057000038BD10B5FFF7FDF9002801D0002010BD0D
:10571000012010BD38B50C466946FFF746FA00284F
:1057200005D068460078002804D0402801D0012028
:1057300038BD01202070002038BD10B5FFF7FCF9FE
:10574000002801D0002010BD012010BD10B5002997
:1057500001D0202905D1FFF702FC002801D000204C
:1057600010BD012010BD10B50B0001F0D2F90705E6
:10577000050B05050B050B00FFF7A8FB002801D062
:10578000002010BD012010BD1B4A10B5914201DC64
:10579000082128E0194A914201DC102123E0184A2F
:1057A000914201DC18211EE0164A914201DC2021C1
:1057B00019E0154A914201DC282114E0134A914274
:1057C00001DC30210FE0124A914201DC38210AE06D
:1057D000104A914201DC402105E00F4A914201DC70
:1057E000482100E05021FFF740FC002801D00020B4
:1057F00010BD012010BD0000000020410000C84184
:10580000000048420000C842000048430000C8436E
:10581000000048440000C84400404E4510B500292F
:1058200001D0012905D1FFF752FD002801D0002049
:1058300010BD012010BD10B5FFF762FB002801D09C
:10584000002010BD012010BD7CB5064600200C468E
:10585000009001A93046FFF725FF012812D06846C5
:105860000425455F6946304600F0E2FC012809D076
:105870002846FAF723FE0099FAF7F3FCFAF730FE10
:10588000206000207CBD10B5072905D8FFF75DFA20
:10589000002801D0002010BD012010BD10B5FFF779
:1058A000C0F9002801D0002010BD012010BD10B5A6
:1058B0000123FFF70BFA002801D0002010BD0120C2
:1058C00010BD0000F0B51B4C8BB0E06A012108430D
:1058D000E062E06A022508400A901020164E002778
:1058E0006A460395C1C2052069460007FBF71EFD05
:1058F000002211460720FBF7A3FF0720FBF796FFC6
:10590000E06A2843E062E06A05A928400A90012085
:105910000895C1C109480C39FBF708FD0022114662
:105920000520FBF78DFF0520FBF780FF00200BB063
:10593000F0BD0000001002400000111000040050F3
:1059400010B5002901D0012905D1FFF774FB00280B
:1059500001D0002010BD012010BD07B5012302AA0F
:10596000FFF784FE002801D000200EBD01200EBDEF
:1059700010B5FFF784FE10BD70B504468068056859
:105980002046FFF77CFE01282AD0204600F075F85B
:10599000012825D0204600F024F8012820D02046F8
:1059A00000F082F801281BD0204600F09AF8012868
:1059B00016D0204600F026F8012811D0204600F02D
:1059C000C9F801280CD0204600F0DBF8012807D0E8
:1059D000204600F0E0FC012802D000202860E070A2
:1059E00070BD10B504460021FFF779F9002807D0F3
:1059F00000212046FFF734FC002801D0002010BD14
:105A0000012010BD10B504460021FFF752FD00280B
:105A100031D00021204600F046FE01282AD0002186
:105A2000204600F037FE012824D00021204600F057
:105A300028FE01281ED00021204600F019FE012872
:105A400018D000212046FFF7F1FB002813D00021D9
:105A50002046FFF7DDFC00280DD000212046FFF78F
:105A6000BCFC002807D000212046FFF79BFC002843
:105A700001D0002010BD012010BD10B5044600214A
:105A8000FFF7B6F900280DD000212046FFF7CBF92B
:105A9000002807D000212046FFF7FEF9002801D09A
:105AA000002010BD012010BD10B504460021FFF7F5
:105AB0002CFB002813D000212046FFF70BFB002809
:105AC0000DD000212046FFF780FA002807D00021E2
:105AD000204600F0B3FD012800D0002010BD0120B9
