:020000040800F2
:10000000F8090020D500000829520008D93300085B
:1000100000000000000000000000000000000000E0
:10002000000000000000000000000000295400084B
:100030000000000000000000CD52000889540008B4
:10004000E7000008E7000008E7000008E7000008F4
:10005000E700000887100008E7000008911000087A
:10006000E7000008E7000008E7000008E7000008D4
:10007000E7000008E700000800000000E7000008B3
:1000800000000000E7000008000000000000000081
:10009000E700000800000000E7000008E700000893
:1000A000E7000008E7000008E7000008E700000894
:1000B000E7000008E7000008E7000008E700000884
:1000C0000348854600F05AFB004800477D6400085D
:1000D000F80900200448804704480047FEE7FEE78F
:1000E000FEE7FEE7FEE7FEE719550008C10000083D
:1000F00030B50B46014600202022012409E00D46C0
:10010000D5409D4205D31D469540491B2546954047
:1001100040191546521E002DF1DC30BD70B500248B
:100120002546002801DA01244042002901DA012590
:100130004942FFF7DDFFAC4200D04042002C00D026
:10014000494270BD10B503461C460C43A40703D0BA
:1001500009E010C9121F10C3042AFAD203E00C7878
:100160001C70491C5B1C521EF9D210BDD2B201E0BA
:100170000270401C491EFBD270470022F6E710B502
:1001800013460A4604461946FFF7F0FF204610BD05
:10019000421C0178401C0029FBD1801A704703469D
:1001A00003220870000A491C521EFAD518467047EF
:1001B000F8B502464A40D40F42004B0052085B0893
:1001C0009A4202D20246084611464A0023D0C30D85
:1001D0004A00DDB2120EAD1A202D35DA4902012691
:1001E000490AF6058A19002C00D0524220214F1BE3
:1001F0001146B9402A411018C20D9A4221D0002C54
:1002000017D0012D08DCDA05801AD20F8019D20729
:10021000DBB200F01BFAF8BDDA05801A01234000BA
:100220001B06C01880185A428018CA0F1043490094
:1002300007E04908C2071143DA05801A801940080F
:10024000801800F0FBF9F8BD61000122511A001B73
:10025000F7E70122D2075140AAE70122D207504016
:10026000A6E7024670B54A40D30FDB0740002DD009
:100270004A002AD0010E140E000212020919400A87
:10028000520A8418E50104465443000A120A2E0457
:100290005043A4194219200CC543AA18120C012579
:1002A000AD03521C521912047F39240400D0521C91
:1002B000104301D44000491EC2B20C06C0092018E8
:1002C000401C4008802A02D003E0002070BD400896
:1002D0004000002900DA0020184370BD70B50246C6
:1002E0004A40D50F40004A00ED0740085208002858
:1002F00014D0002A12D0C40DD30D41020120C00534
:100300005202490A520AE41A091812187D3491421D
:1003100001D3641C00E04900002C01DA002070BD0C
:100320000023914201D3891A034340084900002861
:10033000F7D100290AD0914202D10121C90705E075
:10034000914201D2012101E00121C943E005C01819
:10035000401900F073F970BDF0B5074608465840E3
:1003600087B0C00F049048000E4659004008490865
:10037000BC1A884105D2384631461E4617460B4600
:1003800002465800400810434CD0300D0390400501
:100390005900400D490D0590401A0290402872DA2C
:1003A00018030121000B09050843019004980092ED
:1003B000002805D001995242002088410092019006
:1003C000029840210A1A0199009800F003F90546A5
:1003D0000C466B4607CB00F01EF9C0197141039A19
:1003E0000E0D0023D71756401A467A40164344D0C4
:1003F000049A002A2DD0029A012A039A15DC1205CC
:10040000C01A914101263605001C7141D20F059E8C
:10041000D2070093019202962A46234600F05CF927
:1004200007B0F0BD38463146FAE71605224A0F46B6
:10043000B218C01AB74101210905001C4F4100182C
:100440007F41114618187941E20F10436D1964413C
:1004500013E0E2076D0815436408C2071443039ACA
:1004600001261205C01A91413605001C7141CE07C4
:10047000400830434908C01851412A46234600F03D
:100480001EF9CDE7FFE7049801224000C117121AB8
:1004900000238B4104983146C417381AA141EEE776
:1004A00030B40124E407634030BC55E730B4012484
:1004B000E407614030BC4FE70000E0FFC217C10F06
:1004C000504010B54018CA079623002100F0BEF82E
:1004D00010BD10B500229623114600F0B7F810BDEC
:1004E000C20F410040020123400ADB05D207090E7A
:1004F000C0187F2901DA00207047962903DC962373
:10050000591AC84001E096398840002AF4D0404288
:100510007047410040020122400AD205090E8018AE
:100520007F2901DA00207047962903DC9622511AB0
:10053000C8407047963988407047000070B5CD0FAD
:100540004A0009030123090B1B0519430B4BED0757
:100550000024520D9A4201DA002070BD074B34335B
:100560009A4203DC9A1A00F045F802E00449511857
:1005700088402C43F1D0404270BD0000FF030000D2
:10058000CDFBFFFFC20FD207400040080BD0C10DCA
:100590000723DB01C91840020905400A1143C208BC
:1005A0004007114370470020014670470122D207DF
:1005B000002800DB101A002900DB511A8142704725
:1005C0000122D207002800DB101A002900DB511A93
:1005D0008842704710B5202A04DB0146203A91403A
:1005E000002010BD914020239C1A0346E34019438C
:1005F000904010BD10B5202A04DB0846203AD040B8
:10060000002110BD0B46D340D0402024A21A9140B7
:100610000843194610BD10B5202A06DBCB17084643
:10062000203A1041C1170B4306E00B461341D0405E
:100630002024A21A91400843194610BD002904DA6B
:10064000401C490001D140084000704770B40024AC
:10065000050C05D11024000402D1002921D0112459
:10066000050E01D100020834050F01D10001241D3F
:10067000850F01D18000A41C002801DB4000641C10
:10068000002908D020252E1B0D46F540A14000D0A2
:1006900001212943084301061B1B000ADB1D02D56B
:1006A000002070BC7047DB05181880180029F8DAA4
:1006B000401C4900F5D170BC40084000704710B59F
:1006C000002B08DA0024401C614192185B411A4358
:1006D00001D14008400010BDF0B51FB482B00546FE
:1006E0000C0003D0084604F0C7FF02E004F0C4FF8A
:1006F00020300246009021462846FFF76BFF049BFE
:10070000059A04460F4618431143084314D018466F
:1007100010431BD0009840210A1A18460599FFF78C
:1007200069FF05460E46009A05990498FFF752FFA7
:10073000084305D0012004E02046394607B0F0BD4B
:100740000020C11705430E432C43374300990E98F0
:100750006305401A7905E40A00220C43FD0A0A30B9
:1007600002D500200146E9E70105101969410C9CFA
:100770000D9D00196941FFF7A2FFDFE7064C012537
:10078000064E05E0E36807CC2B430C3C9847103439
:10079000B442F7D3FFF798FCE4660008046700084A
:1007A00070B58C180578401C6B075B0F01D103787E
:1007B000401C2A1106D10278401C03E006780E7016
:1007C000401C491C5B1EF9D12B0705D40023521E87
:1007D0000DD40B70491CFAE70378401CCB1A921C0D
:1007E00003E01D780D70491C5B1C521EF9D5A14217
:1007F000D8D3002070BD000010B592B000BF1B21FF
:1008000008A80176C5214176D5218176A521C1763A
:100810000221017700214177B42181779A21C177A4
:10082000E12110A80170112141703A218170CF217E
:10083000C170802101716E214171362181710421C5
:10084000C17100BF3A480A2301220EA9009002207C
:1008500005F065FA0446002C00D067E000BF1B21BC
:1008600008A80176C5214176D5218176A521C176DA
:100870000221017700214177B42181779A21C17744
:10088000E12110A80170112141703A218170CF211E
:10089000C170802101716E21417136218171052164
:1008A000C17100BF23480021102204230293039248
:1008B00004910590084602210B460EAA0091019072
:1008C0001B48008805F03EF90446002C00D02DE0BE
:1008D0000E2108A801730021C943417316496846D7
:1008E000C185002108A801744174817413490D91D8
:1008F0000AA8002110220591069207910890012074
:100900000BAA0723019300930292039104900DAB6D
:100910000246084801880648008805F07BF904462D
:10092000002C00D002E0002012B010BD4720FBE7F1
:1009300016000020180000202F27000004290000C6
:1009400010B58AB000BF1B2168460176C5214176EB
:10095000D5218176A521C176022101770021417739
:10096000B42181779A21C177E12108A80170112172
:1009700041703A218170CF21C170802101716E21B7
:100980004171362181710B21C17100BF25480723B8
:10099000012206A90090022005F0C1F90446002CAE
:1009A00000D03CE000BF1B2168460176C52141769E
:1009B000D5218176A521C1760221017700214177D9
:1009C000B42181779A21C177E12108A80170112112
:1009D00041703A218170CF21C170802101716E2157
:1009E0004171362181710C21C17100BF0E48012176
:1009F0001022029103920491059000200E210423FD
:100A000006AA0091019002210648008805F09AF894
:100A10000446002C00D002E000200AB010BD4720A0
:100A2000FBE70000240000202600002070B50646E9
:100A30000C4615460A480088401C86420FD1012CFE
:100A40000DD128780749087008460078002803D09F
:100A5000002000F0BBF802E0002000F0A7F870BD15
:100A6000260000202900002010B50D480D4908601F
:100A7000FF200530486000210A488160C1600161A3
:100A80004161012149028161002101624162072126
:100A9000C1620821C1610021816201F06BFB10BDC0
:100AA000003001403802002070B50446002520487F
:100AB000C078012800D170BD04F0B7FC012800D136
:100AC000F9E7BC201A490870BE20487000208870E1
:100AD000C870087101204871164888601648C860BF
:100AE0000020086115481649086008461149086049
:100AF000002048600E4820602068C56828680028EB
:100B000007D114212068FFF738FB00202060012066
:100B1000D1E7206829688847012807D11421206877
:100B2000FFF72BFB002020600120C4E70020C2E774
:100B300088050020D8050020A4000020D80000204F
:100B40006000002010B586B0044600BF00BF144806
:100B5000C06A012108431249C8620846C06AC0073A
:100B6000C00F009000BF00BF00BF60000D49085AD1
:100B70000190012002900020039003200490A10026
:100B8000094A505801A900F0D7FA6200054B995A5A
:100B9000A200054B9858002200F0CDFB06B010BD16
:100BA00000100240706600082C00002010B50446BA
:100BB0006200044B995AA200034B9858002200F09F
:100BC000BAFB10BD706600082C00002010B504466A
:100BD0006200044B995AA200034B9858012200F07E
:100BE000AAFB10BD706600082C00002070B50446FA
:100BF00000252648C078012800D170BD04F015FCFE
:100C0000012800D1F9E7B12120481C380177B8212B
:100C10001C304170032181700021C17001710121DC
:100C200041711B4819493C3948641A4917483C38F6
:100C300081641949C1641948194908600846144972
:100C400018398861002112481838C1610F482060A6
:100C50002068C5682868002807D114212068FFF79C
:100C60008CFA002020600120C7E7206829688847A7
:100C7000012807D114212068FFF77FFA00202060A7
:100C80000120BAE703F036FA0020B6E7C4050020D9
:100C9000F005002080010020F00100202C0200203F
:100CA0006C00002070B505460C46002614206843F1
:100CB0003B494018C078012800D170BD04F0B5FB55
:100CC000012800D1F9E7012D02D0022D4BD123E0FC
:100CD000BD2033490875BA2131484175012181751C
:100CE0000021C1750176012141762E482C49C86149
:100CF0002D492B480162002141622C482C49086093
:100D00000846284908398860002126480838C1600B
:100D100023481430206026E0BD2121482030017294
:100D2000B82108304170022181700021C170017129
:100D3000012141711B480830194908631A491848B4
:100D40004163002181631948001D1A490860084663
:100D500014490839086100211248083841611048D7
:100D60002830206000BF00BF2068C66830680028B7
:100D700007D114212068FFF700FA0020206001202D
:100D80009BE7206831688847012807D11421206833
:100D9000FFF7F3F90020206001208EE700208CE7A8
:100DA00088050020E00500201001002044010020FB
:100DB0006400002068000020F8B504460E46254671
:100DC0000027002D01D10120F8BDEF68002E01D1D0
:100DD0000120F9E7B869002801D10120F4E7314684
:100DE0002846BA699047012800D1EDE70020EBE7DB
:100DF00070B505460C4600202060681C030004F016
:100E000052FC05051C232B33040000BF2046FFF7CE
:100E1000EDFE012810D121460220FFF743FF0128F3
:100E20000AD12046FFF740FE012805D12146FFF7F1
:100E300039FF012800D170BD1DE02046FFF734FEC8
:100E4000012800D1F7E716E021460120FFF72AFF2D
:100E5000012800D1EFE70EE021460220FFF722FF34
:100E6000012800D1E7E706E02046FFF7BFFE012892
:100E700000D1E0E700BF00BF0020DCE702461346D8
:100E8000002B01D101207047002901D10120FAE790
:100E9000D87808700020F6E770B50446254600268D
:100EA000002D01D1012070BDEE68B068002801D18D
:100EB0000120F8E72846B1688847012800D1F2E709
:100EC0000020F0E710B501210520000700F02AFA04
:100ED000012800D110BD0020FCE710B50022FF2141
:100EE00001310520000700F026FA052000F002F984
:100EF000012211020520000700F01DFA052000F074
:100F0000F9F810BDF7B588B00F4616460025FF2149
:100F1000079122A103C90591049000220221052016
:100F2000000700F008FA0F20052302AA04A9009088
:100F3000089801F03FFA6846007A02281AD16946FB
:100F4000087B0402C97A0C43002C13DDB44200DD97
:100F5000344600250CE00F20012306AA07A90090C3
:100F6000089801F027FA6846007E7855681CC5B2DB
:100F7000A542F0DB012202210520000700F0DBF989
:100F80000020019003E000BF0198401C01900198EF
:100F90000228F8DB28460BB0F0BD00000B00000073
:100FA00000000000FFB5C7B016461C46509D00204B
:100FB0004690002728A103C94591449028A103C960
:100FC0004391429000F05AF8002F03D005F02AFB1D
:100FD00005F03EFB002202210520000700F0ABF9DE
:100FE0000F20052342AA44A90090479801F0E2F996
:100FF000002F01D005F0FAFA40A8007A02281DD18E
:1010000040A8407A6119884214DB002C07DD0F20CC
:10101000234602AA00904899479801F0CBF9002D89
:101020000FDD0F202B4602AA31460090479801F0B1
:10103000C1F906E00120C043469002E00020C04311
:101040004690012202210520000700F074F900F00B
:101050002BF846984BB0F0BD0A00000000000000DD
:10106000AA0000000000000001200149486170470B
:101070000004014010B500F065F910BD10B5052061
:1010800000F09EFB10BD10B5012000F045F810BD2A
:1010900010B50120400300F03FF80120014908701D
:1010A00010BD00000400002010B5052000F094FBE6
:1010B00010BD000002460120044B18600448018066
:1010C000052000E0401E0028FCDC704708000020DE
:1010D0000E00002000200449086001200349087028
:1010E0000020034908707047080000200C00002011
:1010F0001000002031B5002400F024F9044600BFA0
:1011000000F020F9001B00998842F9D338BD10B5D2
:10111000044601F0A5FB10BD10B504460548406922
:101120002040002804D0034844612046FFF7EFFF29
:1011300010BD00000004014070B5034600220024E9
:101140000020DAE0012696400D6835402C46002C40
:1011500077D04D68022D02D04D68122D15D1D508DB
:10116000AE001D462035A8595507EE0E0F25B54097
:101170000646AE4330465607F60E0D69B540284385
:10118000D508AD001E46203670514D68012D08D09F
:101190004D68022D05D04D68112D02D04D68122DDD
:1011A00018D1986856000325B5400646AE43304630
:1011B0005600CD68B5402843986058680125954091
:1011C0000646AE43304610264D6835402D09954001
:1011D00028435860186856000325B5400646AE43BC
:1011E00030460D79AD07AD0F5600B5402843186065
:1011F000D86856000325B5400646AE433046560033
:101200008D68B5402843D860012636074D683540C3
:10121000B54271D13C4D6D6B012635433A4E756335
:101220003A4D9608B600A85995072E0F0F25B540E0
:101230000646AE43304605252D07AB4202D10025B8
:1012400015E059E0324DAB4201D101250FE0314D9F
:10125000AB4201D102250AE02F4DAB4201D103255B
:1012600005E02E4DAB4201D1052500E0062596078D
:10127000360FB5402843254D9608B600A851284D95
:1012800028680546A5432846012636044D683540A2
:10129000B54202D1054625432846214D286068689D
:1012A0000546A5432846012676044D683540B542DB
:1012B00002D1054625432846194D6860A8680546B1
:1012C000A5432846012636054D683540B54202D172
:1012D000054625432846124DA860E8680546A54303
:1012E0002846012676054D683540B54202D10546AF
:1012F000254328460A4DE860521C0D68D540002D54
:1013000000D01FE770BD000000100240080001403F
:101310000004005000080050000C0050001C005059
:1013200000040140024613690B40002B01D001204C
:1013300000E000207047002A01D0816100E0816256
:10134000704700000148006870470000440000201A
:1013500010B50446002C01D1012010BD022135201A
:101360000155206800684008400021680860204658
:1013700000F0F8F90020A06300213520015500BFDE
:101380003420015500BF0020E7E701463520405CCE
:101390007047000010B50446002C01D1012010BD9B
:1013A0003520005D002805D100213420015520465C
:1013B00000F0D9F902213520015520680068400865
:1013C0004000216808600F21090660688843216891
:1013D0000861206880680121C9038843216888600A
:1013E000A06800280FD0E068012806D10121C903B8
:1013F000A06808432168886005E021218902A0686F
:10140000084321688860E068022802D180022168D0
:101410004860206840680F49084321684860616956
:1014200020690843A169090208432168C860216A4C
:10143000E0690843216808602068006801210843CA
:10144000216808600020A06301213520015500209B
:10145000A5E7000000800002FFB583B004460E9FA0
:101460000C9E0D9D002002903520005D012876D154
:10147000002E01D0002D02D1012007B0F0BD206860
:1014800080690121C9030840C00B002801D0022057
:10149000F3E700BF3420005D012801D10220ECE712
:1014A00001213420015500BF622135200155002063
:1014B000A0630097204604A90EC902F0B5F80028E1
:1014C00010D0A06B042806D100BF002134200155A4
:1014D00000BF0120D1E700BF00213420015500BF2B
:1014E0000320CAE7FF2D0CDD0920800201231B0623
:1014F000FF2200902046049902F020F9FF2002907C
:101500000AE009208002EAB201235B06009020462F
:10151000049902F013F9029500BF3B460022042112
:10152000204602F023F9002801D00320A5E7206817
:10153000406A3070761C0298401E0290681E85B288
:101540000298002824D1002D22D03B460022802181
:10155000204602F00BF9002802D003208DE739E085
:10156000FF2D0BDD002001231B06FF2200902046EB
:10157000049902F0E3F8FF20029009E00020EAB2AB
:1015800001235B0600902046049902F0D7F80295EB
:10159000002DC2DC1921204602F03DF9002806D0BA
:1015A000A06B042801D1012067E7032065E7202014
:1015B0002168C86120684068074908402168486080
:1015C00001213520015500BF00213420015500BF05
:1015D000002052E7022050E700E800FEFFB583B08C
:1015E00004460E9F0C9E0D9D002002903520005D4C
:1015F000012877D1002E01D0002D02D1012007B0A3
:10160000F0BD206880690121C9030840C00B002893
:1016100001D00220F3E700BF3420005D012801D192
:101620000220ECE701213420015500BF5221352072
:1016300001550020A0630097204604A90EC902F0BE
:1016400038F8002810D0A06B042806D100BF002174
:101650003420015500BF0120D1E700BF0021342014
:10166000015500BF0320CAE7FF2D0BDD0020012339
:101670001B06FF2200902046049902F05FF8FF202D
:10168000029009E00020EAB201235B0600902046A8
:10169000049902F053F8029500BF3946204602F043
:1016A000E8F8002806D0A06B042801D10120A6E7A5
:1016B0000320A4E7307821688862761C0298401ED7
:1016C0000290681E85B20298002824D1002D22D0F5
:1016D0003B4600228021204602F048F8002802D034
:1016E00003208CE739E0FF2D0BDD002001231B06D2
:1016F000FF2200902046049902F020F8FF2002907B
:1017000009E00020EAB201235B060090204604991C
:1017100002F014F80295002DBFDC1921204602F0DA
:101720007AF8002806D0A06B042801D1012066E7D2
:10173000032064E720202168C861206840680849C8
:1017400008402168486001213520015500BF002173
:101750003420015500BF002051E702204FE7000070
:1017600000E800FE7047704702480068401C0149CD
:10177000086070474400002010B506480068022148
:10178000884304490860032000F006F800F017F8C9
:10179000002010BD0020024070B5044600F01EF984
:1017A00006467D21C900FEF7A3FC054600F0C2FFF6
:1017B00000222146501E00F01BF8002070BD70472B
:1017C00000BFC206D20E01219140024A116000BF43
:1017D0007047000080E100E000BFC206D20E012188
:1017E0009140024A116000BF7047000000E100E034
:1017F00070B504460D4616462946204603F016FDF0
:1018000070BD000070B504460D46002670480068A3
:10181000C007C00FA8420ED26D48006840084000C3
:1018200028436B49086008460068C007C00FA842FB
:1018300001D0012070BD022120680840022807D194
:101840006448C068F0218843A16808436149C860C2
:101850002078C007C00F00284CD06068022809D14A
:101860005C480068012149040840400C002824D14C
:101870000120DFE76068002809D15648006801218F
:1018800049020840400A002817D10120D2E76068C9
:10189000032809D14F480068012149060840400E3D
:1018A00000280AD10120C5E74A4800680421084001
:1018B0008008002801D10120BCE74648C0688008A4
:1018C0008000616808434349C860FFF73BFD064656
:1018D000606802280FD107E0FFF734FD801B3E4906
:1018E000884201D90320A5E73A48C0680C21084086
:1018F0000828F1D134E0606803280FD107E0FFF732
:1019000021FD801B3449884201D9032092E73148E8
:10191000C0680C2108400C28F1D121E06068002843
:101920000FD107E0FFF70EFD801B2B49884201D93C
:1019300003207FE72748C0680C2108400028F1D128
:101940000EE007E0FFF7FEFC801B2349884201D927
:1019500003206FE71F48C0680C2108400428F1D11C
:101960001B480068C007C00FA8420ED31848006883
:101970004008400028431649086008460068C00730
:10198000C00FA84201D0012054E70421206808407C
:10199000042808D10F48C068072109028843E1687C
:1019A00008430C49C860082120680840082809D16C
:1019B0000848C0680721C90288432169C900084353
:1019C0000449C8600320FFF7E7FE002032E700006B
:1019D00000200240001002408813000010B500F003
:1019E00013F80649C968F02211400909044A515CFC
:1019F000C840044908600846006810BD0010024055
:101A00008E66000840000020F8B500240026002063
:101A1000009000270025324840680721490308400C
:101A2000470B2F48C0680C210840002806D0042826
:101A300009D0082811D00C2849D110E0781C0121C8
:101A40008140CD0348E02648006810210840002866
:101A500001D0244D00E0244D3EE0244D3CE02048E0
:101A6000C0680F218904084004461D48C06803214E
:101A7000890508400646A00C1D490C5CB00D461CAB
:101A80001748C06801210904084000900098002808
:101A900015D11348006810210840002807D01149CB
:101AA000614308463146FEF723FB05460EE00E492A
:101AB000614308463146FEF71BFB054606E00B492D
:101AC000614308463146FEF713FB054604E0781CE7
:101AD00001218140CD0300BF00BF2846F8BD0000B2
:101AE0000010024000093D000024F40000127A00BA
:101AF00085660008F8B5044600252078C007C00FA9
:101B0000002870D0F948C0680C21084008280BD084
:101B1000F648C06808400C2813D1F448C068012179
:101B20000904084088420CD1F048006801214904AA
:101B30000840400C00286AD06068002867D1012066
:101B4000F8BD00BF012109046068884205D1E7485B
:101B500000680843E54908602EE005210904606833
:101B6000884215D1E1480068012109048843DF4912
:101B7000086008460068012189040843DB490860C1
:101B800008460068012109040843D849086013E0A9
:101B9000D6480068012109048843D44908600846F2
:101BA0000068012109040840009000BFCF48006888
:101BB00089008843CD49086000BF6068002813D0C1
:101BC000FFF7C0FB054606E0FFF7BCFB401B64289F
:101BD00001D90320B4E7C548006801214904084041
:101BE000400C0028F0D012E0FFF7ACFB054606E001
:101BF000FFF7A8FB401B642801D90320A0E7BB48DE
:101C00000068012149040840400C0028F0D102215D
:101C10002068084002286AD1B448C0680C210840F6
:101C200004280BD0B148C06808400C281DD1AF482B
:101C3000C068012109040840002816D1AB4800689B
:101C4000042108408008002804D0E068012801D061
:101C5000012075E7A54840681F21090288432169D2
:101C600009020843A149486041E0E068002824D007
:101C70009E48006809218843E16808439B49086041
:101C8000FFF760FB054606E0FFF75CFB401B022800
:101C900001D9032054E795480068042108408008D2
:101CA0000028F1D0914840681F210902884321692A
:101CB000090208438D49486019E08C4800680921F1
:101CC0008843E168084389490860FFF73BFB054604
:101CD00006E0FFF737FB401B022801D903202FE75E
:101CE000824800680421084080080028F1D11021B2
:101CF00020680840102872D17C48C0680C21084038
:101D0000002822D179480068012149020840400A90
:101D1000002804D0E069002801D1012010E77348B1
:101D20004068072149038843616A08436F49486056
:101D3000084640680002000A218C090608436B49E6
:101D400048600320FFF728FD49E0E06900282CD017
:101D500066480068FF210131084364490860FFF7C5
:101D6000F1FA054606E0FFF7EDFA401B022801D91B
:101D70000320E5E65D480068012149020840400A69
:101D80000028F0D059484068072149038843616A18
:101D9000084356494860084640680002000A218C02
:101DA000090608435149486019E050480068FF217E
:101DB000013188434D490860FFF7C4FA054606E043
:101DC000FFF7C0FA401B022801D90320B8E64748B4
:101DD0000068012149020840400A0028F0D108218A
:101DE00020680840082839D1606900281BD03F4886
:101DF00040300069012108433C4940310861FFF748
:101E0000A1FA054606E0FFF79DFA401B022801D91A
:101E1000032095E63548403000690221084040081B
:101E20000028F0D01AE031484030006940084000F6
:101E30002E4940310861FFF785FA054606E0FFF7B5
:101E400081FA401B022801D9032079E62748403057
:101E500000690221084040080028F0D120212068B4
:101E6000084020284FD1A069002826D000BF1F4875
:101E70008068012108431D4988600846406B0121A4
:101E800008431A4948631A48006A49140843184924
:101E9000086200BFFFF756FA054606E0FFF752FA60
:101EA000401B022801D903204AE61048806802211D
:101EB000084040080028F1D025E000BF0B488068AA
:101EC00040084000094988600948006A09490840FB
:101ED0000749086200BFFFF735FA05460CE0FFF737
:101EE00031FA401B022807D9032029E600100240DE
:101EF00000000140FEDFFFFF9B4880680221084090
:101F000040080028EBD104212068084004287DD136
:101F1000002600279448806B89060840002805D1D8
:101F20009148806B08439049886301268F48006878
:101F3000FF2101310840002817D18C480068084370
:101F40008A4908600127FFF7FDF9054606E0FFF71B
:101F5000F9F9401B642801D90320F1E583480068A2
:101F6000FF21013108400028F1D000BFFF210131DD
:101F7000A068884207D17C484030006908437A490C
:101F80004031086140E0A068002810D17648403018
:101F90000069FF21013188437349403108610846D7
:101FA0000069091588437049403108612CE005211A
:101FB0000902A068884217D16B4840300069FF21B0
:101FC00001318843684940310861084600690915B4
:101FD000084365494031086108460069891508438E
:101FE0006149403108610FE05F4840300069FF21DE
:101FF000013188435C494031086108460069091590
:10200000884359494031086100BF00E03EE0A068C4
:10201000002815D0FFF796F9054607E0FFF792F97B
:10202000401B5349884201D9032089E54E4840307E
:102030000069012149020840400A0028EED014E05E
:10204000FFF780F9054607E0FFF77CF9401B484998
:10205000884201D9032073E54348403000690121DB
:1020600049020840400A0028EED1012F05D13F481F
:102070000068390288433D490860012E05D13A487D
:10208000806B310788433849886300BFA06A002805
:1020900067D03548C0680C2108400C285FD0A06A82
:1020A000022841D1304800680121090688432E49A1
:1020B0000860FFF747F9054606E0FFF743F9401BC4
:1020C000022801D903203BE5274800680121490681
:1020D0000840400E0028F0D1616B206B0843E16A94
:1020E00008432149C968FD221204914308431E494F
:1020F000C860084600680121090608431A490860BB
:10210000FFF720F9054606E0FFF71CF9401B0228FF
:1021100001D9032014E5144800680121490608404C
:10212000400E0028F0D01CE00F480068012109068D
:1021300088430D490860FFF705F9054606E0FFF7FB
:1021400001F9401B022801D90320F9E40648006880
:10215000012149060840400E0028F0D101E001208D
:10216000EEE40020ECE400000010024000700040AB
:102170008813000010B50446002C01D1012010BDC9
:102180005120005D002805D1002150200155204636
:1021900000F038F8022151200155206800684021E4
:1021A000884321680860A16860680843E1680843C3
:1021B000216908436169084301225202A169114063
:1021C0000843E1690843216A0843A16A084321687A
:1021D0000860A069000C04210840616A0843216876
:1021E00048602168E06A08612068C06991008843FE
:1021F0002168C8610020606501215120015500203F
:10220000BDE7000010B586B00446664920688842E4
:102210007ED100BF6448C06A012108436249C86298
:102220000846C06AC007C00F009000BF00BF00BFD3
:102230000846C06A022108435B49C8620846C06A72
:1022400002210840009000BF00BF00BF5648C06A8E
:10225000012108435449C8620846C06AC007C00F3C
:10226000009000BF00BF00BF0846C06A01210843BC
:102270004D49C8620846C06AC007C00F009000BF41
:1022800000BF00BF0846C06A012108434649C86232
:102290000846C06AC007C00F009000BF00BF00BF63
:1022A0000846C06A012108433F49C8620846C06A1F
:1022B000C007C00F009000BF00BF0846406B8914E4
:1022C0000843394948638815019001200290039022
:1022D00000200490059001A905200007FEF72CFFBF
:1022E0000022FF21013105200007FFF724F8082014
:1022F000019002200290039003200490002005909A
:1023000001A92A48FEF718FF40200190022000E0B2
:1023100045E00290002003900320049000200590E7
:1023200001A905200007FEF707FF80200190022089
:10233000029000200390032004900020059001A942
:1023400005200007FEF7F8FE022001900120029010
:102350000390032004900020059001A905200007A8
:10236000FEF7EAFE0122022105200007FEF7E3FF47
:10237000012001900E480290002003900320049059
:102380000020059001A905200007FEF7D5FE0022D8
:1023900003210520FFF72CFA0520FFF71DFA06B0F0
:1023A00010BD000000300140001002400004005049
:1023B00000001110F8B504460E4617461D460020D1
:1023C00000905120005D012803D05120005D22289B
:1023D00073D1002E03D0002F01D0002D01D1012098
:1023E000F8BD00BF5020005D012801D10220F7E7B1
:1023F00001215020015500BF5120005D012802D16C
:1024000032215120015500206065A763A587E5872B
:102410002663A586E586A064E06401214903A06ADD
:1024200088420DD100BF2068006888432168086099
:10243000206800680121490308432168086000BF43
:102440002068006840210840402804D020680068C7
:102450000843216808600121C902E06888427DD1F3
:102460006068002807D0FF210531606888420CD1E0
:10247000E08E012809D1206B00882168C860206B9C
:10248000801C2063E08E401EE086E08E002820D174
:1024900001214903A06A884205D1206800684910DB
:1024A000084321680860002201212046069B02F0B3
:1024B0002FFF002802D0032092E738E12068C0688F
:1024C000A16B0880A06B801CA063E08F401EE0879A
:1024D000D7E035E0002202212046069B02F018FFDB
:1024E000002801D003207BE7206B00882168C860AA
:1024F000206B801C2063E08E401EE086E08E00286A
:102500000AD101214903A06A884205D120680068E8
:102510004910084321680860002201212046069BDB
:1025200002F0F6FE002801D0032059E72068C068B9
:10253000A16B0880A06B801CA063E08F401EE08729
:10254000E08E0028C6DC60680028C1D1002201218D
:102550002046069B02F0DCFE002800E00DE001D0E2
:1025600003203DE72068C068A16B0880A06B801C39
:10257000A063E08F401EE08783E06068002807D0FA
:10258000FF210531606888420BD1E08E012808D117
:10259000216B481C206308782168C860E08E401ECB
:1025A000E086E08E00281CD101214903A06A884200
:1025B00005D120680068491008432168086000229E
:1025C00001212046069B02F0A3FE002801D0032033
:1025D00006E72068C068A16B0870E08F401EE087A6
:1025E0004FE034E0002202212046069B02F090FEDC
:1025F000002801D00320F3E6216B481C20630878F3
:102600002168C860E08E401EE086E08E00280AD176
:1026100001214903A06A884205D120680068491059
:10262000084321680860002201212046069B02F031
:102630006FFE002801D00320D2E62068C068C1B236
:10264000A26B501CA0631170E08F401EE087E08EEB
:102650000028C7DC6068002813D100220121204631
:10266000069B02F055FE002801D00320B8E6206842
:10267000C068C1B2A26B501CA0631170E08F401EF5
:10268000E08701214903A06A884213D10022012179
:102690002046069B02F03CFE002805D0606D02211A
:1026A0000843606503209BE62068C06881B2009102
:1026B00068460088012280212046069B02F028FE01
:1026C000002805D0606D202108436065032087E65F
:1026D0000121512001554903A06A884220D1206878
:1026E0008068102108400009002819D0606D02217F
:1026F0000843606500BF20680068090388432168BB
:1027000008602068006801214903084321680860C7
:1027100000BF00BF00215020015500BF01205FE62F
:1027200000BF00215020015500BF002058E60220C4
:1027300056E6000070B504462546681E09498842E1
:1027400001D901200CE0681E074948610321081FD8
:1027500002F06CFD00200449886107200861002018
:1027600070BD0000FFFFFF0000E000E0F8B5044688
:102770000094009C661C009C2078042800D0F8BDC2
:102780003078052804D03E2805D0FF2845D112E036
:10279000FEF7A0FC41E0B51C2878012809D16F1C88
:1027A000BA787B78100218430146781DFEF782FC48
:1027B00000BF00BF31E0B51C6878297800020843EB
:1027C00017494018002802D0132824D11AE01548D0
:1027D000007801280AD1AF1C3979FA78BB78120247
:1027E0001A431046FA1DFEF721F90AE0AF1C3979A9
:1027F000FA78BB7812021A4310467A1DFEF716F9D2
:1028000000BF08E0AF1CF978BA7809021143084606
:1028100002F05EFD00BF00BF00BF00BF00BFAEE71B
:10282000FFF3FFFF0500002010B50A4803F0B6FDD6
:10283000094803F0B3FD002408E08C206043074AF8
:102840008118044803F0BEFD601CC4B2052CF4DB03
:1028500010BD000048000020500000209002002021
:1028600038B500200090FEF7FFFB2DE0194803F07B
:10287000BAFD002823D16946164803F0C5FD802221
:10288000009908311448FEF73DFBC4B2002C11DD5D
:10289000009880300472009800F054F8002804D1A9
:1028A0000E48009903F08EFD0CE00A48009903F0F1
:1028B00078FD07E00748009903F073FD02E0FEF79A
:1028C000D3FB38BDFEF7D0FBFEF7FCFA0028CDD1D4
:1028D00000BFF6E74800002038020020500000202A
:1028E00038B500200090FEF7C9FB104803F07BFDCF
:1028F000044613E069460D4803F086FDFEF7D4FB5D
:1029000000980830FFF732FFFEF7B8FB084800993F
:1029100003F058FD054803F066FD0446002CE9D09D
:10292000FFF79EFFFEF7C0FB38BD000050000020FF
:102930004800002010B5024803F055FD10BD00000E
:102940005000002001460A4608321078042801D0C1
:102950000120704793788820405CC01E834201D0DC
:102960000220F6E70020F4E738B504466B46012262
:102970002021204600F0E2FA002801D0012038BDD5
:10298000694608788021084300906B460122202187
:10299000204600F0B3FC002801D00120EFE7002022
:1029A000EDE738B50446002000906946204600F067
:1029B000D5F9012800D138BD2078694609788842C8
:1029C00001D00120F7E70020F5E738B504466B4653
:1029D00001222021204600F0B1FA002801D0012078
:1029E00038BD694608788021884300906B460122F3
:1029F0002021204600F082FC002801D00120EFE7D2
:102A00000020EDE7F8B506460C4615466B46012258
:102A10002721304600F092FA002801D00120F8BDAD
:102A2000684600780221084040102070684600780F
:102A3000C007C00F28700020F1E770B505460C46AE
:102A4000234601220F21284600F078FA002801D001
:102A5000012070BD0020FCE7F8B505460C460020BB
:102A600000906946284600F011F8012800D1F8BD11
:102A700068460088FDF72DFD06460349FDF72EFC4C
:102A800020600020F3E7000000002041F3B58BB088
:102A90000E4608AB022230210B9800F04FFA0028B6
:102AA00002D001200DB0F0BD08A80078451008A89C
:102AB00040784010099008AB022236210B9800F0B4
:102AC0003DFA002801D00120ECE708A9487800026F
:102AD0000978084304B208AB02223A210B9800F0AF
:102AE0002DFA002801D00120DCE708A9487800026F
:102AF0000978084300B20A9008AB022228210B98FB
:102B000000F01CFA002801D00120CBE708A9487882
:102B100000020978084307B22846FDF7CFFC06906B
:102B20000A99081BFDF7CAFC04900999481BFDF798
:102B3000C5FC0290381BFDF7C1FC01900299FDF71E
:102B400090FB03900499FDF7C9FB05900699FDF7EA
:102B50002FFB07900D490798FDF783FB07900C4961
:102B60000798FDF72DFD02D27D20C0000AE000216C
:102B70000798FDF71BFD01D2002003E00798FDF741
:102B8000C8FC80B2308000208CE7000000002041AB
:102B900000007A4438B505460C466946284600F0E0
:102BA00029F8012800D138BD68460078002806D0F1
:102BB000012807D0022809D003280DD109E0002000
:102BC00020600DE07F20C005206009E006482060FD
:102BD00006E00648206003E0054820600120E2E7A7
:102BE00000BF0020DFE700000000E0400000484197
:102BF000000080BF38B505460C466B4601222021F7
:102C0000284600F09BF9002801D0012038BD684615
:102C100000788107890F00916846007820700020B5
:102C2000F4E70000F8B505460C4600200090694620
:102C3000284600F011F8012800D1F8BD69460020AF
:102C4000085EFDF73BFC06460249FDF747FB2060A6
:102C50000020F2E700002041F3B58DB009AB02225D
:102C600032210D9800F06AF9002802D001200FB03F
:102C7000F0BD08AB012235210D9800F05FF9002866
:102C800001D00120F3E708A800788007850D08A887
:102C90000079054308A800780C210840860108A99E
:102CA00049790E43EF10F0100A9009AB04223C2141
:102CB0000D9800F043F9002801D00120D7E708A8BB
:102CC0004079010208A8007901430CB208A8C07934
:102CD000000208A98979084300B20C9009AB0222CE
:102CE0002A210D9800F02AF9002801D00120BEE722
:102CF00008A9487900020979084301B20B913846C6
:102D0000FDF7DCFB06900C99081BFDF7D7FB049040
:102D10000A99C81BFDF7D2FB02900B99081BFDF71F
:102D2000CDFB01900299FDF79CFA03900499FDF701
:102D3000D5FA05900699FDF73BFA079006490798E2
:102D4000FDF78FFA07900798FDF7CAFB01B20E98BE
:102D5000018000208BE700000000204170B5044690
:102D60000D4629462046FFF768FE012800D170BDB8
:102D70000020FCE710B504462046FFF712FE10BD08
:102D800010B50446A068006800684078002805D1A6
:102D9000204600F062F8012800D110BD0020A16893
:102DA000096809680870E07000BFF6E77CB5054661
:102DB0000C466A4601A92846FFF724FE012800D1E7
:102DC0007CBD68460079002803D0012804D120701A
:102DD00004E00020207001E00120F1E700BF0020A6
:102DE000EEE770B504460D4629462046FFF734FE4F
:102DF00070BD70B504460D4629462046FFF7CAFE51
:102E000070BD70B504460D4629462046FFF7A6FF63
:102E100070BD10B50446A0680068006840780028BE
:102E200005D1204600F06CF8012800D110BD01202A
:102E3000A168096809680870E0700020F6E770B5BD
:102E400004460D46164632462946204600F08BF8C9
:102E5000012800D170BD0020FCE710B504462079A0
:102E6000002800D110BDA06800680068C078002864
:102E700005D1204600F086F8012800D1F2E70020B5
:102E8000A168096809688870207100BFEAE710B579
:102E900004462079012801D1002010BDA0680068F7
:102EA0000068C078002805D1204600F075F8012898
:102EB00000D1F2E70120A1680968096888702071D3
:102EC0000020EAE770B504460D462946204600F08A
:102ED000BDF870BD70B504460D462946204600F089
:102EE000D5F870BD70B504460D46164632462946E3
:102EF000204600F018FA012800D170BD0020FCE740
:102F000010B504462046FFF74CFD012800D110BD46
:102F10002046FFF75AFD012800D1F8E7012120469D
:102F200000F044F8012800D1F1E70021204600F02C
:102F30008DF8012800D1EAE70020E8E7F8B5074658
:102F40000D4614461E46012C01DD80200543234614
:102F500032462946384602F071FA002801D0012095
:102F6000F8BD0020FCE770B505460E461446234622
:102F7000012231462846FFF7E1FF012800D170BD4C
:102F80000020FCE710B504462046FFF71EFD01288F
:102F900000D110BD0020FCE710B504462046FFF725
:102FA000E3FC012800D110BD0020FCE738B5054640
:102FB0000C46012C01D0002C00D103E0124913A0D3
:102FC00000F0C0F96B46012220212846FFF7B6FF2A
:102FD000002801D0012038BD6846017804208143D3
:102FE0000091A100684600780143C9B200916B4688
:102FF00001222021284600F081F9002801D001207B
:10300000E9E70020E7E70000630200002E2E5C2EB7
:103010002E5C2E2E5C2E2E5C2E2E5C2E2E5C447290
:1030200069766572735C4253505C436F6D706F6E6E
:10303000656E74735C6874733232315C4854533219
:1030400032315F4472697665722E630070B5064650
:103050000D462B0002F027FB050406080A0C0E00A3
:10306000012409E0032407E0032405E0032403E02E
:10307000032401E0012070BD00BF2146304600F06E
:1030800025F8012800D1F6E70020F4E770B50546E1
:103090000C467F21C9052046FDF788FA01D801209A
:1030A00007E009492046FDF781FA01D8022000E037
:1030B000032006463146284600F008F8012800D1D2
:1030C00070BD0020FCE700000000E04038B5054678
:1030D0000C46002C05D0012C03D0022C01D0032C6F
:1030E00000D103E0114912A000F02CF96B46012237
:1030F00020212846FFF722FF002801D0012038BDFB
:10310000684600788108890000916846007820436D
:1031100000906B4601222021284600F0EFF800289D
:1031200001D00120EBE70020E9E70000BA0200002F
:103130002E2E5C2E2E5C2E2E5C2E2E5C2E2E5C2EC9
:103140002E5C447269766572735C4253505C436FC7
:103150006D706F6E656E74735C6874733232315C5F
:103160004854533232315F4472697665722E63007F
:1031700010B504462046FFF714FC10BD10B50446F8
:10318000A068006800680078002805D1204600F09B
:1031900062F8012800D110BD0020A1680968096803
:1031A0004870E07000BFF6E77CB505460C466A46FD
:1031B00001A92846FFF726FC012800D17CBD6846FE
:1031C0000078002803D0012804D1207004E00020FA
:1031D000207001E00120F1E700BF0020EEE770B5AC
:1031E00004460D4629462046FFF7D4FC70BD70B555
:1031F00004460D4629462046FFF714FD70BD70B504
:1032000004460D4629462046FFF7A8FD70BD10B5BF
:103210000446A068006800680078002805D12046B0
:10322000FFF76EFE012800D110BD0120A1680968DA
:1032300009684870E0700020F6E770B504460D4656
:103240001646324629462046FFF78DFE012800D15A
:1032500070BD0020FCE710B504462079002800D19D
:1032600010BDA068006800688078002805D120465D
:10327000FFF788FE012800D1F2E70020A168096865
:103280000968C870207100BFEAE710B504462079CC
:10329000012801D1002010BDA06800680068807876
:1032A000002805D12046FFF777FE012800D1F2E77C
:1032B0000120A16809680968C87020710020EAE748
:1032C00070B504460D4629462046FFF7BFFE70BD87
:1032D00070B504460D4629462046FFF7D7FE70BD5F
:1032E00070B504460D46164632462946204600F083
:1032F0001AF8012800D170BD0020FCE7F8B5074698
:103300000D4614461E46012C01DD80200543234650
:1033100032462946384602F0A4F8002801D00120A0
:10332000F8BD0020FCE737B504460D4602AB01228C
:1033300029462046FFF7E2FF012800D13EBD0020CC
:10334000FCE7000004460D462A46214602A002F092
:1033500083F900BFFEE7000057726F6E672070614F
:1033600072616D65746572732076616C75653A2063
:1033700066696C65202573206F6E206C696E652010
:1033800025640D0A00000000FEB504460D461646F1
:103390001F460A210E480068FCF7AAFE014600906D
:1033A00001A802F043F910E0F8B2F3B22A46214630
:1033B00000900848FDF7F6FD002800D106E001A8BE
:1033C00002F026F9002800D000E0EDE700BFFEBDC6
:1033D0006C6600083802002000BFFEE710B5044606
:1033E0000248FDF7B5FF00F003F810BD4C050020C2
:1033F00010B50F48FDF7C9FF00280FD10D480C4943
:10340000486033210A4881600121C1600A480849A7
:10341000086000F013F80648FDF7BCFF0448FDF70C
:10342000B4FF012801D1002010BD0120FCE70000FD
:103430004C0500202E11B1000054004000B587B0AB
:1034400000BF1D48C06A022108431B49C8620846E4
:10345000C06A02210840019000BF00BF03200002A3
:103460000290122003900220059000200490042076
:10347000069002A91148FDF75FFE0F48806B0121FD
:10348000490508430C4988630846806A01214905BB
:103490000843094988620846806A01214905884332
:1034A00005498862002211461720FEF7A1F917206E
:1034B000FEF792F907B000BD001002400004005072
:1034C000F0B585B004460D4616461F460020039011
:1034D0000B48006801232A46214601970096029076
:1034E0000848FDF7B9FF03900398002805D020464F
:1034F000FFF774FF012005B0F0BD0020FBE70000DE
:103500005C0000204C050020F0B585B004460D4657
:1035100016461F46002003900B48006801232A46E8
:1035200021460197009602900848FEF757F803904D
:103530000398002805D02046FFF750FF012005B072
:10354000F0BD0020FBE700005C0000204C050020DF
:1035500070B504460D460026FDF7F4FE06462068C9
:103560008069102108400009002858D03520005DEE
:10357000122807D03520005D522803D03520005D89
:1035800062280CD120684068012149060840884221
:1035900005D020684068C91208432168486013E0DC
:1035A000681C002810D0002D04D0FDF7CBFE801B36
:1035B000A84209D901213520015500BF002134203E
:1035C000015500BF032070BD20688069202108409C
:1035D00040090028E4D010202168C861202021681B
:1035E000C86120688069C007C00F01214840484079
:1035F000002802D101202168C8612068406809497B
:103600000840216848600420A0630121352001554D
:1036100000BF00213420015500BF0120D3E7002066
:10362000D1E7000000E800FEFFB581B00446154672
:103630001E460A9F01204003F2B20023009020465C
:10364000029900F07BF83946204600F012F9002874
:1036500007D0A06B042802D1012005B0F0BD0320E3
:10366000FBE7012E03D1E8B22168886215E0FF2054
:10367000000228400012216888623946204600F086
:10368000F8F8002806D0A06B042801D10120E4E757
:103690000320E2E7E8B2216888623B46002240212D
:1036A000204600F063F8002801D00320D5E7002071
:1036B000D3E7FFB581B0044615461E460A9F012098
:1036C0004003F2B2C30200902046029900F036F89F
:1036D0003946204600F0CDF8002807D0A06B04281A
:1036E00002D1012005B0F0BD0320FBE7012E03D17C
:1036F000E8B22168886215E0FF200002284000122D
:10370000216888623946204600F0B3F8002806D0C8
:10371000A06B042801D10120E4E70320E2E7E8B22E
:10372000216888623B4600228021204600F01EF876
:10373000002801D00320D5E70020D3E7F0B50C46E0
:10374000002105686968084D2940A505AD0D1604DE
:10375000FF273F043E4035431D43059E3543294323
:1037600005686960F0BD0000009800FCFFB581B0FD
:1037700004460E461D46FDF7E5FD07460398002862
:1037800024D114E0681C002811D0002D04D0FDF7CE
:10379000D9FDC01BA8420AD901213520015500BF1F
:1037A00000213420015500BF032005B0F0BD206882
:1037B0008069F103C90B0840F103C90B884201D1AC
:1037C000012000E000200028DCD022E013E0681C8B
:1037D000002810D0002D04D0FDF7B4FDC01BA84276
:1037E00009D901213520015500BF002134200155A0
:1037F00000BF0320D9E720688069F103C90B0840A6
:10380000F103C90B884201D1012000E0002000280B
:10381000DDD10020C9E770B504460D460026FDF74E
:1038200091FD06461CE029462046FFF791FE002840
:1038300001D0012070BD002D04D0FDF783FD801B59
:10384000A8420DD9A06B20210843A0630121352097
:10385000015500BF00213420015500BF0320E9E7D6
:10386000206880692021084040090028DBD0002022
:10387000E0E770B504460D46FDF764FD06461FE01F
:1038800029462046FFF764FE002801D0012070BDC4
:10389000681C002814D0002D04D0FDF753FD801BB8
:1038A000A8420DD9A06B20210843A0630121352037
:1038B000015500BF00213420015500BF0320E6E779
:1038C000206880690221084040080028D8D00020E4
:1038D000DDE738B50446002000906946204600F038
:1038E000C5FA012800D138BD207869460978884298
:1038F00001D00120F7E70020F5E770B505460E4638
:1039000014463146284600F015FA012800D170BD52
:103910002146284600F078FA012800D1F7E7002078
:10392000F5E77CB505460C466946284600F06AF97D
:10393000012800D17CBD6846407820700020F9E75E
:103940007CB505460C466946284600F05BF901281F
:1039500000D17CBD6846007920700020F9E77CB575
:1039600005460C466946284600F04CF9012800D16E
:103970007CBD6846807820700020F9E738B50546A0
:103980000C466946284600F026F9012800D138BDCA
:103990006846007820700020F9E77CB505460C46A3
:1039A0006946284600F02EF9012800D17CBD684602
:1039B000007820700020F9E77CB505460C46694682
:1039C000284600F01FF9012800D17CBD6846C07868
:1039D00020700020F9E770B504460D4629462046C0
:1039E00000F040F9012800D170BD0020FCE770B55F
:1039F00005460C46002C04D0012C0AD0022C18D10C
:103A00000FE00021284600F0E7FB012800D170BD3F
:103A100011E00021284600F003FC012800D1F6E760
:103A200009E00021284600F01FFC012800D1EEE744
:103A300001E00120EBE700BF0020E8E770B5054694
:103A40000C46002C04D0012C0AD0022C18D10FE017
:103A50000121284600F0C0FB012800D170BD11E013
:103A60000121284600F0DCFB012800D1F6E709E03F
:103A70000121284600F0F8FB012800D1EEE701E023
:103A80000120EBE700BF0020E8E770B505460C46D3
:103A9000602C0FD006DC002C09D0202C08D0402C44
:103AA0000BD106E0802C06D0E02C06D104E000BF4C
:103AB00000BF00BF00BF00BF01E0012070BD00BF1C
:103AC0002146284600F0F4FB012800D1F6E700204B
:103AD000F4E770B504460D462946204600F02EFC5A
:103AE000012800D170BD0020FCE770B505460C46EA
:103AF000002C02D0012C02D100E000BF01E0012027
:103B000070BD00BF2146284600F03AFC012800D1D4
:103B1000F6E70020F4E770B505460C46002C02D00D
:103B2000012C02D100E000BF01E0012070BD00BF08
:103B30002146284600F0DEFB012800D1F6E70020F0
:103B4000F4E770B505460C46002C02D0012C02D1DA
:103B500000E000BF01E0012070BD00BF2146284603
:103B600000F00EFC012800D1F6E70020F4E738B59C
:103B700005460C466B4601222721284600F091FAA3
:103B8000002801D0012038BD68460078C007C00F6A
:103B9000607068460078022108402070684600780E
:103BA000202108404011A07068460078102108408C
:103BB0000011E0700020E6E770B505460C4623468C
:103BC00001220F21284600F06CFA002801D00120C4
:103BD00070BD0020FCE738B505460C466B46012257
:103BE0001421284600F05DFA002801D0012038BDDC
:103BF00068460178E0200140009168460078207016
:103C00000020F4E738B505460C466B460122262114
:103C1000284600F046FA002801D0012038BD684649
:103C2000007880210840C01120716846007840214A
:103C300008408011E070684600788006800E207091
:103C40002078002802D10120607001E0002060701F
:103C50002078202802D10120A07001E00020A0706F
:103C60000020DBE770B505460C46234601221421EF
:103C7000284600F016FA002801D0012070BD2078F7
:103C8000C006C00E20700020F8E7000038B50546D9
:103C90000C466946284600F039F8012800D138BDA5
:103CA00068460078302816D006DC002809D0102895
:103CB0000AD0202818D10BE040280FD0502813D16B
:103CC0000FE00020206013E07F20C00520600FE09F
:103CD000094820600CE00948206009E0084820609D
:103CE00006E00848206003E0074820600120D6E78E
:103CF00000BF0020D3E70000000020410000C841C1
:103D00000000484200009642000080BF38B50546DA
:103D10000C466B4601221021284600F0C2F900280B
:103D200001D0012038BD684600787021084020701D
:103D30000020F7E7F8B505460C46002000906946DC
:103D4000284600F00FF8012800D1F8BD0098FCF7D4
:103D5000B5FB06460249FCF7C1FA20600020F4E7F3
:103D60000000C84238B505460C466946284600F0B2
:103D70000FF8002801D0012038BD6422009951437A
:103D80000846C917090D0918091321600020F3E737
:103D9000F8B507460E4600256B4603222821384613
:103DA00000F07FF9002801D00120F8BD002406E0D2
:103DB0006846005DE10088400543601CC4B2032CE6
:103DC000F6DB0120C0052840002802D0FF200006B5
:103DD000054335600020E8E7F8B506460C466B461B
:103DE00002222B21304600F05CF9002801D001208E
:103DF000F8BD68464078010268460078081885B228
:103E000028B220800020F3E7F8B505460C460020D4
:103E100000906946284600F011F8012800D1F8BD4D
:103E200069460020085EFCF749FB06460249FCF79C
:103E300055FA20600020F2E70000204138B5054621
:103E40000C4669462846FFF7C7FF002801D001202D
:103E500038BD6A460021515E0A225143084664215A
:103E6000FCF75CF900B220800020F1E770B5044651
:103E70000D4629462046FFF79FFE012800D170BD60
:103E80000020FCE770B505460C462846FFF721FDEB
:103E9000012800D170BD174860600121284600F05C
:103EA000B1FB012800D1F5E70021284600F088FB8E
:103EB000012800D1EEE70021284600F085FA01280C
:103EC00000D1E7E70021284600F0A2FA012800D13E
:103ED000E0E70221284600F05DF9012800D1D9E78A
:103EE0000021284600F032F9012800D1D2E7002055
:103EF000D0E700000000C84110B504462046FFF797
:103F0000E8FC10BD70B50446A068006805686878D4
:103F1000002805D1204600F051F8012800D170BDDD
:103F200000202870E07000BFF9E738B505460C4660
:103F300069462846FFF71BFE012800D138BD6846B8
:103F4000407820700020F9E770B504460D462946F8
:103F50002046FFF79BFE70BD70B504460D4629460E
:103F60002046FFF7E7FE70BD70B504460D462946B2
:103F70002046FFF77BFF70BD70B50446A06800685F
:103F800005686878002806D129462046FFF77AFFA1
:103F9000012800D170BD01202870E0700020F9E7F1
:103FA00070B504460D46164632462946204600F0B6
:103FB00091F8012800D170BD0020FCE770B50446DF
:103FC000A068006805682079002800D170BDE878F5
:103FD000002806D10021204600F0F2FA012800D185
:103FE000F4E70020A870207100BFEFE770B5044629
:103FF000A068006805682079012801D1002070BD03
:104000002A462046696800F053FA012800D1F6E7F5
:104010000120A87020710020F1E770B504460D461C
:10402000A068006806682079012807D13246294631
:10403000204600F09DFA012808D170BD324629467D
:10404000204600F06FFA012800D1F6E70020F4E7DF
:1040500070B504460D46A0680068066820790128FE
:1040600007D132462946204600F022FA012808D11D
:1040700070BD32462946204600F0ECF9012800D1F7
:10408000F6E70020F4E770B504460D4616463246C2
:104090002946204600F0C6FB012800D170BD002053
:1040A000FCE7FFB581B00D4616461F46002400BF51
:1040B0000CE03A192819C1B20123019801F0BEF9A8
:1040C000002802D0012005B0F0BD641CB442F0DB32
:1040D0000020F8E770B505460E4614462346012237
:1040E00031462846FFF7DDFF012800D170BD0020D2
:1040F000FCE7000000B587B000BF1248C06A01218C
:1041000008431049C8620846C06AC007C00F019042
:1041100000BF00BF102002900B48039002200590C2
:104120000020049002A905200007FDF705F80022F1
:1041300011460720FDF75CFB0720FDF74DFB002033
:1041400007B000BD001002400000111038B5054650
:104150000C466B46012211212846FFF7A2FF0028DA
:1041600001D0012038BD68460178102081430091BC
:104170002101684600780143C9B200916B460122D3
:104180001121284600F035FB002801D00120E9E785
:104190000020E7E738B505460C466B4601221021A2
:1041A0002846FFF77EFF002801D0012038BD684671
:1041B00001780220814300916846007820430090F6
:1041C0006B4601221021284600F013FB002801D085
:1041D0000020EBE70020E9E738B505460C466B46C2
:1041E000012212212846FFF75CFF002801D00120A0
:1041F00038BD68460178102081430091210168464E
:1042000000780143C9B200916B4601221221284671
:1042100000F0EFFA002801D00120E9E70020E7E7ED
:1042200038B505460C466B46012212212846FFF799
:1042300038FF002801D0012038BD684601782020D1
:10424000814300916101684600780143C9B2009141
:104250006B4601221221284600F0CBFA002801D03B
:104260000120E9E70020E7E738B505460C466B4634
:10427000012212212846FFF714FF002801D0012057
:1042800038BD68460178082081430091E100684606
:1042900000780143C9B200916B46012212212846E1
:1042A00000F0A7FA002801D00120E9E70020E7E7A5
:1042B00038B505460C466B46012214212846FFF707
:1042C000F0FE002801D0012038BD68460178E020CA
:1042D0008143009168460078204300906B4601229C
:1042E0001421284600F085FA002801D00120EBE7D0
:1042F0000020E9E738B505460C466B46012211213E
:104300002846FFF7CEFE002801D0012038BD6846C0
:104310000178402081430091A10168460078014363
:10432000C9B200916B4601221121284600F061FAC2
:10433000002801D00120E9E70020E7E738B505466D
:104340000C466B46012214212846FFF7AAFE0028DE
:1043500001D0012038BD684600784109490100912B
:1043600068460078204300906B46012214212846BD
:1043700000F03FFA002801D00120EBE70020E9E738
:1043800038B505460C466B46012211212846FFF739
:1043900088FE002801D0012038BD68460178202021
:1043A000814300916101684600780143C9B20091E0
:1043B0006B4601221121284600F01BFA002801D08B
:1043C0000120E9E70020E7E738B505460C466B46D3
:1043D000012210212846FFF764FE002801D00120A9
:1043E00038BD68460178082081430091E1006846A5
:1043F00000780143C9B200916B4601221021284682
:1044000000F0F7F9002801D00120E9E70020E7E7F4
:1044100038B505460C466B46012210212846FFF7A9
:1044200040FE002801D0012038BD684601780420F4
:104430008143009168460078204300906B4601223A
:104440001021284600F0D5F9002801D00120EBE723
:104450000020E9E770B506460C4615467F21C905E0
:104460002046FCF7A3F802D87F20C00515E00C49D0
:104470002046FCF79BF801D809480EE00949204680
:10448000FCF794F801D8074807E007492046FCF7F5
:104490008DF801D8044800E004486860002070BD31
:1044A000000020410000C841000048420000964240
:1044B000F8B506460C4615467F21C9052046FCF78F
:1044C00075F801D8102015E013492046FCF76EF866
:1044D00001D820200EE011492046FCF767F801D8EA
:1044E000302007E00E492046FCF760F801D8402054
:1044F00000E0502007463946304600F061F80128B8
:1045000000D1F8BD291D3046FFF7C0FB012800D1BE
:10451000F7E70020F5E70000000020410000C84157
:104520000000484210B504460B0001F0BCF8050439
:10453000080B0E1114007F20C00550600DE00848E4
:1045400050600AE00748506007E00748506004E008
:104550000648506001E0012010BD00BF0020FBE7CD
:10456000000020410000C84100004842000096427F
:10457000F8B507460D4616462B0001F094F80504E1
:1045800006080A0C0E00102409E0202407E030245D
:1045900005E0402403E0502401E00120F8BD00BF05
:1045A0002146384600F00CF8012800D1F6E7311D0D
:1045B0003846FFF76BFB012800D1EFE70020EDE75D
:1045C00038B505460C466B46012210212846FFF7F8
:1045D00068FD002801D0012038BD684601787020B0
:1045E0008143009168460078204300906B46012289
:1045F0001021284600F0FDF8002801D00120EBE74B
:104600000020E9E738B505460C466B4601221A2121
:104610002846FFF746FD002801D0012038BD684636
:1046200000784108490000916846007820430090D6
:104630006B4601221A21284600F0DBF8002801D041
:104640000120EBE70020E9E710B504462046FFF71C
:1046500040F910BD70B50446A06800680568287868
:10466000002805D1204600F051F8012800D170BD86
:1046700000206870E07000BFF9E738B505460C46C9
:1046800069462846FFF773FA012800D138BD68460D
:10469000007820700020F9E770B504460D462946E1
:1046A0002046FFF7F3FA70BD70B504460D46294663
:1046B0002046FFF7A9FB70BD70B504460D4629469C
:1046C0002046FFF7D3FB70BD70B50446A0680068B4
:1046D00005682878002806D129462046FFF7D2FB36
:1046E000012800D170BD01206870E0700020F9E75A
:1046F00070B504460D461646324629462046FFF759
:10470000E9FC012800D170BD0020FCE770B504462B
:10471000A068006805682079002800D170BDA878DD
:10472000002806D100212046FFF74AFF012800D1CA
:10473000F4E70020E870207100BFEFE770B5044691
:10474000A068006805682079012801D1002070BDAB
:104750002A4620466968FFF7ABFE012800D1F6E73C
:104760000120E87020710020F1E770B504460D4685
:10477000A068006806682079012807D132462946DA
:104780002046FFF7F5FE012808D170BD32462946C4
:104790002046FFF7C7FE012800D1F6E70020F4E726
:1047A00070B504460D46A0680068066820790128A7
:1047B00007D1324629462046FFF77AFE012808D164
:1047C00070BD324629462046FFF744FE012800D13D
:1047D000F6E70020F4E770B504460D46164632466B
:1047E0002946204600F01EF8012800D170BD0020A7
:1047F000FCE7FFB581B00D4616461F46002400BFFA
:104800000CE03A192819C1B20123019800F029FEE1
:10481000002802D0012005B0F0BD641CB442F0DBDA
:104820000020F8E737B504460D4602AB01222946C1
:104830002046FFF7DEFF012800D13EBD0020FCE747
:1048400010B504460121204600F092FB002801D05B
:10485000012010BD0020FCE738B504460020009080
:104860006946204600F035F9012800D138BD20788E
:1048700069460978884201D00120F7E70020F5E772
:1048800010B504460021204600F072FB002801D03C
:10489000012010BD0020FCE738B505460C466B46EC
:1048A00001222721284600F00EFA002801D001201D
:1048B00038BD68460078C007C00F20706846007891
:1048C00002210840401060706846007810210840BE
:1048D0000011A07068460078202108404011E07067
:1048E0000020E5E770B505460C46234601220F215E
:1048F000284600F0E8F9002801D0012070BD002012
:10490000FCE7000038B505460C466946284600F02D
:1049100031F8012800D138BD68460078202811D030
:1049200004DC002807D0102815D107E030280CD06F
:10493000402810D10CE00020206010E07F20C0054E
:1049400020600CE00748206009E00748206006E08E
:104950000648206003E0064820600120DBE700BF36
:104960000020D8E70000E040000048410000C841B6
:10497000000080BF38B505460C466B460122202159
:10498000284600F0A0F9002801D0012038BD684673
:1049900000787021084020700020F7E7F8B5054640
:1049A0000C46002000906946284600F00FF80128C8
:1049B00000D1F8BD0098FBF781FD06460249FBF7E0
:1049C0008DFC20600020F4E70000C84238B50546A1
:1049D0000C466946284600F00FF8002801D0012057
:1049E00038BD6422009951430846C917090D0918BA
:1049F000091321600020F3E7F8B507460E460025AD
:104A00006B4603222821384600F05DF9002801D0CA
:104A10000120F8BD002406E06846005DE100884002
:104A20000543601CC4B2032CF6DB0120C0052840FE
:104A3000002802D0FF200006054335600020E8E78B
:104A4000F8B506460C466B4602222B21304600F094
:104A50003AF9002801D00120F8BD684640780102EB
:104A600068460078081885B228B220800020F3E755
:104A7000F8B505460C46002000906946284600F02F
:104A800011F8012800D1F8BD69460020085EFBF747
:104A900015FD06460249FBF721FC20600020F2E7E5
:104AA0000000204138B505460C4669462846FFF708
:104AB000C7FF002801D0012038BD30216A46002000
:104AC000105EFBF72BFBFF30AA3000B220800020E5
:104AD000F2E770B504460D4629462046FFF702FF6F
:104AE000012800D170BD0020FCE710B50446204627
:104AF000FFF7B2FE012800D110BD2046FFF7C0FE2F
:104B0000012800D1F8E70021204600F0B5F901287E
:104B100000D1F1E70121204600F07EF9012800D103
:104B2000EAE70421204600F049F9012800D1E3E733
:104B30000121204600F04CFA012800D1DCE70422D4
:104B40000121204600F0F8F8012800D1D4E7002028
:104B5000D2E710B504462046FFF77EFE10BD10B523
:104B60000446A068006800684078002805D1204607
:104B700000F056F8012800D110BD0020A168096896
:104B800009680870E07000BFF6E738B505460C46C6
:104B900069462846FFF780FE012800D138BD6846E7
:104BA000407820700020F9E770B504460D4629468C
:104BB0002046FFF7A7FE70BD70B504460D46294696
:104BC0002046FFF7EBFE70BD70B504460D46294642
:104BD0002046FFF77EFF70BD10B50446A068006850
:104BE00000684078002805D12046FFF77EFF0128A5
:104BF00000D110BD0120A168096809680870E07043
:104C00000020F6E770B504460D46164632462946A2
:104C1000204600F06DF8012800D170BD0020FCE7AF
:104C200010B504462079002800D110BDA0680068A6
:104C30000068C078002805D1204600F068F80128F7
:104C400000D1F2E70020A168096809688870207126
:104C500000BFEAE710B504462079012801D1002001
:104C600010BDA06800680068C078002805D1204603
:104C700000F057F8012800D1F2E70120A168096887
:104C80000968887020710020EAE770B504460D4677
:104C90002946204600F0F0F870BD70B504460D4678
:104CA0002946204600F008F970BD70B504460D464F
:104CB000164632462946204600F087FA012800D1E0
:104CC00070BD0020FCE7F8B507460D4614461E46A9
:104CD000012C01DD80200543234632462946384613
:104CE00000F0ACFB002801D00120F8BD0020FCE75B
:104CF00070B505460E461446234601223146284625
:104D0000FFF7E1FF012800D170BD0020FCE710B5DE
:104D100004462046FFF7B4FD012800D110BD002055
:104D2000FCE710B504462046FFF78AFD012800D1B4
:104D300010BD0020FCE70000F8B506460C461546FD
:104D4000002D05D0042D03D0082D01D00C2D00D14D
:104D500003E0A521184800F047FA002C05D0012CEB
:104D600003D0022C01D0032C00D103E0A62112486D
:104D700000F03AFA6B46012210213046FFF7A3FFFC
:104D8000002801D00120F8BD68460078010909011A
:104D900000916846017821430091007828430090F3
:104DA0006B4601221021304600F0FAF9002801D0AC
:104DB0000120E8E70020E6E7A066000838B50546D0
:104DC0000C46002C01D0042C00D104E0FF217731E7
:104DD000104800F009FA6B46012220212846FFF70F
:104DE00072FF002801D0012038BD684601780420F8
:104DF0008143009168460078204300906B46012271
:104E00002021284600F0CCF9002801D00120EBE752
:104E10000020E9E7A066000838B505460C46012CDD
:104E200001D0002C00D104E0FF21A131114800F095
:104E3000DBF96B46012220212846FFF744FF0028BA
:104E400001D0012038BD68460178082081430091D7
:104E5000E100684600780143C9B200916B46012227
:104E60002021284600F09CF9002801D00120E9E724
:104E70000020E7E7A066000870B506460D462B0047
:104E800000F011FC050406080A0C0E00102409E0CD
:104E9000302407E0402405E0402403E0402401E002
:104EA000012070BD00BF2146304600F02DF80128DA
:104EB00000D1F6E70020F4E770B505460C467F21E7
:104EC000C9052046FBF772FB01D810200EE00C4903
:104ED0002046FBF76BFB01D8202007E0094920465C
:104EE000FBF764FB01D8302000E040200646314645
:104EF000284600F009F8012800D170BD0020FCE729
:104F00000000E0400000484138B505460C46002C42
:104F100007D0102C05D0202C03D0302C01D0402CF1
:104F200000D104E0FF213131104800F05DF96B46FB
:104F3000012220212846FFF7C6FE002801D00120CB
:104F400038BD68460178702081430091684600783A
:104F5000204300906B4601222021284600F020F9D2
:104F6000002801D00120EBE70020E9E7A066000857
:104F700038B505460C46002C01D0012C00D104E0C8
:104F8000FF215C31114800F02FF96B4601222021EE
:104F90002846FFF798FE002801D0012038BD68465A
:104FA0000178802081430091E10168460078014347
:104FB000C9B200916B4601222021284600F0F0F88A
:104FC000002801D00120E9E70020E7E7A0660008FB
:104FD00038B505460C46002C01D0012C00D104E068
:104FE000FF21E331104800F0FFF86B460122202139
:104FF0002846FFF768FE002801D0012038BD68462A
:1050000000784108490000916846007820430090EC
:105010006B4601222021284600F0C2F8002801D06A
:105020000120EBE70020E9E7A066000810B5044680
:105030002046FFF711FC10BD10B50446A0680068BB
:1050400000680078002805D1204600F056F80128B5
:1050500000D110BD0020A168096809684870E0709F
:1050600000BFF6E738B505460C4669462846FFF707
:1050700013FC012800D138BD68460078207000205C
:10508000F9E770B504460D4629462046FFF73AFC7D
:1050900070BD70B504460D4629462046FFF7E8FC72
:1050A00070BD70B504460D4629462046FFF711FD38
:1050B00070BD10B50446A06800680068007800283C
:1050C00005D12046FFF711FD012800D110BD0120B8
:1050D000A168096809684870E0700020F6E770B5BB
:1050E00004460D461646324629462046FFF700FE86
:1050F000012800D170BD0020FCE710B504462079DE
:10510000002800D110BDA0680068006880780028E1
:1051100005D12046FFF7FBFD012800D1F2E7002072
:10512000A16809680968C870207100BFEAE710B576
:1051300004462079012801D1002010BDA068006834
:1051400000688078002805D12046FFF7EAFD012895
:1051500000D1F2E70120A16809680968C8702071D0
:105160000020EAE770B504460D4629462046FFF7C1
:1051700083FE70BD70B504460D4629462046FFF7F4
:105180009BFE70BD70B504460D4616463246294654
:10519000204600F01AF8012800D170BD0020FCE77D
:1051A000F8B507460D4614461E46012C01DD802049
:1051B0000543234632462946384600F052F9002876
:1051C00001D00120F8BD0020FCE737B504460D46AC
:1051D00002AB012229462046FFF7E2FF012800D159
:1051E0003EBD0020FCE7000004460D462A4621464D
:1051F00002A000F031FA00BFFEE7000057726F6EA8
:105200006720706172616D657465727320746D7072
:105210003A2066696C65202573206F6E206C696E7C
:10522000652025640D0A00007047000010B50028B5
:1052300019DA1A4A03071B0F083B9B089B00D25838
:105240008307DC0EFF23A3409A438B071B0E8407C2
:10525000E40EA3401A43114B0407240F083CA40892
:10526000A4001A5118E00E4A03231B02D218830827
:105270009B00D2588307DC0EFF23A3409A438B0781
:105280001B0E8407E40EA3401A43054B032424029B
:105290001B198408A4001A5110BD00001CED00E089
:1052A00000E100E070B504460D4616463246294638
:1052B0002046FAF747FF70BD70B504460D46164606
:1052C000324629462046FAF75AFF70BD7047000063
:1052D00038B504460C480088401C84420AD100219D
:1052E0000091684600F064F969460020085E00F00D
:1052F00047F900BF05480088002803D0034800880C
:1053000000F05BFD38BD0000180000200E000020FA
:10531000FFB581B004460E461D460027FCF712F883
:105320000746039800283FD133E0681C002830D09E
:10533000002D04D0FCF706F8C01BA84229D920682C
:105340004068E02188432168486020680068402167
:1053500088432168086001214903A06A88420DD171
:1053600000BF2068006888432168086020680068E2
:105370000121490308432168086000BF0121512031
:10538000015500BF00215020015500BF032005B08A
:10539000F0BD206880683040B04201D1012000E0BB
:1053A00000200028C1D03DE032E0681C00282FD04A
:1053B000002D04D0FBF7C6FFC01BA84228D92068E7
:1053C0004068E021884321684860206800684021E7
:1053D00088432168086001214903A06A88420DD1F1
:1053E00000BF206800688843216808602068006862
:1053F0000121490308432168086000BF01215120B1
:10540000015500BF00215020015500BF0320BEE719
:10541000206880683040B04201D1012000E00020C7
:105420000028C2D10020B2E7704710B5FDF7E0FFB9
:10543000002801D0012010BD0020FCE7FFB581B09D
:1054400004460D4616462746787832462946049B80
:10545000FEF736F8002802D0012005B0F0BD00208C
:10546000FBE7FFB581B004460D461646274678781F
:1054700032462946049BFEF747F8002802D0012057
:1054800005B0F0BD0020FBE710B5FCF76DF903484F
:105490000068401C0149086010BD000000000020A9
:1054A00000B593B01A48806B0121090708431849D9
:1054B0008863184800680321C90288430121C90292
:1054C0004018144908600220009001200390102029
:1054D000049002200A9000210B9141040C91410597
:1054E0000D916846FCF706FB01200E9003200F90FB
:1054F000002010901190129001210EA8FCF782F963
:105500000348406B012108430149486313B000BDC3
:10551000001002400070004015480068FF21013172
:105520000843134908600846C068124908401049FA
:10553000C86008460068104908400D4908600846E0
:10554000806840084000886008460068012189049E
:105550008843074908600846C068FD21090488435C
:105560000349C86000200861C80304498860704787
:10557000001002400C40FF88F6FFF6FE00ED00E050
:1055800011B581B001A802230022009006480188CD
:105590000648008800F050FC0446002C01D047204B
:1055A0001CBD0020FCE700001800002016000020B1
:1055B000F0B585B004460020039003A911480068A7
:1055C000FBF75CFC00281AD16846007B012816D145
:1055D00002A90C480068FBF7EFFB0B490298FAF7A9
:1055E00040FE0746FAF7CEFF0022084B01910090DB
:1055F000FAF7B2FE0546FAF7A1FF00B2208005B027
:10560000F0BD000020000020000020410000E03F2D
:1056100070B50446FBF72EFD2168401A451C6068F2
:10562000A84201D2012070BD0020FCE770B50446FD
:105630000D466560FBF71EFD206070BD10B5054886
:105640000078002804D000F0AFFF00200149087066
:1056500010BD00000C0000200FB410B503A9044BCE
:10566000044A029800F042F810BC08BC04B0184785
:10567000AD5F0008340200202021020C01D010216F
:105680001046020A01D010460839020901D010461E
:10569000091F820801D01046891E420801D0881EC9
:1056A0007047081A704730B47446641E2578641C2D
:1056B000AB4204D3635D5B00E31830BC18471D4662
:1056C000F8E7EFF31080704702E008C8121F08C126
:1056D000002AFAD170477047002001E001C1121F73
:1056E000002AFBD1704780F310887047FFB58DB05A
:1056F0000F460546002606E025280AD0109A0F9985
:1057000090476D1C761C28780028F5D1304611B0E2
:10571000F0BD00240121674A009400E004436D1CA1
:105720002B780846203B98401042F7D128782E2845
:1057300015D10420044368786D1C2A280AD101CFB2
:105740006D1C00900BE000990A225143303940183B
:105750006D1C00902878014630390929F3D9287842
:10576000692843D006DC0028D0D063280BD06428F9
:1057700004D13BE073280FD075284CD0109A0F99B4
:105780009047761C94E03878694608720020487289
:1057900002A80190012003E0386801900020C04376
:1057A0003F1D61070CD5002400E0641C00998C4269
:1057B0000FDA8442F9DB0199095D0029F5D108E08F
:1057C000002400E0641C8442FCDB0199095D00298F
:1057D000F8D1361907E0019801990078491C019128
:1057E000109A0F999047641EF5D261E00A2001904B
:1057F00001CF002802DA40422D2102E0210504D524
:105800002B216A461172012103E0E10701D020211A
:10581000F7E70C9104E00A20019001CF00210C91E0
:105820000BA90B9108E00199FAF762FC0A460B9963
:105830003032491E0B910A700028F4D10B9803A94D
:10584000081A20300190600701D5009801E001207E
:1058500000900199884203DD01460198081A00E092
:1058600000200024009006E002A8109A005D0F9925
:105870009047641C761C0C988442F5DB04E0109A77
:1058800030200F999047761C0099481E00900029FF
:10589000F5DC08E00B980B990078491C0B91109AE5
:1058A0000F999047761C0199481E01900029F1DC60
:1058B0006D1C28E709280100F0B589B004460D46A3
:1058C00016461F460294072200216846FFF7F4FCA3
:1058D0001822002103A8FFF7EFFC3F2168468181D1
:1058E0008A21C18102A80590012006906846079090
:1058F00007200890002103A800F03CFC002802DAF1
:10590000FF2009B0F0BD68460078002802D0684644
:105910000078F6E7684681784278080210432880CC
:1059200068460179C2780802104330806846817960
:1059300042790802104338800020E2E7F0B589B0D0
:1059400004460D4616461F46684604724572867226
:1059500007220021FFF7B0FC1822002103A8FFF75F
:10596000ABFC3F21684681818A21C18102A8059054
:10597000032006906846079007200890002103A89E
:1059800000F0F8FB002802DAFF2009B0F0BD6846FD
:105990000078002802D068460078F6E768468178EB
:1059A000427808021043388068460179C2780802BC
:1059B00010430E99088068468179427908021043A5
:1059C0000F9908800020E0E7F0B58FB004460D463F
:1059D00016461F46684604724572102231460A3048
:1059E000FFF760FC684687761499C17615990177B0
:1059F00007A901311698FAF7D2FB08A81799417048
:105A00001822002109A8FFF757FC3F21684681842E
:105A10008621C18402A80B901A200C9001A80D9039
:105A200001200E90002109A800F0A4FB002802DA52
:105A3000FF200FB0F0BD68460079002802D068460C
:105A40000079F6E70020F4E7FFB591B007461D9E08
:105A50001B9D0024A8190E30282802D9422015B019
:105A6000F0BD68460755601CC4B210A801891291A8
:105A700069460819022212A9FFF714FCA01CC4B23F
:105A800010A88189139169460819022213A9FFF70A
:105A900009FCA01CC4B2694614980855601CC4B225
:105AA0001A980855601CC4B268460555601CC4B2FB
:105AB00008192A461C99FFF7F5FB6019C4B268461D
:105AC0000655601CC4B26946081932461E99FFF794
:105AD000E9FBA019C4B210A8818F1F91694608196B
