:020000040800F2
:10000000700A0020D5000008194D0008D92D0008FD
:1000100000000000000000000000000000000000E0
:10002000000000000000000000000000E34E000897
:100030000000000000000000714D0008554F00084E
:10004000E7000008E7000008E7000008E7000008F4
:10005000E70000082F120008E70000083912000826
:10006000E7000008E7000008E7000008E7000008D4
:10007000E7000008E700000800000000E7000008B3
:1000800000000000E7000008000000000000000081
:10009000E700000800000000E7000008E700000893
:1000A000E7000008E7000008E7000008E700000894
:1000B000E7000008E7000008E7000008E700000884
:1000C0000348854600F046FB00480047E55F00080E
:1000D000700A00200448804704480047FEE7FEE716
:1000E000FEE7FEE7FEE7FEE7CD4F0008C10000088F
:1000F00030B50B46014600202022012409E00D46C0
:10010000D5409D4205D31D469540491B2546954047
:1001100040191546521E002DF1DC30BD70B500248B
:100120002546002801DA01244042002901DA012590
:100130004942FFF7DDFFAC4200D04042002C00D026
:10014000494270BD10B503461C460C43A40703D0BA
:1001500009E010C9121F10C3042AFAD203E00C7878
:100160001C70491C5B1C521EF9D210BDD2B201E0BA
:100170000270401C491EFBD270470022F6E710B502
:1001800013460A4604461946FFF7F0FF204610BD05
:10019000421C0178401C0029FBD1801A704703469D
:1001A00003220870000A491C521EFAD518467047EF
:1001B000F8B502464A40D40F42004B0052085B0893
:1001C0009A4202D20246084611464A0023D0C30D85
:1001D0004A00DDB2120EAD1A202D35DA4902012691
:1001E000490AF6058A19002C00D0524220214F1BE3
:1001F0001146B9402A411018C20D9A4221D0002C54
:1002000017D0012D08DCDA05801AD20F8019D20729
:10021000DBB200F007FAF8BDDA05801A01234000CE
:100220001B06C01880185A428018CA0F1043490094
:1002300007E04908C2071143DA05801A801940080F
:10024000801800F0E7F9F8BD61000122511A001B87
:10025000F7E70122D2075140AAE70122D207504016
:10026000A6E7024670B54A40D30FDB0740002DD009
:100270004A002AD0010E140E000212020919400A87
:10028000520A8418E50104465443000A120A2E0457
:100290005043A4194219200CC543AA18120C012579
:1002A000AD03521C521912047F39240400D0521C91
:1002B000104301D44000491EC2B20C06C0092018E8
:1002C000401C4008802A02D003E0002070BD400896
:1002D0004000002900DA0020184370BD70B50246C6
:1002E0004A40D50F40004A00ED0740085208002858
:1002F00014D0002A12D0C40DD30D41020120C00534
:100300005202490A520AE41A091812187D3491421D
:1003100001D3641C00E04900002C01DA002070BD0C
:100320000023914201D3891A034340084900002861
:10033000F7D100290AD0914202D10121C90705E075
:10034000914201D2012101E00121C943E005C01819
:10035000401900F05FF970BDF0B5074608465840F7
:1003600087B0C00F049048000E4659004008490865
:10037000BC1A884105D2384631461E4617460B4600
:1003800002465800400810434CD0300D0390400501
:100390005900400D490D0590401A0290402872DA2C
:1003A00018030121000B09050843019004980092ED
:1003B000002805D001995242002088410092019006
:1003C000029840210A1A0199009800F0EFF80546BA
:1003D0000C466B4607CB00F00AF9C0197141039A2D
:1003E0000E0D0023D71756401A467A40164344D0C4
:1003F000049A002A2DD0029A012A039A15DC1205CC
:10040000C01A914101263605001C7141D20F059E8C
:10041000D2070093019202962A46234600F048F93B
:1004200007B0F0BD38463146FAE71605224A0F46B6
:10043000B218C01AB74101210905001C4F4100182C
:100440007F41114618187941E20F10436D1964413C
:1004500013E0E2076D0815436408C2071443039ACA
:1004600001261205C01A91413605001C7141CE07C4
:10047000400830434908C01851412A46234600F03D
:100480000AF9CDE7FFE7049801224000C117121ACC
:1004900000238B4104983146C417381AA141EEE776
:1004A00030B40124E407634030BC55E730B4012484
:1004B000E407614030BC4FE70000E0FFC217C10F06
:1004C000504010B54018CA079623002100F0AAF842
:1004D00010BD10B500229623114600F0A3F810BD00
:1004E000C20F410040020123400ADB05D207090E7A
:1004F000C0187F2901DA00207047962903DC962373
:10050000591AC84001E096398840002AF4D0404288
:100510007047410040020122400AD205090E8018AE
:100520007F2901DA00207047962903DC9622511AB0
:10053000C8407047963988407047000070B5CD0FAD
:100540004A0009030123090B1B0519430B4BED0757
:100550000024520D9A4201DA002070BD074B34335B
:100560009A4203DC9A1A00F031F802E0044951186B
:1005700088402C43F1D0404270BD0000FF030000D2
:10058000CDFBFFFFC20FD207400040080BD0C10DCA
:100590000723DB01C91840020905400A1143C208BC
:1005A00040071143704700200146704710B5202ACC
:1005B00004DB0146203A9140002010BD91402023E9
:1005C0009C1A0346E3401943904010BD10B5202A01
:1005D00004DB0846203AD040002110BD0B46D34032
:1005E000D0402024A21A91400843194610BD10B5EE
:1005F000202A06DBCB170846203A1041C1170B43CF
:1006000006E00B461341D0402024A21A9140084333
:10061000194610BD002904DA401C490001D14008E8
:100620004000704770B40024050C05D1102400046C
:1006300002D1002921D01124050E01D10002083475
:10064000050F01D10001241D850F01D18000A41CDC
:10065000002801DB4000641C002908D020252E1B47
:100660000D46F540A14000D0012129430843010671
:100670001B1B000ADB1D02D5002070BC7047DB0588
:10068000181880180029F8DA401C4900F5D170BC10
:1006900040084000704710B5002B08DA0024401CC9
:1006A000614192185B411A4301D14008400010BDDE
:1006B000F0B51FB482B005460C0003D0084604F024
:1006C00023FD02E004F020FD203002460090214688
:1006D0002846FFF76BFF049B059A04460F46184314
:1006E0001143084314D0184610431BD000984021F2
:1006F0000A1A18460599FFF769FF05460E46009A43
:1007000005990498FFF752FF084305D0012004E043
:100710002046394607B0F0BD0020C11705430E43FF
:100720002C43374300990E986305401A7905E40A73
:1007300000220C43FD0A0A3002D500200146E9E7F9
:100740000105101969410C9C0D9D00196941FFF7C5
:10075000A2FFDFE7064C0125064E05E0E36807CC63
:100760002B430C3C98471034B442F7D3FFF7ACFC52
:10077000B8610008D861000870B58C180578401C75
:100780006B075B0F01D10378401C2A1106D1027858
:10079000401C03E006780E70401C491C5B1EF9D11A
:1007A0002B0705D40023521E0DD40B70491CFAE709
:1007B0000378401CCB1A921C03E01D780D70491C75
:1007C0005B1C521EF9D5A142D8D3002070BD000099
:1007D0000EB50D4968460A880271121242718A8864
:1007E00082711212C271098901720912417201A843
:1007F00000900648062301890022C08804F0F0FF1B
:10080000002800D047200EBD180200200C00002058
:10081000F0B58BB01B2168460176C5214176D52104
:100820008176A526C6760225057700244477B42173
:1008300081779A21C177E12108A8017011214170C7
:100840003A218170CF27C770802101716E214171DB
:10085000362181710121C1711E480A46009007238B
:1008600006A9022004F03EFF002830D11B21684673
:100870000176C5214176D5218176C6760577447704
:10088000B42181779A21C177E12108A80170112153
:1008900041703A218170C770802101716E214171D0
:1008A000362181710321C1710A481021801C042264
:1008B0000095029203910590049401940838062350
:1008C00006AA0221C08804F047FE002800D0472075
:1008D0000BB0F0BD12000020F0B591B01B2508A8A8
:1008E0000571C5244471D5218171A521C1710221F1
:1008F000017200214172B42181729A26C672E127E9
:100900000773112141733A218173CF21C173802173
:1009100001746E214174362181740421C1746048D0
:1009200000900A23012209A9022004F0DBFE00281E
:100930007ED108A80571C5214171D5218171A521FC
:10094000C1710221017200244472B42181729A2182
:10095000C172E1210173112141733A218173CF21C9
:10096000C173802101746E21417436218174052187
:10097000C1744B481021801C05900220039104276C
:1009800004946E4691C603460146454809AA0A38B2
:10099000408904F0E1FD00287ED10E2108A80175F0
:1009A000611E41753F496846C18608A804764476B1
:1009B000210A81763C4968468187102110A806915A
:1009C00008900121059407940DAA072001AB04911A
:1009D00015C3334E00900A3E0A460FABB1897089A9
:1009E00004F012FE002857D108A80571C5214171F5
:1009F000D5218171A521C171022101724472B422F5
:100A000082729A22C272E1220273112242733A2246
:100A10008273CF22C273802202746E224274362205
:100A200082740725C57432460E321020049400E00B
:100A300032E005920091022302970194039009AAE3
:100A40001946708904F088FD002825D10E2108A8D8
:100A50000175611E4175272109026846C18608A8F3
:100A600004764476210A81760F496846818710A86A
:100A70001021089006910120059407940DA9019575
:100A8000009503940291049002460FABF18970899E
:100A900004F0BAFD002800D0472011B0F0BD0000DE
:100AA000160000202F27000004290000F0B58BB0AD
:100AB0001B2568460576C5264676D5218176A52173
:100AC000C1760221017700244477B42181779A21ED
:100AD000C177E12108A80170112141703A27877080
:100AE000CF21C170802101716E2141713621817148
:100AF0000B21C1711F4800900723012206A9022083
:100B000004F0F0FD002831D1684605764676D521FF
:100B10008176A521C176022101774477B4218177BE
:100B20009A21C177E12108A80170112141708770D5
:100B3000CF21C170802101716E21417136218171F7
:100B40000C21C1710B4A0121921C102003AB0291B0
:100B500007C30E200090074801941038042306AA0A
:100B60000221008A04F0F8FC002800D047200BB0D6
:100B7000F0BD00001C00002010B5094B5C8A641C0D
:100B8000A04208D1012906D110789870002803D01E
:100B9000002000F077F910BD002000F063F910BDCF
:100BA0000C00002010B50D480B490160FF210531F4
:100BB000416000218160C1600161012241615202F6
:100BC0000162826141620722C2620822C2618162BF
:100BD00001F0E4F910BD0000003001406002002087
:100BE00010B500F0A7FC10BD70B5174C0646E078B4
:100BF000012820D004F076F901281CD0BC202070F8
:100C0000BE2060700025A570E5702571012060711F
:100C10000E4823460E49083323C30E4A011F0A60BB
:100C200022C03460E16820460968002904D0884762
:100C3000012807D0002070BD1421FFF79EFA012083
:100C4000356070BD3068F7E7B00500206400002013
:100C50007C000020E400002070B5184C0646E078C7
:100C6000012821D004F03EF901281DD0BC202070BD
:100C7000BE2060700025A570E570257101206071AF
:100C80002046234650300E49083323C30E490D4AEF
:100C90000A6022C03460E16820460968002904D057
:100CA0008847012807D0002070BD1421FFF765FA9E
:100CB0000120356070BD3068F7E70000C4050020F2
:100CC000B0000020E40000206C00002010B50028D7
:100CD0000AD0C268002907D09269002A04D0904740
:100CE000012800D0002010BD012010BD10B5002249
:100CF00008460A60FFF778FF012800D0002010BDE9
:100D0000002805D0002903D0C07808700020704763
:100D10000120704710B50A480724816BE443012283
:100D200052059143816303210902064800F0B8FA95
:100D3000054800F064FC002800D10024204610BDC6
:100D400000100240000400502402002030B5194970
:100D500085B0174808600024084600F068FC0028A9
:100D600022D1032000020090122001900120029065
:100D7000032003900420049069460F4800F012FB02
:100D80000E48816B0122520511438163094803F02B
:100D900099FF0725ED43002805D10021054800F003
:100DA000CFFB002800D02C46204605B030BD000007
:100DB00000540040240200200004005000100240B3
:100DC0003EB500927D250A460724ED0001930146B9
:100DD000E44302950123044800F07EFC002800D182
:100DE000002420463EBD0000240200203EB50092B3
:100DF0007D25C0B20A460724ED0001930146E44375
:100E000002950123034800F0F1FC002800D10024E2
:100E100020463EBD24020020F0B50F4987B0CB6AC2
:100E200001221343CB62C96A0C4D1140440000916A
:100E3000295B0191002103910321094F0491029242
:100E40008600B85901A900F0ADFA295BB859002213
:100E500000F069FB07B0F0BD0010024046610008D9
:100E60002C00002010B5054A4100515A044A800068
:100E70001058002200F057FB10BD0000466100082A
:100E80002C00002010B5054A4100515A044A800048
:100E90001058012200F047FB10BD00004661000819
:100EA0002C00002070B51D4C0546E07F01282CD099
:100EB00004F018F8012828D0B1202077B8206077F6
:100EC0000320A07700262046E67720300670012117
:100ED000417001462831403841641149816411490B
:100EE000C16412481049016021463031CE618861E9
:100EF000084614382860C1680968002906D0884768
:100F0000012809D002F044FC002070BD1421FFF735
:100F100034F901202E6070BD2868F7E7E405002051
:100F200024010020580100209401002078000020B6
:100F3000F8B507461420294C78430019C0780E46AE
:100F4000012842D003F0CEFF01283ED020460121E7
:100F5000BD225030224B0025012F03D0022F14D088
:100F600030682AE02275BA226275A175E57525768A
:100F700061761A491C3458312AC41B49194A0A603F
:100F8000C56081601548143016E0144F30342037A6
:100F90003A72B8227A720222BA72FD723D73797384
:100FA000394640312AC40F4A0F49121D091D0A60F3
:100FB00045610161384608303060C1680968002920
:100FC00004D08847012807D00020F8BD1421FFF77E
:100FD000D4F801203560F8BD3068F7E7C40500207B
:100FE000E80000201C0100207000002010B500283F
:100FF0000AD0C268002907D09269002A04D090471D
:10100000012800D0002010BD012010BD10B50C46F5
:101010000021216000281AD0012813D002281AD0FC
:10102000032820461AD0FFF73DFF01281AD1214698
:101030000220FFF77DFF012814D12046FFF70CFEA8
:1010400001280FD121460120FFF772FF08E020465A
:10105000FFF702FE04E021460220F5E7FFF722FF3A
:10106000012800D0002010BD002805D0002903D0A1
:10107000C0780870002070470120704710B5002824
:1010800008D0C1688968002904D08847012800D0A9
:10109000002010BD012010BD10B505200121000762
:1010A00000F03CFA012800D0002010BD70B5FF24EC
:1010B000052501342D0700222146284600F033FA89
:1010C000052000F0E1F801222146284600F02BFA25
:1010D000052000F0D9F870BDF7B588B0FF2168464B
:1010E000017320A003C8059016460025069105202F
:1010F0002A460221000700F016FA0F27052301AA4D
:1011000005A90097089801F01DF8684600790228A3
:1011100018D16846017AC0790C02044312D0B44257
:101120000ED934460CE0012304AA03A900970898BD
:1011300001F008F86846017C099841556D1CEDB234
:10114000A542F0D3052001220221000700F0EBF9AF
:101150000020009000BF401C00900228FADB2846C7
:101160000BB0F0BD0B00000000000000FFB524A193
:10117000C5B003C94E9E0491039023A103C90190F9
:101180001F4600240291052000F0E0FB052000220C
:101190000221000700F0C7F90F25052301AA03A9C2
:1011A0000095459800F0CEFF6846007902280CD0E3
:1011B000641E052001220221000700F0B4F9052079
:1011C00000F0CEFB204649B0F0BD68464079B91921
:1011D000884212D3002F06D000953B4605AA4699B7
:1011E000459800F0AFFF002EE3D0334605AA0095E6
:1011F0004799459800F0A6FFDBE70124E443D8E7D0
:101200000A00000000000000AA000000000000002A
:1012100001490120486170470004014010B500F009
:1012200089F910BD10B5052000F090FB10BD10B578
:10123000012000F0ABF810BD10B50120400300F014
:10124000A5F802490120087010BD00000000002030
:1012500010B5052000F084FB10BD000004480122F9
:10126000426181800520401E0028FCDC70470000A0
:101270000C000020034800214161012202704170EE
:10128000704700000C00002031B500F053F904460F
:1012900000F050F90099001B8842F9D338BD0000D6
:1012A000F0B500235DE001229A4014460A4057D071
:1012B00006685F000325BD40AE43AC460660DD080E
:1012C000AD002D182E6AAE465D07EF0E0F25BD400E
:1012D000AE4375462E6286686546AE4386604568B5
:1012E000A5434560C4686546AC43C4609D081F4C77
:1012F000AD002D19AF689C07260F0F24B440A446FB
:101300003C4005273F07B84201D1002714E0184FA1
:10131000B84201D101270FE0164FB84201D1022790
:101320000AE0154FB84201D1032705E0134FB84238
:1013300001D1052700E00627B740A74210D1AE68CB
:101340006446A643AE600E4C2568954325606568EB
:1013500095436560A5689543A560E5689543E5609C
:101360005B1C0A46DA409ED1F0BD0000000001403F
:101370000004005000080050000C0050001C0050F9
:101380000004014010B501F0ADF810BD10B50449DE
:101390004A69024202D04861FFF7F4FF10BD000025
:1013A00000040140F8B500230124A2E027469F4035
:1013B0003A4070D04D68022D01D0122D14D1DD08B5
:1013C000AD002D1800952D6A5E07AC46F50E0F2670
:1013D000AE46AE406546B543AC460E697546AE4076
:1013E00065462E43009D2E624D68012D05D0022DCD
:1013F00003D0112D01D0122D16D185680326AC46DD
:101400005D00AE46AE406546B543AC46CE68754617
:10141000AE4065462E43866046680D79BE43ED06B4
:10142000ED0F9D403543456006685F000325BD40D4
:10143000AE46AE430D79B446AE07B60FBE40654624
:101440002E430660C6687546AE438D68BD40354381
:10145000C5604D68ED004BD5294D6E6B26436E631C
:101460009E08284DB6007519AC46AD689E07360F2C
:101470000F27B740BD4305273F07B84201D10027DA
:1014800015E0214FB84201D1012710E01F4FB842AB
:1014900002D102270BE02BE01D4FB84201D10327F8
:1014A00005E01C4FB84201D1052700E00627B740F0
:1014B0002F436546AF60184D2E684F689643FF0373
:1014C00000D516432E606E684F689643BF0300D563
:1014D00016436E60AE684F689643FF0200D5164310
:1014E000AE60EE684F689643BF0200D51643EE60CB
:1014F0005B1C0A681546DD4000D057E7F8BD0000C8
:10150000001002400000014000040050000800509C
:10151000000C0050001C005000040140006908400D
:1015200000D001207047002A01D08161704781629C
:101530007047000001480068704700004400002028
:1015400070B502462032537D022B27D0537D122BDB
:1015500024D0537D222B21D0537D322B1ED0537D9E
:10156000422B1BD0137D012B18D0012313750224AD
:101570005475046825689D432560046825681E032A
:10158000B5432560046825680D432560006801683F
:101590001943016053750020107570BD022070BDA5
:1015A00070B502462032537D022B26D0537D122B7C
:1015B00023D0537D222B20D0537D322B1DD0537D41
:1015C000422B1AD0137D012B17D00123137502244F
:1015D0005475046825689D43256005682C680F26AE
:1015E0003602B443090221432960006801681943A7
:1015F000016053750020107570BD022070BD70B57C
:10160000040012D002212046203005464175206892
:101610000168490849000160204600F06BF900218B
:10162000A16369752975084670BD012070BD203021
:10163000407D704770B5040006D025462035687D92
:101640000026002802D005E0012070BD2E7520463E
:1016500000F051F9022068752068016849084900C6
:1016600001600F21606809068843216808612068CD
:1016700082680121C9038A438260A068002807D0DC
:10168000E268012A01D0212189020843216888608B
:10169000E068022802D12168800248602068416821
:1016A0000C4A11434160616920690843A16909023C
:1016B00008432168C860216AE0690843216808601E
:1016C0002068026801210A430260A6636975002050
:1016D00070BD000000800002FFB5064681B00546DF
:1016E0002036707D0B9C01287CD10A98002869D097
:1016F000002C67D028688069C043000472D5307D13
:1017000001286FD001203075622070750020A86319
:101710000C9800902846029901F022FC002808D07D
:10172000A86B042802D00020307542E000203075FC
:1017300048E009208002FF2C09D9012300901B06F4
:10174000FF222846029901F06FFCFF2708E00123E1
:101750000090E2B25B062846029901F065FC27463C
:101760000022042128460C9B01F070FC002820D1A7
:101770002868406A0A99641E08700A98A4B2401C3E
:101780000A907F1E0BD0002CEAD11921284601F0C7
:1017900095FC002818D0A86B042813D009E0002C71
:1017A000F3D00022802128460C9B01F04FFC00283A
:1017B00002D0032005B0F0BDFF2C01D90020BCE70A
:1017C0000020C4E70120F5E729682020C8612868C7
:1017D0004168054A11404160012070750020307554
:1017E000E8E7FFE70220E5E700E800FEFFB5064670
:1017F00081B005462036707D0B9C012875D10A9872
:10180000002870D0002C6ED028688069C043000486
:101810006BD5307D012868D001203075522070755D
:101820000020A8630C9800902846029901F0CAFB9A
:10183000002855D0A86B042802D0002030754CE059
:10184000002030754FE00020012300901B06FF228E
:101850002846029901F0E8FBFF2709E00020012358
:101860000090E2B25B062846029901F0DDFB2746B4
:1018700028460C9901F04AFC002803D0A86B0428E4
:1018800031D02AE00A982968007888620A98641E94
:10189000401CA4B20A907F1E15D0002CE8D119215B
:1018A000284601F00BFC0028E8D129682020C861F7
:1018B000286841680E4A114041600120707500207F
:1018C000307505B0F0BD002CE9D0002280212846FB
:1018D0000C9B01F0BBFB002802D00320F1E704E0E1
:1018E000FF2CBBD9AFE70120EBE70220E9E70000BE
:1018F00000E800FE7047704702480168491C01601B
:10190000704700004400002010B50648016802221C
:1019100091430160032000F007F800F016F8002062
:1019200010BD00000020024010B5044600F0CCF8C5
:101930007D21C900FEF7DCFB00F060FD002221469E
:10194000501E00F017F8002010BD7047C106C90EE8
:1019500001208840014908607047000080E100E0F4
:10196000C106C90E01208840014908607047000087
:1019700000E100E010B503F0D1F910BDF8B505465F
:101980004E480E460068C007C00FB0420AD24B480E
:10199000016849084900314301600068C007C00F71
:1019A000B0426FD12878464C800705D5E068F02119
:1019B0008843A9680843E0602878C00752D0686867
:1019C000022817D0002818D02168032818D049070A
:1019D000002957DAE168890889000143E160FFF7CF
:1019E000A9FD69680746022912D003291CD00029E5
:1019F00026D032E021688903EAE721688905E7E714
:101A00008901E5E7FFF796FDC11B2E48814222D8E8
:101A1000E0680007800F0228F4D123E0FFF78AFD79
:101A2000C11B2848814216D8E0680007800F0328B0
:101A3000F4D117E0FFF77EFDC11B224881420AD88E
:101A4000E0680007800FF5D10CE0FFF773FDC11BC4
:101A50001C48814201D90320F8BDE0680007800FCF
:101A60000128F2D115480168C907C90FB1420BD34B
:101A7000016849084900314301600068C007C00F90
:101A8000B04201D00120F8BD2878400706D5E068B3
:101A9000072109028843E9680843E06028780007C5
:101AA00007D5E0680721C90288432969C9000843AE
:101AB000E0600320FFF738FF0020F8BD002002405F
:101AC000001002408813000010B500F011F805491D
:101AD000C968054A0906090F515CC84003490860F6
:101AE00010BD0000001002406361000840000020AB
:101AF00010B51A4A5068D3680004410F0C20034007
:101B0000174805D0042B06D0082B0BD00C2B0BD07C
:101B1000491C884010BD1068C00601D5114810BD91
:101B2000114810BD114810BDD068D1688002104B1B
:101B3000000F185C0902D368890F01242404491C92
:101B4000234204D11268D20603D5064A02E0074AAE
:101B500000E0054A5043FEF7CBFA10BD00100240EA
:101B60000080000000093D000024F40000127A000B
:101B70005A610008FEB504460078FA4DC0074DD002
:101B8000E8680007800F022807D0E8680007800F88
:101B9000032809D1E868C00306D5286880033DD52D
:101BA0006068002875D039E0012062680004824234
:101BB00003D129680143296014E0052301211B0496
:101BC00089049A422A6805D182432A602A680A4316
:101BD0002A60EEE782432A602A6802400092286861
:101BE00088432860606800280CD0FFF7A3FC0646F5
:101BF00004E0FFF79FFC801B64287DD828688003E1
:101C0000F7D50BE0FFF796FC064604E0FFF792FCE1
:101C1000801B6428F1D828688003F7D420788007D7
:101C200040D5E8681F270007800F3F02012807D032
:101C3000E8680007800F032809D1E868C00306D4CC
:101C40002868400717D5E068012822D113E0E16831
:101C50000920002916D02A6882430A432A60FFF728
:101C600069FC064604E0FFF765FC801B0228C4D827
:101C700028684007F7D568682169B8430902084316
:101C800068600FE0296881432960FFF753FC06462E
:101C900005E096E0FFF74EFC801B0228ADD82868CF
:101CA0004007F7D42078B04FC0064BD5E86800074E
:101CB000800F09D0E0690028286835D038432860B3
:101CC000FFF738FC06461DE02868800502D5E0696C
:101CD000002876D06868072149038843616A084371
:101CE00068606868218C0002000A09060843686081
:101CF0000320FFF719FE25E0D9E0FFF71BFC801B4E
:101D0000022887D828688005F7D568680721490325
:101D10008843616A084368606868218C0002000A91
:101D20000906084368600DE0B8432860FFF702FC2D
:101D3000064604E0FFF7FEFB801B022897D82868C0
:101D40008005F7D42078894E000724D560690028E3
:101D5000306910D0012108433061FFF7EBFB0090A0
:101D600005E0FFF7E7FB0099401A022896D8306992
:101D70008007F6D50FE0400840003061FFF7DAFB3E
:101D8000009005E0FFF7D6FB0099401A022885D89D
:101D900030698007F6D42078800633D5A069744A6C
:101DA000002819D0A96801200143A960696B01438B
:101DB0006963106A6F4908431062FFF7BBFB00902C
:101DC00006E0E9E0FFF7B6FB0099401A02286ED85A
:101DD000A8688007F6D515E0A86840084000A8600C
:101DE000106A6449C94308401062FFF7A3FB0090E2
:101DF00005E0FFF79FFB0099401A022857D8A86812
:101E00008007F6D4207840076FD50020029001901B
:101E1000A86BC00006D4A86B012109070843A8637A
:101E20000120029054480068C00513D4524801684C
:101E30003943016001200190FFF77CFB009005E031
:101E4000FFF778FB0099401A642830D84A480068A8
:101E5000C005F5D5A068B84202D1306938430CE01E
:101E600001218902002803D00522120290420CD0E1
:101E70003069B8433061306988433061A068002818
:101E800016D0FFF757FB00900DE03069B843306182
:101E9000306908433061E0E7FFF74CFB0099411AD5
:101EA0003648814271D830698005F5D50EE06CE086
:101EB000FFF740FB009006E0FFF73CFB0099411A5A
:101EC0002E48814261D830698005F5D401980028F8
:101ED00003D029480168B94301600298002804D062
:101EE000A96B012000078143A963A06A002851D093
:101EF000E9680907890F03294ED001263606022812
:101F0000286805D0B0432860FFF714FB04463EE084
:101F1000B0432860FFF70EFB074604E0FFF70AFB1B
:101F2000C01B022831D828688001F7D4616B206B70
:101F3000EA680843E16AFD231B049A4311430843FE
:101F4000E860286830432860FFF7F4FA044604E0AC
:101F5000FFF7F0FA001B022817D828688001F7D590
:101F600018E0000000100240000100004010024094
:101F700000000140012000000070004088130000B4
:101F8000FFF7D8FA001B022801D90320FEBD2868FC
:101F90008001F5D40020FEBD0120FEBD70B5040017
:101FA00006D025464035687C0026002802D005E092
:101FB000012070BD2E74204600F032F802206874B3
:101FC00020680168402291430160A168606822692D
:101FD0000843E16811430843616901220843A1698C
:101FE000520211400843E1690843216A0843A16A8B
:101FF000084321680860A0690421000C0840616A58
:102000000843216848602168E06A08612068C16966
:1020100092009143C161666501206874002070BD23
:10202000F0B50068434987B088427DD14248C16A13
:1020300001242143C162C16A21400591C16A02267F
:102040003143C162C16A31400591C16A2143C16215
:10205000C16A21400591C16A2143C162C16A214020
:102060000591C16A2143C162C16A21400591C16ADB
:102070002143C162C16A21400591416B8214114321
:1020800041638715002505200194039569460007E3
:10209000009704950294FFF785F905200022394640
:1020A0000007FFF740FA08200327009001966946D1
:1020B0000397029604952148FFF774F94020009099
:1020C0000520029569460397019604950007FFF7DE
:1020D00069F98020009005200295694603970196D2
:1020E00004950007FFF75EF9052001946946000793
:1020F0000397009604950294FFF754F905200122F6
:1021000002210007FFF70FFA0D4801A90094A1C1B1
:102110000520694600070495FFF744F900220321D2
:102120000520FFF727FC00E002E00520FFF718FC80
:1021300007B0F0BD00300140001002400004005024
:1021400000001110F8B504460027684607802646AF
:102150004036707C012802D0707C22287ED1002974
:102160000CD0002A0AD0002B08D0307C012875D072
:1021700001203074707C012802D003E00120F8BDFA
:10218000322070746765A263A387E3872163A38607
:10219000E386A764E7640125A06A6D03A84207D11E
:1021A00020680168A9430160206801682943016033
:1021B00020680168490603D4016840221143016088
:1021C0000122FF20E168D20205309142616866D1A8
:1021D000002904D081420CD1E08E012809D1206B66
:1021E00021680088C860206B801C2063E08E401E40
:1021F000E086E08E002811D1A06AA84246D120686E
:10220000016801221203114301603FE02068C068A9
:10221000A16B0880A06B801CA063B0E000220221AB
:102220002046069B02F004FE00287DD1206B216829
:102230000088C860206B801C2063E08E401E000474
:10224000000CE08608D1A06AA84205D12068016888
:102250000122120311430160002200E0CCE00121C1
:102260002046069B02F0E4FD00287FD12068C0686C
:10227000A16B0880A06B801CA063E08F401EE087EC
:10228000E08E0028CAD1606800287BD1002201219D
:102290002046069B02F0CCFD002867D1B6E7002956
:1022A00004D081420BD1E08E012808D1206B411C63
:1022B000216321680078C860E08E401EE086E08ED1
:1022C000002815D1A06AA84205D120680168012222
:1022D000120311430160002201212046069B02F0F7
:1022E000A7FD002842D12068C068A16B087046E0B5
:1022F000002202212046069B02F09AFD002835D1DB
:10230000206B411C216301782068C160E08E401E73
:102310000004000CE0860AD1A06AA84207D1206818
:1023200001680122120300E020E011430160002255
:1023300001212046069B02F07BFD002816D1206873
:10234000C168A06B421CA2630170E08F401EE08751
:10235000E08E0028CCD16068002813D10022012132
:102360002046069B02F064FD002802D00320F8BD41
:1023700008E02068C168A06B421CA2630170E08F76
:10238000401EE087A06AA8420FD10022012120460A
:10239000069B02F04DFD002802D0606D02210EE088
:1023A0002068C0686946088008880122802120468C
:1023B000069B02F03DFD002804D0606D20210843FB
:1023C0006065D3E701207074A06AA84211D120682B
:1023D0008168C943C9060CD4616D0222114361654D
:1023E0000168A943016020680168294301603774CE
:1023F000C4E637740020BAE70220B8E7094910B5EF
:10240000401E884201D9012010BD074C60610321A4
:10241000081F02F083FC0020A0610720206100203B
:1024200010BD0000FFFFFF0000E000E010B5421CFF
:102430000078042816D11078052814D03E2815D02D
:10244000FF280FD1D0789178000208431649921CDA
:10245000401817D0132805D150791179000208438C
:1024600002F08EFC10BDFEF705FF10BD9178901CA8
:102470000129FAD1C278837811021943801DFEF731
:10248000EDFE10BD09489179007813790128507943
:1024900005D000021843D21DFEF76EFB10BD0002EE
:1024A00018430932F8E70000FFF3FFFF080000209F
:1024B00070B50A4803F0D8FB0848083003F0D4FB95
:1024C000074D00248C2060434119044803F0DBFBD6
:1024D000641CE4B2052CF5D370BD00004C00002054
:1024E000B802002008B50020009025E0164803F04F
:1024F000D6FB002802D0FEF78BFE08BD69461248C5
:1025000003F0D9FB0099802210480831FEF7E4FD62
:102510000106090E06D000988822115400F044F8F4
:10252000002804D00848009903F0A1FB04E0064805
:102530000099083003F0A7FBFEF76AFEFEF7ACFD3A
:102540000028D3D108BD00004C000020600200200C
:1025500008B500200090FEF765FE10E069460D48C2
:1025600003F0A9FBFEF774FE00980830FFF75EFF4A
:10257000FEF758FE07480099083803F084FB054829
:1025800003F08DFB0028E9D0FFF7ACFFFEF760FEFB
:1025900008BD00005400002010B5024803F07FFB86
:1025A00010BD0000540000200146027A0831042AC0
:1025B00001D0012070478030007A8978C01E8142A6
:1025C00001D0022070470020704738B504466B46A2
:1025D0000122202100F025FA00280CD16A4611784A
:1025E0008020014311706B4601222021204600F01B
:1025F0009BFB002800D0012038BD38B504460020E0
:1026000069460870204600F047F9012805D0694660
:1026100020780978884201D0012038BD002038BDDB
:1026200038B504466B460122202100F0FAF9002853
:102630000DD1684600786B464106490E6846017028
:1026400001222021204600F06FFB002800D001204D
:1026500038BD38B514460D466B460122272100F0DF
:10266000E0F9002801D0012038BD684600788007D5
:10267000C00F287068460078C007C00F2070002087
:1026800038BD10B50B4601220F2100F0CAF9002811
:1026900000D0012010BD0000F3B583B007466B46A3
:1026A0000222302100F0BDF9002824D168460078CC
:1026B0006B46450868464078022240080290362161
:1026C000384600F0AEF9002815D168460024045FB2
:1026D0006B4602223A21384600F0A3F900280AD1BD
:1026E00068460026865F6B4602222821384600F0A5
:1026F00098F9002802D0012005B0F0BD68460027F7
:10270000C75F2846FDF7DAFE0190301BFDF7D6FEC5
:1027100006460298401BFDF7D1FE0546381BFDF723
:10272000CDFE2946FDF79DFD3146FDF7D7FD019908
:10273000FDF73EFD0A49FDF794FD0A49884202DD96
:102740007D20C00008E0FF21C905C84201D3002058
:1027500002E0FDF7DEFE80B2049908800020CBE79E
:102760000000204100007A4438B50C46694600F06C
:102770001FF801280CD06846007800280BD00128EB
:1027800007D002280AD003280AD00648206001207A
:1027900038BD7F20C0052060002038BD0248FAE720
:1027A0000248F8E7000080BF0000E0400000484118
:1027B00038B50C466B460122202100F032F9002882
:1027C00001D0012038BD694608788007800F087065
:1027D0002070002038BD0000F3B585B007466B4679
:1027E0000222322100F01DF900282BD101AB012279
:1027F0003521384600F015F9002823D16A461179B1
:1028000012788807800D10430C2211406A465278D6
:1028100089011143C510C81003906B4604223C2166
:10282000384600F0FEF800280CD168460024022645
:10283000045F865F6B4602222A21384600F0F1F8D9
:10284000002802D0012007B0F0BD68460027C75F0E
:102850002846FDF733FE0290301BFDF72FFE06469B
:102860000398401BFDF72AFE0546381BFDF726FEA0
:102870002946FDF7F6FC3146FDF730FD0299FDF7DC
:1028800097FC0449FDF7EDFCFDF72AFE0699088048
:102890000020D8E70000204110B5FFF7F2FE012824
:1028A00000D0002010BD10B5FFF7A7FE10BD10B579
:1028B00004468068006800684078002804D12046FB
:1028C00000F056F8012805D0A168002009680968C1
:1028D0000870E07010BD1CB50C4601AA6946FFF7F0
:1028E000B8FE012806D068460078002803D00128E9
:1028F00001D001201CBD207000201CBD38B50D4644
:10290000002469460C80FFF7C7FE012808D06846FE
:102910000088FDF7DEFD0349FDF7E0FC2860204656
:1029200038BD00000000204110B5FFF71DFF10BDAD
:1029300010B5FFF7B1FF10BD10B504468068006800
:1029400000684078002804D1204600F051F80128A2
:1029500006D0A1680120096809680870E0700020AD
:1029600010BD10B500F06BF8012800D0002010BD9C
:1029700010B504460079002810D0A06800680068EF
:10298000C078002804D1204600F062F8012805D064
:10299000A1680020096809688870207110BD10B511
:1029A00004460079012806D0A06800680068C07855
:1029B000002802D006E0002010BD204600F04FF8AD
:1029C0000128F9D0A1680120096809688870207180
:1029D000F1E710B500F090F810BD10B500F0A0F8C8
:1029E00010BD10B500F0AEF9012800D0002010BDD8
:1029F00010B50446FFF701FE012811D02046FFF76D
:102A00000FFE01280CD00121204600F02FF80128EC
:102A100006D00021204600F06FF8012800D00020E9
:102A200010BD10B51C46012A01D980231943134655
:102A3000224602F05FFA002800D0012010BD10B538
:102A400013460122FFF7EDFF012800D0002010BD42
:102A500010B5FFF7E5FD012800D0002010BD10B52E
:102A6000FFF7B3FD012800D0002010BD38B50C469B
:102A70000546012905D0002C03D00E490EA000F018
:102A80006BF96B4601222021FFF7CBFF00280FD105
:102A900069460978FB200140A00008436946087098
:102AA0006B4601222021284600F03EF9002800D084
:102AB000012038BD630200002E2E5C2E2E5C2E2ECF
:102AC0005C2E2E5C2E2E5C2E2E5C44726976657216
:102AD000735C4253505C436F6D706F6E656E7473C0
:102AE0005C6874733232315C4854533232315F4423
:102AF00072697665722E630010B50B0002F01BFB45
:102B00000504060606060D00012100E0032100F081
:102B10001DF8012800D0002010BD012010BD0000CC
:102B20007F2210B5D205914201DC012105E0064A61
:102B3000914201DC022100E0032100F007F80128A6
:102B400000D0002010BD00000000E04038B50C00AF
:102B5000054609D0012C07D0022C05D0032C03D048
:102B60000D490EA000F0F8F86B4601222021FFF776
:102B700058FF00280DD1694608786B468008800010
:102B80002043087001222021284600F0CDF80028BB
:102B900000D0012038BD0000BA0200002E2E5C2EAD
:102BA0002E5C2E2E5C2E2E5C2E2E5C2E2E5C447205
:102BB00069766572735C4253505C436F6D706F6EE3
:102BC000656E74735C6874733232315C485453328E
:102BD00032315F4472697665722E630010B5FFF77B
:102BE0000CFD10BD10B504468068006800680078D0
:102BF000002804D1204600F057F8012805D0A1682C
:102C00000020096809684870E07010BD1CB50C46CA
:102C10006A4601A9FFF71DFD012806D06846007825
:102C2000002803D0012801D001201CBD2070002005
:102C30001CBD10B5FFF798FD10BD000038B50D465E
:102C4000002469460C80FFF7C7FD012808D06946BB
:102C5000085FFDF733FC0349FDF740FB2860204681
:102C600038BD00000000204110B5FFF715FE10BD73
:102C700010B504468068006800680078002804D118
:102C80002046FFF7B5FE012806D0A168012009689B
:102C900009684870E070002010BD10B5FFF7CFFE46
:102CA000012800D0002010BD10B50446007900288E
:102CB00010D0A068006800688078002804D1204601
:102CC000FFF7C6FE012805D0A16800200968096841
:102CD000C870207110BD10B504460079012806D0D7
:102CE000A068006800688078002802D006E0002014
:102CF00010BD2046FFF7B3FE0128F9D0A1680120DE
:102D000009680968C8702071F1E710B5FFF7F4FE93
:102D100010BD10B5FFF704FF10BD10B500F012F89C
:102D2000012800D0002010BD10B51C46012A01D991
:102D3000802319431346224602F0F4F8002800D0FD
:102D4000012010BD07B502AB0122FFF7EDFF0128FE
:102D500000D000200EBD00000A46014601A002F08E
:102D6000C3F9FEE757726F6E6720706172616D651F
:102D7000746572732076616C75653A2066696C655E
:102D8000202573206F6E206C696E652025640D0A06
:102D900000000000FEB507460D480E461C461546CD
:102DA0000A210068FDF7A4F9014601A802F080F9A4
:102DB000E4B2EBB23246394606480094FEF7D6F943
:102DC000002804D001A802F065F90028F1D0FEBD6A
:102DD0004061000860020020FEE7000001B582B0FB
:102DE00002A8009005480223C1890022408902F010
:102DF000F7FC002800D047200EBD00000C0000208A
:102E000010B50348FEF7FBFB00F004F810BD00000E
:102E10007405002010B50E48FEF709FC00280DD1FE
:102E20000B480C494160332181600121C1600A498E
:102E3000016000F013F80648FEF7FCFB0448FEF7BB
:102E4000F6FB012801D0012010BD002010BD0000BC
:102E5000740500202E11B1000054004010B5164C2E
:102E600086B0E16A02200143E162E16A0390014019
:102E700005910321090200200091029012210420F3
:102E80000191049069460D48FEF78CFAA16B012070
:102E900040050143A163A16A0143A162A16A814384
:102EA000A162002211461720FEF764FD1720FEF7ED
:102EB00057FD06B010BD0000001002400004005095
:102EC000F8B50E460446FEF735FB00902068816990
:102ED000C943C90640D425462035697D122905D04D
:102EE000697D522902D0697D622907D14168890133
:102EF00004D44168012292031143416001272068F4
:102F00008069C04380060FD5701CF8D0002E06D013
:102F1000FEF710FB01460098081AB042EFD96F7512
:102F2000002028750320F8BD21681020C8612168A1
:102F30002020C86120688169C943C90700D0C761E2
:102F400020684168054A114041600420A0636F7504
:102F5000002028750120F8BD0020F8BD00E800FE23
:102F6000F8B504460120164640031D46DAB200902B
:102F7000069F0023204600F057F83946204600F00F
:102F8000C5F8002803D0A06B042819D016E0284605
:102F9000F5B2012808D02168300A886239462046F7
:102FA00000F0B4F80028EED1206885623B4600228C
:102FB0004021204600F04AF8002800D00320F8BD48
:102FC0000120F8BDF8B504460120164640031D4611
:102FD000DAB2C3020090069F204600F025F8394679
:102FE000204600F093F8002803D0A06B042819D0E5
:102FF00016E02846F5B2012808D02168300A886218
:103000003946204600F082F80028EED1206885621B
:103010003B4600228021204600F018F8002800D00E
:103020000320F8BD0120F8BD70B50568049C6868F0
:103030008905890D1204044E114319433040214380
:103040000143696070BD0000009800FCF8B51C46A3
:1030500015460F460646FEF76DFA294635462035D9
:10306000009000290BD021E0601C08D0002C17D064
:10307000FEF760FA01460098081AA04210D830689E
:10308000816938468843C003EED115E0601C0DD03D
:10309000002C05D0FEF74EFA0099401AA04205D93F
:1030A00001206875002028750320F8BD306881690B
:1030B00038468843C003E9D00020F8BD70B50D46FE
:1030C0000446FEF737FA064619E029462046FFF780
:1030D000F7FE002801D0012070BD002D04D0FEF7BE
:1030E00029FA801BA8420AD9A06B20210843A063BB
:1030F00001202034607500202075032070BD2068F9
:103100008069C0438006E0D4002070BD70B50D46D4
:103110000446FEF70FFA06461BE029462046FFF755
:10312000CFFE002801D0012070BD681C11D0002DF9
:1031300004D0FEF7FFF9801BA8420AD9A06B20211A
:103140000843A0630120203460750020207503200F
:1031500070BD20688069C0438007DED4002070BD48
:10316000012210B5D243002801D0104610BD0B48F3
:10317000036808469843F8D1084A8900121D51583F
:10318000074889004058016810460C380068884795
:103190000028EBD00420C04310BD0000A401002093
:1031A00064060020012310B5DB43002801D0184637
:1031B00010BD0B4804680846A043F8D1084B8900AD
:1031C0001B1D59580748890040581146C3690448D7
:1031D0000838006898470028EAD00420C04310BD92
:1031E000A401002064060020F3B50646002089B043
:1031F000012405460790002E02D0801E0BB0F0BDC2
:103200000A9801F08DF8002802D00020C043F5E7AD
:1032100020492048091D09680068CA686946904726
:10322000002802D00620C043E8E76846007801285D
:1032300000D1022568464078012800D10543684640
:103240008078012801D10420054330460C214843F1
:10325000114900274018B60008900A98214681437A
:1032600012D12046A8430FD10A49A2000C31895837
:103270000898890040580168064880598847002806
:1032800002D00420C043B9E764007F1C032FE4D3BD
:103290000798B3E79C0100206406002038B5044677
:1032A000002069460870204600F016FA012805D073
:1032B000694620780978884201D0012038BD002075
:1032C00038BD70B51446054600F080F9012806D0D7
:1032D0002146284600F0D4F9012800D0002070BD16
:1032E0001CB50C46694600F0F9F8012803D0684681
:1032F0004078207000201CBD1CB50C46694600F0CB
:10330000EDF8012803D068460079207000201CBD2C
:103310001CB50C46694600F0E1F8012803D0684668
:103320008078207000201CBD38B50C46694600F03E
:10333000C2F8012803D0684600782070002038BD0C
:103340001CB50C46694600F0C9F8012803D0684650
:103350000078207000201CBD1CB50C46694600F0AA
:10336000BDF8012803D06846C078207000201CBD3D
:1033700010B500F0D6F8012800D0002010BD10B51F
:10338000002905D0012907D0022909D0012010BD4C
:10339000002100F05BFA06E0002100F072FA02E082
:1033A000002100F089FA0128F1D0002010BD10B5ED
:1033B000002905D0012907D0022909D0012010BD1C
:1033C000012100F043FA06E0012100F05AFA02E080
:1033D000012100F071FA0128F1D0002010BD10B5D4
:1033E00060290DD006DC00290AD0202908D0402908
:1033F00004D105E0802903D0E02901D0012010BDCF
:1034000000F075FA0128FAD0002010BD10B500F0C8
:10341000A3FA012800D0002010BD10B5002903D068
:10342000012901D0012010BD00F0B0FA0128FAD026
:10343000002010BD10B5002903D0012901D00120C2
:1034400010BD00F06EFA0128FAD0002010BD10B5B2
:10345000002903D0012901D0012010BD00F096FA07
:103460000128FAD0002010BD38B50C466B46012269
:10347000272100F06BF9002801D0012038BD6846F3
:103480000078C107C90F61700221084020706846AA
:1034900000788106C90FC006A170C00FE07000203F
:1034A00038BD10B50B4601220F2100F04FF900285E
:1034B00000D0012010BD38B50C466B460122142106
:1034C00000F044F9002801D0012038BD6946087891
:1034D0004009400108702070002038BD38B50C4606
:1034E0006B460122262100F031F9002801D001208D
:1034F00038BD684600780022C10921714106C90F14
:10350000E1708006800E01212070002803D06270D7
:10351000202804D000E06170A270002038BDA170A6
:10352000FBE710B50C460B460122142100F00EF902
:10353000002801D0012010BD2078C006C00E2070E8
:10354000002010BD38B50C46694600F02DF8012862
:1035500012D068460078302816D006DC00280ED03D
:1035600010280AD0202804D10CE040280ED0502882
:103570000ED008482060012038BD7F20C0052060A3
:10358000002038BD0448FAE70448F8E70448F6E7A5
:103590000448F4E7000080BF000020410000C8415B
:1035A000000048420000964238B50C466B460122A6
:1035B000102100F0CBF8002801D0012038BD68466A
:1035C0000078702108402070002038BD38B50C46C6
:1035D00000210091694600F00DF8012807D00098FD
:1035E000FCF76CFF0249FCF779FE2060002038BD33
:1035F0000000C84238B50C46694600F00EF80028B5
:1036000001D0012038BD009864214843C117090D3D
:10361000081800132060002038BD38B50D4600247E
:103620006B460322282100F091F8002801D00120E8
:1036300038BD002069460A5CC3009A40401C144310
:10364000C0B20328F7D3200202D5FF2000060443AE
:1036500000202C6038BD38B50C466B4602222B2169
:1036600000F074F8002801D0012038BD6846407889
:1036700001026846007808182080002038BD00004C
:1036800038B50C4600216A461180694600F010F8F2
:10369000012809D069460020085EFCF70FFF0349A6
:1036A000FCF71CFE2060002038BD00000000204117
:1036B00038B50C466946FFF7CEFF002801D001203F
:1036C00038BD69460020085E0A2148436421FCF7A2
:1036D00025FD2080002038BD10B5FFF7E2FE01284F
:1036E00000D0002010BD000070B50C460546FFF765
:1036F000D5FD012826D0144860600121284600F03D
:1037000039FA01281ED00021284600F018FA0128B5
:1037100018D00021284600F054F9012812D00021C9
:10372000284600F069F901280CD00221284600F053
:1037300070F8012806D00021284600F04FF8012833
:1037400000D0002070BD00000000C841FFB581B06E
:103750001E4615460F4600240CE03819C1B2321936
:103760000123019801F0C6FB002802D0012005B01A
:10377000F0BD641CAC42F0DB0020F8E710B5134646
:103780000122FFF7E3FF012800D0002010BD000058
:1037900000B5104887B0C16A01221143C162C06AF6
:1037A000694610400590102000900B4801900220BF
:1037B00003900020029005200007FDF7F3FD002292
:1037C00011460720FEF7D6F80720FEF7C9F80020BB
:1037D00007B000BD001002400000111038B50C46C3
:1037E00005466B4601221121FFF7B0FF00280ED1DC
:1037F00069460A78EF2002402001104308706B46AA
:1038000001221121284600F066FA002800D001208C
:1038100038BD38B50C4605466B4601221021FFF72E
:1038200095FF002801D0012038BD68460178FD20B1
:1038300001402143684601706B4601221021284651
:1038400000F049FA0028EFD0002038BD38B50C460A
:1038500005466B4601221221FFF778FF00280ED1A2
:1038600069460A78EF2002402001104308706B4639
:1038700001221221284600F02EFA002800D0012053
:1038800038BD38B50C4605466B4601221221FFF7BC
:103890005DFF00280ED169460A78DF2002406001F2
:1038A000104308706B4601221221284600F013FADB
:1038B000002800D0012038BD38B50C4605466B46BF
:1038C00001221221FFF742FF00280ED169460A7833
:1038D000F7200240E000104308706B4601221221DD
:1038E000284600F0F8F9002800D0012038BD38B58E
:1038F0000C4605466B4601221421FFF727FF0028DE
:103900000DD1694608786B46C006C00E204308708A
:1039100001221421284600F0DEF9002800D0012001
:1039200038BD38B50C4605466B4601221121FFF71C
:103930000DFF00280ED169460A78BF200240A00181
:10394000104308706B4601221121284600F0C3F98C
:10395000002800D0012038BD38B50C4605466B461E
:1039600001221421FFF7F2FE00280DD169460878E4
:103970006B4640094001204308700122142128466B
:1039800000F0A9F9002800D0012038BD38B50C4658
:1039900005466B4601221121FFF7D8FE00280ED103
:1039A00069460A78DF2002406001104308706B46C8
:1039B00001221121284600F08EF9002800D00120B4
:1039C00038BD38B50C4605466B4601221021FFF77D
:1039D000BDFE00280ED169460A78F7200240E000BB
:1039E000104308706B4601221021284600F073F93D
:1039F000002800D0012038BD38B50C4605466B467E
:103A000001221021FFF7A2FE00280ED1684601789E
:103A1000FB2001402143684601706B4601221021C2
:103A2000284600F058F9002800D0012038BD0000D9
:103A30007F20C005814209DD0648814206DD064837
:103A4000814203DD0548814200DD054850600020C9
:103A500070470000000020410000C84100004842BB
:103A60000000964270B505467F20C005144681428D
:103A700001DC10210FE00E48814201DC20210AE028
:103A80000C48814201DC302105E00B48814201DC19
:103A9000402100E05021284600F051F8012806D0CE
:103AA000211D2846FFF74EFD012800D0002070BDE3
:103AB000000020410000C8410000484200B50B0052
:103AC00001F039FB0504070B0D0F11007F20C00525
:103AD00000E006485060002000BD0548FAE70548B0
:103AE000F8E70548F6E7012000BD0000000020418E
:103AF0000000C841000048420000964270B51446DC
:103B000005460B0001F017FB050406080A0C190016
:103B1000102106E0202104E0302102E0402100E0F5
:103B2000502100F00CF8012806D0211D2846FFF78F
:103B300009FD012800D0002070BD012070BD38B5FE
:103B40000C4605466B4601221021FFF7FFFD0028B9
:103B50000ED1684601788F200140214368460170EC
:103B60006B4601221021284600F0B5F8002800D04D
:103B7000012038BD38B50C4605466B4601221A2196
:103B8000FFF7E4FD00280DD1694608786B46400830
:103B900040002043087001221A21284600F09BF8BB
:103BA000002800D0012038BD10B5FFF777FB10BD0D
:103BB00070B505468068006804682078002804D144
:103BC000284600F038F8012802D000206070E87024
:103BD00070BD38B50C466946FFF746FC012803D096
:103BE000684600782070002038BD10B5FFF7AAFCA9
:103BF00010BD10B5FFF744FD10BD10B5FFF76CFD0B
:103C000010BD70B5054680680068046820780028FB
:103C100005D121462846FFF767FD012803D0012082
:103C20006070E870002070BD10B5FFF7A7FD012897
:103C300000D0002010BD70B504468068006805689B
:103C4000207900280BD0A878002805D10021204633
:103C5000FFF775FF012802D00020E870207170BDC9
:103C600070B505468068006804682879012809D085
:103C7000224628466168FFF7F5FE012803D001209F
:103C8000E0702871002070BD10B582680379126859
:103C9000012B126805D0FFF711FF012800D000208A
:103CA00010BDFFF72BFFF8E710B5826803791268A3
:103CB000012B126805D0FFF7BBFE012800D00020C1
:103CC00010BDFFF7CFFEF8E710B500F01CF8012893
:103CD00000D0002010BDFFB581B01E4615460F462E
:103CE00000240CE03819C1B232190123019801F007
:103CF00019F9002802D0012005B0F0BD641CAC42C7
:103D0000F0DB0020F8E707B502AB0122FFF7E3FF85
:103D1000012800D000200EBD10B5012100F0E4F90B
:103D2000002800D0012010BD38B5044600206946A7
:103D30000870204600F0A0F8012805D069462078D8
:103D40000978884201D0012038BD002038BD10B567
:103D5000002100F0C9F9002800D0012010BD38B5BD
:103D60000C466B460122272100F0B9F8002801D04B
:103D7000012038BD68460078C007C00F2070684633
:103D800000788107C90F6170C106C90F8006A17054
:103D9000C00FE070002038BD10B50B4601220F2186
:103DA00000F09DF8002800D0012010BD38B50C4669
:103DB000694600F027F8012810D0684600782028CE
:103DC00012D004DC00280CD0102804D107E03028E1
:103DD0000CD040280CD007482060012038BD7F203F
:103DE000C0052060002038BD0348FAE70348F8E723
:103DF0000348F6E7000080BF0000E04000004841B3
:103E00000000C84138B50C466B460122202100F065
:103E100066F8002801D0012038BD6846007870217E
:103E200008402070002038BD38B50C466B46022291
:103E30002B2100F054F8002801D0012038BD68463D
:103E4000407801026846007808182080002038BDBC
:103E500038B50C466946FFF7E7FF002801D001207E
:103E600038BD6A4600203021105EFCF757F9FF305C
:103E7000AA302080002038BD10B5FFF78DFF012843
:103E800000D0002010BD10B50446FFF74DFF0128FB
:103E900024D02046FFF75BFF01281FD000212046D9
:103EA00000F0C4F8012819D00121204600F096F84E
:103EB000012813D00421204600F06AF801280DD013
:103EC0000121204600F036F9012807D00422012103
:103ED000204600F029F8012800D0002010BD10B5C0
:103EE0001C46012A01D9802319431346224601F0BA
:103EF00001F8002800D0012010BD10B513460122A2
:103F0000FFF7EDFF012800D0002010BD10B5FFF72E
:103F10001EFF012800D0002010BD10B5FFF7FCFEE9
:103F2000012800D0002010BDF8B514000D4606464B
:103F300007D0042C05D0082C03D00C2C01D0A521CF
:103F400008E0002D09D0012D07D0022D05D0032D4A
:103F500003D0A6210D4800F0C7F96B4601221021BD
:103F6000FFF7BDFF00280FD1684600786B460109B6
:103F7000090129432143684601700122102130467E
:103F800000F09AF9002800D00120F8BD7461000803
:103F900038B50C00054606D0042C04D0FF2177313B
:103FA0000D4800F0A1F96B4601222021FFF797FF91
:103FB00000280ED168460178FB2001402143684665
:103FC00001706B4601222021284600F075F9002877
:103FD00000D0012038BD00007461000838B50C46DF
:103FE0000546012906D0002C04D0FF21A1310E483E
:103FF00000F07AF96B4601222021FFF770FF0028BC
:104000000FD169460978F7200140E000084369466E
:1040100008706B4601222021284600F04DF9002847
:1040200000D0012038BD00007461000810B50B00FD
:1040300001F081F80504060808080F00102102E0CD
:10404000302100E0402100F023F8012800D00020BA
:1040500010BD012010BD00007F2210B5D205914295
:1040600001DC10210AE0084A914201DC202105E030
:10407000064A914201DC302100E0402100F008F8BE
:10408000012800D0002010BD0000E04000004841A1
:1040900038B50C0005460CD0102C0AD0202C08D0C6
:1040A000302C06D0402C04D0FF2131310D4800F0D7
:1040B0001BF96B4601222021FFF711FF00280ED1CA
:1040C000684601788F2001402143684601706B46A5
:1040D00001222021284600F0EFF8002800D001201E
:1040E00038BD00007461000838B50C00054606D0E4
:1040F000012C04D0FF215C310D4800F0F5F86B462F
:1041000001222021FFF7EBFE00280FD16946087835
:104110006B464106490EE0010843694608700122DA
:104120002021284600F0C8F8002800D0012038BD22
:104130007461000838B50C00054606D0012C04D087
:10414000FF21E3310C4800F0CFF86B46012220211B
:10415000FFF7C5FE00280DD1694608786B46400878
:1041600040002043087001222021284600F0A4F8D6
:10417000002800D0012038BD7461000810B5FFF799
:10418000D3FD10BD10B50446806800680068007853
:10419000002804D1204600F04FF8012805D0A1687E
:1041A0000020096809684870E07010BD38B50C46F9
:1041B0006946FFF7D4FD012803D0684600782070D7
:1041C000002038BD10B5FFF7F1FD10BD38B50D4624
:1041D000002469460C80FFF73BFE012808D06946A1
:1041E000085FFCF76BF90349FCF778F82860204674
:1041F00038BD00000000204110B5FFF73DFE10BDA6
:1042000010B504468068006800680078002804D172
:104210002046FFF738FE012806D0A1680120096872
:1042200009684870E070002010BD10B5FFF765FE0A
:10423000012800D0002010BD10B5044600790028E8
:1042400010D0A068006800688078002804D120465B
:10425000FFF75CFE012805D0A16800200968096805
:10426000C870207110BD10B504460079012806D031
:10427000A068006800688078002802D006E000206E
:1042800010BD2046FFF749FE0128F9D0A1680120A2
:1042900009680968C8702071F1E710B5FFF7C6FE1C
:1042A00010BD10B5FFF7D8FE10BD10B500F012F824
:1042B000012800D0002010BD10B51C46012A01D9EC
:1042C000802319431346224600F02CFE002800D01C
:1042D000012010BD07B502AB0122FFF7EDFF012859
:1042E00000D000200EBD00000A46014601A000F0EB
:1042F000FBFEFEE757726F6E6720706172616D653D
:104300007465727320746D703A2066696C6520253F
:1043100073206F6E206C696E652025640D0A0000A5
:10432000F0B58FB006460024D72069460294087382
:104330002E4800902E4801902E4805902E4804905B
:104340002E4806902E4800F06BFCE51F002809D18E
:104350000EA92B4800F05BFC002803D108A8007EC2
:104360006A2801D02C463DE007A9254800F002FC50
:104370006946087F897F40008900084369464A7F73
:1043800020491043086008391D481E4B08601E492B
:104390001B1F19601D4D1E4FF3070BD0012A09D1B9
:1043A0006B681C4A9B00FA5009688847002801D0B6
:1043B0000424E443B00715D56846007F012811D1D5
:1043C000A9681548890078500E480E490838091F19
:1043D0000968006809688847002802D00424E4437B
:1043E00000E0002420460FB0F0BD00004D0D000895
:1043F000150D0008C10D0008ED0D0008E10B0008C7
:1044000034060020A4010020BC010020A8010020E7
:1044100064060020F0010020CC01002070B50146A8
:1044200020310C46497A00290AD001461C302B3134
:10443000064601F060FD0025ED43002808D101E0AB
:10444000002070BD0021304601F084FD002801D01D
:10445000284670BD00206072F2E710B50446203493
:10446000617A012908D0E17A1C3001F073FD00283F
:1044700004D00020C04310BD002010BD0120607298
:10448000FAE7FEB50546002000900C46284601A933
:104490001C3001F03FFC0026F643002805D1694698
:1044A000284600F0ABF8002801D03046FEBD694632
:1044B0000420085EFCF702F80099FBF7D2FEFCF737
:1044C0000FF8206069460620085EFBF7F7FF0099A9
:1044D0000D46FBF7C6FEFCF703F86060694608204E
:1044E000085EFBF7EBFF2946FBF7BBFEFBF7F8FF87
:1044F000A0600020FEBD1CB50C4669461C3001F0D2
:1045000009FC002802D00020C0431CBD684600887A
:10451000208068464088608068468088A0800020AF
:104520001CBD000038B50C46002569461C3001F062
:104530002AFD01000B480BD169460978002908D0F3
:1045400001290DD0022906D0032907D005462846A7
:1045500038BD022000E004202060F8E70820FBE7D7
:104560001020F9E7FFFFFFFF38B50C46002569462C
:104570001C3001F0C0FC0100144826D169460978BE
:104580000B0000F0D8FD0C070C0E10121416181AB0
:104590001C1E0920002000E00D48206014E00D489A
:1045A000FBE70D48F9E70D48F7E70D48F5E70D483B
:1045B000F3E70D48F1E70D48EFE70D48EDE70D484B
:1045C000EBE70D48E9E70546284638BDFFFFFFFF4A
:1045D000CDCCCC3F000048410000D041000050420B
:1045E0000000D042000050430000D043004050443F
:1045F0000080CF44002050450020D04538B50C46FF
:10460000002569461C3001F0BEFC01000B480BD1AF
:1046100069460978002908D001290DD0022906D061
:10462000032907D00546284638BD054800E005485F
:104630002060F8E70448FBE70448F9E7FFFFFFFFC5
:1046400023DB793D23DBF93D23DB793E23DBF93E98
:1046500010B5022901DC002108E0042901DC022157
:1046600004E0082901DC032100E001211C3001F0F5
:104670009FFC002801D00020C04310BD10B50246A9
:104680002032537A012B04D01948814204DC0120E6
:104690002BE000F03FF810BD1648814201DC0220FB
:1046A00023E01548814201DC03201EE013488142CB
:1046B00001DC042019E01248814201DC052014E0ED
:1046C0001048814201DC06200FE00F48814201DCE6
:1046D00007200AE00D48814201DC082005E00C4873
:1046E000814201DC092000E00A20D072002010BDC8
:1046F000000048410000D041000050420000D0427C
:10470000000050430000D043004050440080CF449C
:10471000002050451B4A10B5914201DC012128E0E0
:10472000194A914201DC022123E0184A914201DC3E
:1047300003211EE0164A914201DC042119E0154ACA
:10474000914201DC052114E0134A914201DC06216B
:104750000FE0124A914201DC07210AE0104A91421F
:1047600001DC082105E00F4A914201DC092100E04B
:104770000A211C3001F0EEFB002801D00020C043CC
:1047800010BD0000000048410000D0410000504230
:104790000000D042000050430000D043004050448D
:1047A0000080CF440020504570B50446FFF736FE28
:1047B0000025ED43002804D1204600F00BF8002826
:1047C00001D0284670BD00212034E172217321728E
:1047D000084670BD70B5014620310C46897A002923
:1047E0000AD001461C302C31064601F0F6FA0025AD
:1047F000ED43002808D101E0002070BD00213046C3
:1048000001F018FB002801D0284670BD0020A072DE
:10481000F2E710B504462034A17A012908D0217BA3
:104820001C3001F007FB002804D00020C04310BD5D
:10483000002010BD0120A072FAE7FEB50C46054627
:1048400001A91C3001F06DFA0026F643002805D1BD
:104850006946284600F0ACF8002801D03046FEBD7D
:1048600069460420085EFBF729FE0099FBF7F9FC76
:10487000FBF736FE206069460620085EFBF71EFE49
:1048800000990D46FBF7EDFCFBF72AFE60606946D8
:104890000820085EFBF712FE2946FBF7E2FCFBF757
:1048A0001FFEA0600020FEBD1CB50C4669461C30F2
:1048B00001F037FA002802D00020C0431CBD684632
:1048C0000088208068464088608068468088A08094
:1048D00000201CBD38B50C46002569461C3001F08F
:1048E000C2FA01000E4819D1694609780B0000F0A0
:1048F00022FC0707050A130D131013007D2000E0AA
:10490000FA20206009E0FF20F530FAE77D20C000A2
:10491000F7E77D200001F4E70546284638BD000092
:10492000FFFFFFFF38B50C46002569461C3001F03B
:1049300054FA0100134824D1694609780B0000F0AD
:10494000FAFB0B07090C0E10121416181A1C1E0085
:10495000002000E00C48206012E00C48FBE70C4807
:10496000F9E70C48F7E70C48F5E70C48F3E70C4883
:10497000F1E70C48EFE70C48EDE70C48EBE705469C
:10498000284638BDFFFFFFFF000048410000D0412E
:10499000000050420000D042000050430000D043CD
:1049A000004050440080CF44002050450020D045B6
:1049B00038B50C46002569461C3001F054FA010058
:1049C0000C4816D1694609780B0000F0B4FB0707C4
:1049D000050A100C100E1000074800E00748206080
:1049E00006E00748FBE70748F9E70748F7E7054609
:1049F000284638BDFFFFFFFF00008C4000000C413F
:104A000000008C4100000C4200008C4210B57D2952
:104A100001DC012110E0FA2901DC00210CE0FF2279
:104A2000F532914201DC022106E07D22D200914262
:104A300001DC042100E006211C3001F034FA0028DA
:104A400001D00020C04310BD10B502462032937A39
:104A5000012B04D01948814204DC01202BE000F036
:104A60003FF810BD1648814201DC022023E01548C2
:104A7000814201DC03201EE01348814201DC042056
:104A800019E01248814201DC052014E010488142FF
:104A900001DC06200FE00F48814201DC07200AE01C
:104AA0000D48814201DC082005E00C48814201DC10
:104AB000092000E00A201073002010BD00004841CA
:104AC0000000D041000050420000D042000050439E
:104AD0000000D043004050440080CF4400205045A7
:104AE0001B4A10B5914201DC012128E0194A91428C
:104AF00001DC022123E0184A914201DC03211EE07F
:104B0000164A914201DC042119E0154A914201DC68
:104B1000052114E0134A914201DC06210FE0124AFC
:104B2000914201DC07210AE0104A914201DC082190
:104B300005E00F4A914201DC092100E00A211C3006
:104B400001F078F9002801D00020C04310BD00001A
:104B5000000048410000D041000050420000D04217
:104B6000000050430000D043004050440080CF4438
:104B700000205045012008704870002088707D2278
:104B8000C87012014A6010228A60C860024A0A6135
:104B90004A618861704700000020D045F8B504469E
:104BA0001C300121074601F0C3F80026F643002817
:104BB00027D10121384601F0D5F8002821D1002164
:104BC000384601F0F0F800281BD104252034E572A6
:104BD0000021384601F0BEF9002812D100213846E4
:104BE00001F0E6F900280CD125730021384601F0C8
:104BF00021F9002805D10621384601F054F9002892
:104C000001D03046F8BD012020720020F8BD10B55B
:104C10001C3001F0C1F8002801D00020C04310BDB5
:104C200070B500256E1E0446002825D00868206057
:104C30004A6862608A68A2600A7B22730A692261FC
:104C40004A6962618969A1610D4921620D49646205
:104C5000E161002810D0804700280DD1A06802280B
:104C60000BD12820005D002807D10C2212212046FC
:104C700000F00AF8002800D03546284670BD000034
:104C8000734D0008D950000807B5012302AA1C3053
:104C900001F02AF9002801D00020C0430EBD000019
:104CA00001B582B002A8009005480123418A002284
:104CB000008A00F095FD002800D047200EBD0000BE
:104CC0000C00002070B50446114820600025A56046
:104CD00025616561A561E561012125620D48E160FD
:104CE00060602046FCF7A6FC002800D001250021CA
:104CF0002046FCF725FC002800D001250021204695
:104D0000FCF74EFC002800D00125284670BD0000AD
:104D100000540040280C2000704700008307FF2249
:104D2000DB0E9A408907090E994000280BDA00072C
:104D3000000F0838830808489B001818C36993437C
:104D40000B43C3617047830804489B001B18186815
:104D5000904308431860704700ED00E000E400E075
:104D600010B5FBF7EFF910BD10B5FBF708FA10BD51
:104D7000704730B404466469007BA44630BC604789
:104D80003EB5284C2189491C884209D10020264A79
:104D90000221FEF707FA244807C8FBF719FD39E09E
:104DA000A2890021521C90420AD16A4611806846AD
:104DB00000F048F96A460020105E00F031F929E061
:104DC000628A521C904203D1A078FFF769FF21E06C
:104DD000E289521C90421DD168460180017101A9EF
:104DE000A069FBF78DFF00280FD1684600790128E4
:104DF0000BD102A9A069FBF769FF0C490298FBF7E8
:104E000030FAFBF76DFB6946088069460020085EB2
:104E1000FDF7E4FFA088002802D0A08800F0A2FCE3
:104E20003EBD00000C0000201802002000002041C0
:104E3000F8B51D4616460F460446FCF77BFB314687
:104E400026464036009000291ED043E0681C1BD047
:104E5000002D05D0FCF76EFB0099401AA84213D92B
:104E600020684168E0229143416020680268402147
:104E70008A43026023E021680A6882430A6021684D
:104E80000A6802430A601FE0206881683846884348
:104E9000DCD124E0681C1DD0002D06D0FCF74AFBB5
:104EA00001460098081AA84214D920684268E021F7
:104EB0008A434260206801684022914301600120DA
:104EC000A16A40038142D6D0012070740020307462
:104ED0000320F8BD2068816838468843DAD0002076
:104EE000F8BD704710B5FDF795FF002800D00120F0
:104EF00010BD00003EB54478084800680092019358
:104F000002900A46012321460548FCF7E5FB0028EC
:104F100003D02046FDF774FF01203EBD5C00002059
:104F2000740500203EB5447808480068009201935B
:104F300002900A46012321460548FCF757FC002849
:104F400003D02046FDF75CFF01203EBD5C00002041
:104F50007405002010B5FCF7CFFC02484168491CDD
:104F6000416010BD0000002070B5164C94B0A06BDD
:104F700021040843A063144801680322D20291432C
:104F8000C21489180160022000900A904004012692
:104F90000C9003960001102100250D900B950491B3
:104FA0006846FCF7E7FD03200F901095119501214D
:104FB0000E9612950EA8FCF7E1FC606B304360631F
:104FC00014B070BD0010024000700040104801682D
:104FD000821511430160C1680E4A1140C160016829
:104FE0000D4A1140016081684908490081600168EB
:104FF0000122920491430160C168FD221204914391
:10500000C160002101610549C0038860704700004C
:10501000001002400C40FF88F6FFF6FE00ED00E0B5
:1050200001B582B002A800900548022381890022C0
:10503000408900F0D5FB002800D047200EBD0000BD
:105040000C0000207CB50446002069460E4D087017
:10505000E869FCF709F8002814D1684600780128AF
:1050600010D101A9E869FBF7C1FF08490198FBF7D6
:10507000F8F8FBF787FA0022054BFBF76DF9FBF711
:105080005DFA20807CBD00000C0000200000204163
:105090000000E03F10B50446FCF7C0F82168401A54
:1050A0006168401C814201D2012010BD002010BD6A
:1050B00010B504464160FCF7B1F8206010BD000057
:1050C00010B5044C2078002803D001F019F8002016
:1050D000207010BD0C00002030B404462469007B11
:1050E000A44630BC604700000FB410B503A9044BC0
:1050F000044A029800F03CF810BC08BC04B0184701
:1051000019590008140200202021020C01D010219E
:105110001046020A01D010460839020901D0104693
:10512000091F820801D01046891E420801D0881E3E
:105130007047081A704730B47446641E2578641CA2
:10514000AB4200D21D46635D5B00E31830BC1847DC
:1051500002E008C8121F08C1002AFAD17047704740
:10516000002001E001C1121F002AFBD1704700009E
:10517000FFB58DB00F460546002606E025280AD06B
:10518000109A0F9990476D1C761C28780028F5D14D
:10519000304611B0F0BD00240121674A009400E0C0
:1051A00004436D1C2B780846203B98401042F7D1F1
:1051B00028782E2815D10420044368786D1C2A28ED
:1051C0000AD101CF6D1C00900BE000990A225143D7
:1051D000303940186D1C0090287801463039092973
:1051E000F3D92878692843D006DC0028D0D063287A
:1051F0000BD0642804D13BE073280FD075284CD025
:10520000109A0F999047761C94E038786946087296
:105210000020487202A80190012003E03868019044
:105220000020C0433F1D61070CD5002400E0641C32
:1052300000998C420FDA8442F9DB0199095D00295B
:10524000F5D108E0002400E0641C8442FCDB0199F5
:10525000095D0029F8D1361907E001980199007815
:10526000491C0191109A0F999047641EF5D261E094
:105270000A20019001CF002802DA40422D2102E0ED
:10528000210504D52B216A461172012103E0E107B3
:1052900001D02021F7E70C9104E00A20019001CF12
:1052A00000210C910BA90B9108E00199FAF720FF5E
:1052B0000A460B993032491E0B910A700028F4D12E
:1052C0000B9803A9081A20300190600701D50098B7
:1052D00001E0012000900199884203DD0146019818
:1052E000081A00E000200024009006E002A8109AAE
:1052F000005D0F999047641C761C0C988442F5DB86
:1053000004E0109A30200F999047761C0099481EAF
:1053100000900029F5DC08E00B980B990078491CF7
:105320000B91109A0F999047761C0199481E019095
:105330000029F1DC6D1C28E70928010070B58AB04E
:105340000E466946087015461C460722002101A832
:10535000FFF70AFD1822002103A8FFF705FD3F20F3
:10536000694688818A20C8810120069001A807909B
:10537000072005910890002103A800F089FB002870
:1053800002DAFF200AB070BD684600790028F9D122
:105390006846817942790802104330806846017A74
:1053A000C2790802104328806846817A427A08024E
:1053B000104320800020E5E7F0B589B06C460E9FD1
:1053C0000F9E20706170A2701D460722002101A867
:1053D000FFF7CAFC1822002103A8FFF7C5FC3F20F5
:1053E000A0818A20E0810320069001A80790072071
:1053F00008900594002103A800F04AFB002802DA77
:10540000FF2009B0F0BD684600790028F9D1684650
:10541000817942790802104328806846017AC2796E
:105420000802104338806846817A427A08021043A5
:1054300030800020E5E7F0B58FB01D4613460246E8
:105440006846179F169E02704170102219466C46DE
:10545000801CFFF785FC684685741499C174159902
:10546000017505A901313046FAF799FE684647767D
:105470001822002108A8FFF777FC3F216846018425
:10548000862141841A200B9007A80C9001200D90D2
:105490000A94002108A800F0FBFA002802DAFF2095
:1054A0000FB0F0BD6846007FFAE7FFB591B01D9ED2
:1054B0001B9DA9190E31282902D9422015B0F0BD33
:1054C0006C4620700127022212A9601CFFF748FCDD
:1054D000E01C022213A9FFF743FC694614984871A7
:1054E0001A988871CD7102A82A461C99FFF738FCDA
:1054F0000835E8B22654401CC5B2601932461E99E0
:10550000FFF72EFCA819C5B2601902221FA9FFF7E8
:1055100027FCAD1CEDB26019022220A9FFF720FC88
:10552000AD1CEDB2182200210BA8FFF71DFC3F2097
:10553000694688858320C8850AA80F9000211097A6
:105540000E950D940BA800F0A3FA002801DAFF20B5
:10555000B4E708A8007AB1E7FFB58FB00C466D46F6
:105560001E46284602220FA9FFF7FAFB68460327CA
:105570008470012C39D01024E81C22461199FFF7C1
:10558000EFFBE41C2E55641C18982855641C1998D0
:105590002855641CE0B21A992954401CC0B21B99CA
:1055A0002954401CC0B21C992954401CC4B2032287
:1055B000002107A8FFF7D8FB1822002108A8FFF751
:1055C000D3FB3F2168460184FF210531418407A8B0
:1055D0000C9000210D970A950B9408A800F058FA3A
:1055E000002804DAFF2013B0F0BD0224C4E76846A7
:1055F000007F0028F7D16846817F427F08021D990D
:10560000104308800020EEE7FFB5A7B015466C46B2
:105610002046022227A9309F319EFFF7A1FBA01C44
:10562000022228A9FFF79CFB68460571012D11D0C5
:105630001025601D2A462A99FFF792FB6D1D6755BC
:105640006D1C66556D1C7019401D802804D94220C0
:105650002BB0F0BD0225ECE7601932463299FFF716
:105660007FFBA819C0B233992154401CC0B23499B1
:105670002154401CC0B235992154401CC0B2369907
:105680002154401CC0B237992154401CC5B203229A
:10569000002126A8FFF768FB1822002120A8FFF7A9
:1056A00063FB3F2120A80180FF210631418026A80D
:1056B00024900320259023952294002120A800F017
:1056C000E7F9002801DAFF20C2E720A8007E0028C1
:1056D000BED120A8817E427E0802389910430880FE
:1056E0000020B5E7F0B58DB06D461E461746287010
:1056F000012828D010242246681CFFF731FB641CC7
:105700002F55641C2E550322002105A8641CFFF7A9
:105710002BFB1822002106A8FFF726FB3F21684635
:105720000183FF210331418305A80A9003200B90D8
:1057300008950994002106A800F0AAF9002804DAC7
:10574000FF200DB0F0BD0224D5E76846007D00289B
:10575000F7D16846817D427D080212991043088086
:105760000020EEE700B589B0694688831822002141
:1057700001A8FFF7F9FA3F2069468880FF2028300A
:10578000C88007A80390022004900120059106908C
:10579000002101A800F07CF9002802DAFF2009B0FE
:1057A00000BD68460078FAE700B587B018220021EE
:1057B00001A8FFF7D9FA3F2168468180FF21023115
:1057C000C180059001200690002101A800F060F939
:1057D000002802DAFF2007B000BD68460078FAE72B
:1057E000FFB59E1DA7B01D461746802E02D9422048
:1057F0002BB0F0BD6C462046022227A9FFF7B0FA75
:10580000A01C022228A9FFF7ABFA68460771457170
:10581000A01D2A463099FFF7A3FAF5B218220021FD
:1058200020A8FFF7A1FA3F2120A80180FF2107311E
:10583000418026A8249001202590239522940021C0
:1058400020A800F025F9002801DAFF20D0E720A8E1
:10585000007ECDE700B589B06A46107051701822FD
:10586000002102A8FFF780FA3F206A4610810F202E
:1058700050810220059001A8069001200790049213
:10588000002102A800F004F9002802DAFF2009B084
:1058900000BD68460079FAE770B513468D1CA8B0C4
:1058A0000246802D02D9422028B070BD684602769B
:1058B00041760A4606AC012619461A30FFF750FA1F
:1058C000EDB2182200216846FFF74EFA3F216846E4
:1058D00001800C21418026A80490002105960395A3
:1058E0000294684600F0D4F8002801DAFF20DBE7D4
:1058F00020A8007ED8E7000010B5064CE069FBF751
:10590000BDFBA069FBF7BAFB02210020FDF728FCD4
:1059100010BD00000C00002038B504466846047035
:1059200069460320ABBE204638BD70B586B006463A
:1059300001A80C46009005AB04AA02A903A800F038
:105940001DF805062D0E14D168460089000A307036
:105950006846008902022280684680880006000F9F
:10596000000102432280684680880007000F02433E
:105970002280FCF7EDFD284606B070BDF0B589B079
:1059800015460E4607461C46092200216846FFF7C9
:10599000EBF91822002103A8FFF7E6F90421684675
:1059A00081810121C1810020059006906846079001
:1059B00009200890002103A800F06AF8002802DA04
:1059C000FF2009B0F0BD684600780028F9D168468C
:1059D0004078387068464088308068460079287082
:1059E0006846817942790802104320806846017A2E
:1059F000C27908020E99104308800020E1E730B513
:105A00008FB00D460446202200216846FFF7ACF90E
:105A1000684604701F2C00D91F24224604462946DC
:105A2000401CFFF79DF91822002109A8FFF79CF9F7
:105A30000821684681840921C18420200C9008A88F
:105A40000D9001200E900B94002109A800F020F881
:105A5000002802DAFF200FB030BD08A80078FAE76E
:105A60007CB58905890D80020143684601808270FA
:105A70000121017114461D4603226946401DFFF7AE
:105A80006FF923460422294601A800F0C9F87CBD1D
:105A9000F3B50446408821788005800D89020843CB
:105AA00085B25D488BB00A210068FAF721FB0746F2
:105AB000002605A8049600F0D7F8FBF7B3FB0AE030
:105AC0006946564800F0F7F854480099083800F045
:105AD000DAF8FCF707FD5148083800F0B7F802285B
